:020000040800F2
:10000000102D0020D901000835B30008ED6B000861
:100010008DB10008011100082D61010800000000E9
:10002000000000000000000000000000952F010803
:1000300085130008000000006DBE0008313D010876
:10004000F3010008F3010008513F0108F301000823
:10005000F3010008F3010008891300089113000858
:10006000F3010008F3010008F3010008F3010008A0
:10007000F3010008F3010008F301000879130008F8
:10008000F3010008F3010008F3010008F301000880
:1000900000000000F3010008F3010008F30100086C
:1000A000F3010008F3010008F3010008F301000860
:1000B000F3010008F3010008F3010008F301000850
:1000C000F3010008F3010008F3010008F301000840
:1000D000F30100088D560108F3010008F301000840
:1000E000F3010008F3010008EDC50008F301000862
:1000F000F30100080000000000000000F301000808
:10010000F3010008F3010008E51C0108F3010008F1
:10011000F3010008F3010008F3010008F3010008EF
:10012000F3010008F3010008F3010008F3010008DF
:10013000F3010008F301000800F002F800F03CF8B9
:100140000AA090E8000C82448344AAF10107DA4532
:1001500001D100F031F8AFF2090EBAE80F0013F048
:10016000010F18BFFB1A43F0010318475488010020
:1001700074880100103A24BF78C878C1FAD85207B1
:1001800024BF30C830C144BF04680C607047000011
:100190000023002400250026103A28BF78C1FBD890
:1001A000520728BF30C148BF0B6070471FB517F01A
:1001B0004DFD1FBD10B510BD00F022F91146FFF72F
:1001C000F5FF16F0F7FB00F059F903B4FFF7F2FF63
:1001D00003BC00F0BFF90000094880470948004708
:1001E000FEE7FEE7FEE7FEE7FEE7FEE7FEE7FEE7E7
:1001F000FEE7FEE704480549054A064B7047000044
:100200004D3F01083901000810230020102D002067
:10021000102500201025002053EA020C00F0698010
:100220002DE9F04B4FF00006002B1FBFB3FA83F50A
:1002300003FA05F424FA05F65E4012BF1643B2FA3B
:1002400082F502FA05F4C5F120051EBF22FA05FC6D
:1002500044EA0C04203556EA044C4FEA144418BF13
:10026000641C4FF000084FF00009904271EB030C42
:1002700039D3002919BFB1FA81F701FA07F6B0FAAC
:1002800080F700FA07F6C7F120071EBF20FA07FC27
:1002900046EA0C062037B6FBF4FCA7EB0507103F37
:1002A00007F01F0BCBF120062CFA06F60CFA0BFB1D
:1002B00044BFB3460026202FA4BF5E464FF0000B7C
:1002C0005BEA060C08BF4FF0010B19EB0B0948EB7A
:1002D0000608ABFB027C06FB02CC0BFB03CCC01B6D
:1002E00071EB0C01C1E70B46024641464846BDE8AA
:1002F000F08B13B5084318BF4FF0FF300146AFF342
:100300000080BDE81C40704710B5431C02E010F8A7
:10031000011B71B18107FAD14FF0013202C88C1A6A
:100320008C4314EAC211F9D0C01A0A0603D0C01EC9
:1003300010BDC01A10BD0A0401D0801E10BD0902F4
:10034000FCD0401E10BD02F0FF0343EA032242EA44
:10035000024200F02CB84FF0000200B5134694465C
:100360009646203922BFA0E80C50A0E80C50B1F10D
:100370002001BFF4F7AF090728BFA0E80C5048BF21
:100380000CC05DF804EB890028BF40F8042B08BFBF
:10039000704748BF20F8022B11F0804F18BF00F8BB
:1003A000012B70477047704770474FF000020429D7
:1003B000C0F0128010F0030C3FF4CFAFCCF1040C6E
:1003C000BCF1020F18BF00F8012BA8BF20F8022BC8
:1003D000A1EB0C01FFF7C1BF5FEAC17C24BF00F8AD
:1003E000012B00F8012B48BF00F8012B70470000DB
:1003F0000048704724010020004870472001002079
:100400007546FFF7F9FFAE4605006946534620F0F2
:100410000700854618B020B5FFF7ECFEBDE8204088
:100420004FF000064FF000074FF000084FF0000BB0
:10043000AC46ACE8C009ACE8C009ACE8C009ACE81F
:10044000C00921F007018D46704700001FB584B038
:1004500000200A9C06AB04AA02A90094AFF3008016
:1004600018B1DDE9020108B010BD0348204000F0DA
:100470000EF800200146F6E70000207C10B5044687
:10048000AFF300802046BDE81040FFF79EBE10B5D8
:1004900000F00AF8BDE81040AFF30080002801D05A
:1004A00000F058B87047000010B5022803D0410191
:1004B00003D50DA112E0002010BD010101D50FA14F
:1004C0000CE0C10001D511A108E0810001D512A105
:1004D00004E0400001D513A100E0002115A000F0C8
:1004E0003FF8012010BD0000496E76616C69642000
:1004F0004F7065726174696F6E00000044697669BF
:100500006465204279205A65726F00004F766572EB
:10051000666C6F7700000000556E646572666C6FE4
:1005200077000000496E65786163742052657375C9
:100530006C7400005349474650453A204172697433
:10054000686D6574696320657863657074696F6E42
:100550003A20000001491820ABBEFEE72600020049
:1005600070B505460C460A2000E06D1C00F011F83D
:1005700035B128780028F8D102E0641C00F009F8B1
:1005800014B120780028F8D1BDE870400A20AFF3FC
:10059000008008B569468DF800000320ABBE08BD99
:1005A00070470000B0B50168044688688A68800713
:1005B0004FF0000033D412F0010208BFB0BD8868CC
:1005C00000F0050001281FD188684FF6E872C7F6D1
:1005D000FF721040023088600320086002F09CFD2A
:1005E00021688968C90704BF0020B0BD054602E044
:1005F0008068C00712D002F08FFD411B20680329DC
:10060000F6D38168C907F3D0A06D40F01000A06553
:10061000E06D40F00100E0650120B0BD0020B0BDFC
:1006200070B582B004460020019021688A68D20724
:1006300070D14FF6E876C7F6FF76886806F12F028C
:1006400010420AD0A06D40F01000A065E06D40F0AF
:100650000100E065012002B070BD8868304040F0C4
:100660000100886042F20870C4F2010000680002D4
:1006700022D4607E01281CD002F04EFD21680A6859
:10068000D20716D1054602E00868C00741D1886844
:10069000C00704D18868304040F00100886002F053
:1006A0003BFD401B21680328EED30868C007EBD14F
:1006B000C8E7002002B070BD40F21410C2F2000082
:1006C000006842F663518009C0F23E51A0FB01016F
:1006D000012000EB9110019001980028C9D000BFC3
:1006E00001980138019001980028C2D00198013882
:1006F000019001980028BCD0019801380190019820
:100700000028B6D001980138019001980028E7D15F
:10071000AFE7002002B070BDB0B584B0002504463C
:100720000395CDE901550AF03BFB41F64C70C2F24E
:10073000000001F08FF8002818BF00F04DFE41F6D0
:100740004C70C2F2000001A9CDE90145039501F00A
:10075000AFFA002818BF00F03FFE41F64C70C2F21D
:10076000000001F037FE002818BF00F035FE41F60A
:100770004C74C2F2000420464FF0FF3101F0B2FD8C
:10078000204601F055FE204601F03AFC0546204681
:1007900001F0C2FB284604B0B0BD00002DE9F04FC7
:1007A0009FB01BAE0C46129030460021102216F06E
:1007B000C5F930463146224615F0CCFC9DF86D5007
:1007C0009DF96C009DF86E60E90941EA40019DF8D1
:1007D0006F704AB28DF86C10F10941EA45019DF83D
:1007E000703015918DF86D10F90941EA46011491A8
:1007F0008DF86E10D9099DF8718041EA4701169273
:100800000D918DF86F104FEAD8119DF8722041EAD2
:10081000430107930F918DF87010D1099DF8733043
:1008200041EA48019DF874B00E918DF87110D90914
:10083000039241EA420100284FEADB109DF875203F
:1008400040EA430008908DF873004FEAD2109DF8FB
:1008500076A040EA4B00069709908DF874004FEAA5
:10086000DA109DF8777040EA420002930A908DF802
:1008700075004FEAD7109DF8783040EA4A000B9097
:100880008DF876004FEAD3109DF8799040EA470042
:100890000C908DF877004FEAD91040EA430E9DF88E
:1008A0007A0010918DF872104FEAD0119DF87BC03C
:1008B00041EA490111918DF879104FEA4C010495F4
:1008C00005968DF878E06FF0780548BF85EA4C0111
:1008D000D4F814614FEADC1545EA4005102E139553
:1008E0008DF87A508DF87B1040F0818094F80101EA
:1008F000169B94F8022183EA000C1598149B504033
:10090000159094F8030194F80421584014900D9820
:100910000F9B5040169094F8050194F8062158401A
:1009200007900E98109B80EA020594F8070194F84E
:10093000082183EA00070898099B50400D9094F81D
:10094000090194F80A21584009900A980B9B80EA03
:10095000020A94F80B0194F80C2183EA000B0C981E
:1009600094F8103180EA020894F80D0194F80E21F1
:100970008EEA00061198119580EA020994F80F0199
:10098000139A84F80651424081EA03001499159B9A
:1009900084F8031116990D9D84F804110799109796
:1009A00084F80771099FCDF84CA084F80AA19246FB
:1009B000E64684F801C184F802318C4684F80511BA
:1009C00084F8085184F80971CDF838B084F80BB177
:1009D000CDF83C8084F80C818046324684F80D6165
:1009E00084F80E9184F80FA184F810013DE101967E
:1009F000049EC446C6F38015DDF8588045EA4805D4
:100A000004958DF86C50059DB8F1000FC5F3801565
:100A1000159E45EA460515958DF86D50069DC5F362
:100A20008015149E45EA460506958DF86E50079D83
:100A3000C5F380150D9E45EA460505958DF86F5066
:100A4000CCF38015DDF83CC0039E45EA4C050D95BE
:100A50008DF87050C6F380150E9E45EA4605029E3D
:100A600007958DF87150C6F38016109D46EA45062D
:100A70000F968DF87260CBF38016089D46EA450606
:100A80008DF87360C2F38012099D42EA450210920C
:100A90008DF87420CAF380120A9D42EA45020E9234
:100AA0008DF87520C7F380120B9F42EA47020A9225
:100AB0008DF87620C3F380120C9B42EA430A8DF82E
:100AC00077A0C9F3801242EA4E0214928DF8782082
:100AD000C0F38010019A4FF08003224482F8013164
:100AE000119A4FEA410340EA420E6FF0780048BF86
:100AF00080EA4103C9B2139AC90941EA4200D4F815
:100B000014210C938DF87B30531C0F2B8DF879E05A
:100B100011908DF87A00C4F8143129D8002200BF52
:100B2000234483F80121D4F814310133102BC4F885
:100B300014311DD2234483F80121D4F81431013338
:100B40000F2BC4F8143113D8234483F80121D4F8AF
:100B5000143101330F2BC4F8143109D8234483F81E
:100B60000121D4F814310133102BC4F81431D7D338
:100B700094F80121049894F8023150400B90159894
:100B800094F8032158401590069894F8043180EAAF
:100B90000205059894F80521584016900D9894F890
:100BA000063180EA020C079894F8072180EA0301D5
:100BB00094F808310F9884F8035180EA020B86EA12
:100BC00003000D9094F80921109894F80A3180EAF6
:100BD00002070E9894F80B215840139094F80C31AA
:100BE0000A988AEA0308504094F80D2194F80E31CF
:100BF000DDF850A08EEA03098AEA020694F80F2174
:100C0000DDF844E094F810318EEA020A0C9A14954B
:100C10005A400B9B0D9D9E4684F80131159B119106
:100C200084F80231169B84F806111399CDF83C80A4
:100C300084F80C819046324684F8043184F805C16A
:100C4000CDF840B084F807B184F8085184F80971F0
:100C500084F80A110E9084F80B0184F80D6184F871
:100C60000E9184F80FA184F81081214611F8F13F0C
:100C700094F8F260159883EA0E030B7080EA06037D
:100C800094F8F36084F8F230149B1398734094F84E
:100C9000F46084F8F330169B734094F8F56084F8A0
:100CA000F4308CEA060394F8F66084F8F530119B72
:100CB000734094F8F76084F8F630109B734094F812
:100CC000F86084F8F73085EA060394F8F96084F850
:100CD000F83087EA060394F8FA6084F8F93080EA7D
:100CE000060394F8FB6084F8FA300E9B94F8FF70CA
:100CF000734094F8FC6084F8FB300F9B734094F8C9
:100D0000FD6084F8FC3082EA060394F8FE6084F803
:100D1000FD3089EA060384F8FE3094F800318AEA4F
:100D2000070288EA030017AE84F8FF2084F8000168
:100D30003046102215F090FE12993046224615F0EA
:100D400009FA1BA80021102215F0F8FE1FB0BDE81B
:100D5000F08F0000B0B50446F130002110220025CC
:100D600015F0ECFE20460021F022C4F81451BDE835
:100D7000B04015F0E3BE000002460846102115F011
:100D8000FFBB00002DE9F04784B00446D0F8140101
:100D9000914600280E4600F0AA80C0F110074D468B
:100DA00020444F4538BF3D4600F20110AAB23146FB
:100DB00015F052FED4F814014F452844C4F814012C
:100DC00080F026811028C0F02381A04618F8F10F8A
:100DD00094F8011194F8F320484088F8000094F842
:100DE000020194F8F21094F8F430484094F803119A
:100DF00084F8F20081EA020094F8041194F8F57086
:100E000084F8F30081EA030094F8051184F8F400F3
:100E100081EA070094F8F61094F8062184F8F500AA
:100E200082EA010094F8F71094F8072184F8F6009C
:100E300082EA010094F8F81094F8082184F8F70089
:100E400082EA010094F8F91094F8092184F8F80076
:100E500082EA010094F8FA1094F80A2184F8F90063
:100E600082EA010094F8FB1094F80B2184F8FA0050
:100E700082EA010094F8FC1094F80C2184F8FB003D
:100E800082EA010094F8FD1094F80D2184F8FC002A
:100E900082EA010094F8FE1094F80E2184F8FD0017
:100EA00082EA010094F8FF1094F80F2184F8FE0004
:100EB00082EA010094F8001194F8102184F8FF00F0
:100EC00082EA01006F4684F800013846414610224C
:100ED00015F0C2FD38463946224615F03BF940462A
:100EE0003946102215F0B8FD2E44A9EB0509B9F1D9
:100EF000110FC0F08480A9F1110004F1F10A20F073
:100F00000F08A6F110056E464F4600BF15F8100FEA
:100F100094F8F11094F8F220484084F8F1006878D1
:100F200094F8F310504084F8F200A87894F8F42074
:100F3000484084F8F300E878504084F8F40094F8CE
:100F4000F50029791022484084F8F50094F8F6005D
:100F50006979484084F8F60094F8F700A979484088
:100F600084F8F70094F8F800E979484084F8F8002C
:100F700094F8F900297A484084F8F90094F8FA00C6
:100F8000697A484084F8FA0094F8FB00A97A48404E
:100F900084F8FB0094F8FC00E97A484084F8FC00EF
:100FA00094F8FD00297B484084F8FD0094F8FE0089
:100FB000697B484084F8FE0094F8FF00A97B484014
:100FC00084F8FF0094F80001E97B484084F80001B0
:100FD0003046514615F040FD30463146224615F068
:100FE000B9F850463146102215F036FD103F102F4B
:100FF0008CD8A9EB0800A0F1100905F1100604F245
:1010000001101FFA89F2314615F026FDC4F814913B
:1010100004B0BDE8F0870000032820D8B0B5002157
:10102000C000C0F20111C1404FF48072CCB222FA6C
:1010300000F54FF090404021224602F067F8EAB2F6
:101040004FF09040802102F061F840F60000C4F6B5
:1010500000002021224602F059F8BDE8B0400020EF
:10106000704700001621002808BF0F21084670476E
:1010700002207047B0B586B000204C210490C5F620
:1010800000010A686C4642F004020A60096801F037
:10109000040105910599802100910121CDE90110FC
:1010A000032003904FF09040214601F03DFF40F6B1
:1010B00000052020C4F6000500902846214601F0D6
:1010C00033FF402000904FF09040214601F02CFF6C
:1010D00028462021002202F019F84FF0904080218C
:1010E000002202F013F84FF090404021002202F05D
:1010F0000DF8002006B0B0BD0120704701207047F8
:10110000FEE700002DE9F041CAB0064600294FF085
:10111000020059D0DDF84081B8F1000F54D0684684
:101120001F4614460D46FFF715FE41F6E460C2F275
:1011300000000068014611F8102FBA422CD0014679
:1011400011F8212FBA4227D0014611F8322FBA42A6
:1011500022D0014611F8432FBA421DD0014611F8A2
:10116000542FBA4218D0014611F8652FBA4213D055
:10117000014611F8762FBA420ED0014611F8872F9A
:10118000BA4209D0014611F8982FBA4204D010F89B
:10119000A91FB94201461AD101316846FFF7ECFD9B
:1011A00026B1684631461022FFF7ECFD6E46304608
:1011B00029462246FFF7E6FD46A83146FFF7EEFA3C
:1011C0004698C8F8000000204AB0BDE8F08103202E
:1011D0004AB0BDE8F081000000284FF0000218BFBF
:1011E000002901D110467047B0B548F22032CEF642
:1011F000B852012901F0010C07D14FF0FF31002353
:10120000BCF1000F00F0A88074E0ACEB010E4FF0D1
:10121000FF316FF0010300BFC418A578E47869407E
:1012200001F001056D42154085EA5105C1F3400109
:101230004942114081EA5501C5F340056D42154010
:1012400085EA5105C1F340014942114081EA550147
:10125000C5F340056D42154085EA5105C1F34001D3
:101260004942114081EA5501C5F340056D421540E0
:1012700085EA5105C1F340014942114081EA550117
:10128000614001F001046442144084EA5104C1F356
:1012900040014942114081EA5401C4F340046442D0
:1012A000144084EA5104C1F340014942114081EAEB
:1012B0005401C4F340046442144084EA5104C1F36D
:1012C00040014942114081EA5401C4F340046442A0
:1012D000144084EA5104C1F34001494202331140F1
:1012E0000EEB0305023581EA540195D10233BCF1BE
:1012F000000F31D0C05C484000F00101494211406C
:1013000081EA5001C0F340004042104080EA5100A1
:10131000C1F340014942114081EA5001C0F340004D
:101320004042104080EA5100C1F34001494211405F
:1013300081EA5001C0F340004042104080EA510071
:10134000C0F34003C1F3400149425B4211401340E6
:1013500081EA500083EA5001CA43BDE8B04010461C
:101360007047000080B501F0B3F801F0C5F8BDE8A2
:10137000804001F0B7B8000041F6B070C2F2000042
:1013800001F0B2B970470000012001F0C1BD0000BA
:10139000022001F0BDBD00000020704710B50446DA
:1013A00011F01AFE001216F0F3FA00220021C4F226
:1013B0007A4240F60D1340F2AB3CC4F24821C0F231
:1013C0003E03C0F2050CC4E900200020C4E902136A
:1013D000C4F810C010BD0000EFF3108072B600BF5B
:1013E000FEE7000080B584B00223CDE9013001A8FA
:1013F000039112B101F062FB02E0694601F0EEFADE
:101400006FF00101022808BF0121002808BF014632
:10141000084604B080BD00002DE9F04F8BB0844633
:1014200000296FF0040000F070818B4642EA0C0145
:1014300011F0070140F0698147F2E05044F21009D1
:10144000C1F6FF70C5F600090068D9F8041000293C
:1014500000F155819A464FF60043C0F2FF3303EA8C
:1014600080200CEB02036FF000670CF178413B44E5
:10147000B1FBF0F6B3FBF0F706FB101107FB1030E1
:101480004FEAD12EC10A8E454FF0000000F23D8197
:101490004FF0FF3860466FF3DF208E450191114613
:1014A000029218BFC0F500620692CDF800A013E0CA
:1014B000DDF800A0DDF810C00699DDF814B0029840
:1014C0008C448B44411A069103980199884200F19B
:1014D0000100864680F018815FEA4C70CDF814B0A8
:1014E000CDE903EC2AD000221CF80200FF2840F0CE
:1014F000AD800CEB0201481C430700F0F48000783B
:10150000FF2840F0A380881C430700F0F08000789B
:10151000FF2840F09B80C81C430700F0EC80007857
:10152000FF2840F09380081D400702F10402DBD140
:101530000698811A0CEB020002E000BF0699604693
:101540000022B2EBD10F2FD0CF0821F007020346C3
:101550001044013FD3E9006585EA080586EA0806DC
:101560002E4373D107B3D3E9026585EA080586EAFD
:1015700008062E436AD1012F16D0D3E9046585EA07
:10158000080586EA08062E4360D1022F0CD0D3E965
:10159000066585EA080586EA08062E4356D1043F0B
:1015A0007E1C03F12003D5D1891A19D0CA1E8B1EC7
:1015B0004F1E0026855DFF2D48D1B74210D08519FA
:1015C0006C78FF2C42D1B3420AD0AC78FF2C3DD1CD
:1015D000B24205D0ED78FF2D38D10436B142E9D1C1
:1015E00006990020B0EBD10F3FF462AF0698DDE919
:1015F00004744FEAD00B4FF0000A07E00AF1010A29
:101600000834DA4507F108073FF452AF08A821462D
:10161000082214F0E7F9DDE9085686EA080085EAB1
:1016200008010843EAD000BFD7E9000171406840D3
:101630000843E3D0D9F800000003FBD40120394669
:101640002A46334601F084FAEEE700BFBAF1000FF4
:101650005ED04FF0006000EBCE24504621464FF4A0
:1016600000626546764614F0BDF9284606996FF388
:10167000DF2050448AB2594614F0B4F90220CDE973
:10168000080601200A9008A807A901F0A7F9002878
:1016900043D10025D34608E001350BF1080BB5F521
:1016A000807F04F108043FF405AF08A859460822DA
:1016B00014F098F9DDE9086787EA080086EA08016E
:1016C0000843E9D0D4E90001794070400843E3D0F1
:1016D000D9F800000003FBD40120214632463B46E6
:1016E00001F036FAEEE7D143069A114428E706994D
:1016F000891A023924E70699891A033920E76FF01D
:1017000003000BB0BDE8F08F00200BB0BDE8F08FF8
:101710006FF004000BB0BDE8F08F6FF001000BB06C
:10172000BDE8F08F70B544F210060446C5F6000619
:1017300001F0F2FC054600BF3068C00306D501F099
:10174000EBFC401BA042F7D3032070BD3068C107FB
:101750001CBF012131604CF2FA3108400DD042F239
:10176000F401C2F2000130604860012070BD00BF8A
:1017700001F0D2FC401BA042E6D230684003F7D40F
:10178000002070BD80B511F007FC40F6B8318842EA
:1017900002D9FE20C0B280BDB0F5E16F02D20020B8
:1017A000C0B280BD40F21061C0EBC010CFF6F9713D
:1017B00001EB400048F2B511C1F64E31A0FB01012A
:1017C000C809C0B280BD000010B547F28050C1F614
:1017D000FF700068411C18BF10BD01F0A9FC044651
:1017E00001F0ACFC444001F0AFFC604010BD0000D3
:1017F00080B586B06846FFF7D1FD019816F0A6F8CF
:1018000006B080BDB0B547F28451C1F6FF7151F802
:10181000042C0446531C0BD010BA60600868E070BA
:101820000868010A020C000EA17062702070B0BD41
:1018300001F07EFC054601F087FC054401F07EFCCA
:10184000010E6560E170010C020AA17062702070E7
:10185000B0BD00002DE9F04182B0044600200190A7
:1018600094F85400012804D10225284602B0BDE8AE
:10187000F081012084F854002046FEF793FE216891
:1018800005460A4652F8083FA76DDB0745D127F405
:1018900081770237A765CF68CE6848F20300864398
:1018A000CE608E684FF6E87C4BF2FF7307EA0008C3
:1018B00046F00040C7F6FF7CC0F2020320F017009C
:1018C00088601068B0F1FF3F2ADC01980130019078
:1018D0000198984200F29B811068B0F1FF3F1FDC35
:1018E0000198013001900198984200F290811068AF
:1018F000B0F1FF3F14DC019801300190019898424B
:1019000000F285811068B0F1FF3F09DC01980130D9
:10191000019001989842D4D979E147F010007CE118
:10192000D1F8B4008F6800F07F0607EA0C0000F1E0
:10193000004088601068B0F1FF3F27DC019801305B
:1019400001900198984200F262811068B0F1FF3F67
:101950001CDC0198013001900198984200F25781F7
:101960001068B0F1FF3F11DC01980130019001983F
:10197000984200F24C811068B0F1FF3F06DC0198FC
:101980000130019001989842D4D940E1D1F8B400D7
:101990008F6800F07F00064407EA0C0000F1004069
:1019A00088601068B0F1FF3F27DC0198013001909A
:1019B0000198984200F22B811068B0F1FF3F1CDCC7
:1019C0000198013001900198984200F2208110683E
:1019D000B0F1FF3F11DC019801300190019898426D
:1019E00000F215811068B0F1FF3F06DC019801306C
:1019F000019001989842D4D909E1D1F8B4008F68D8
:101A000000F07F00064407EA0C0000F10040886007
:101A10001068B0F1FF3F27DC019801300190019878
:101A2000984200F2F4801068B0F1FF3F1CDC01988E
:101A3000013001900198984200F2E9801068B0F1FD
:101A4000FF3F11DC0198013001900198984200F2AB
:101A5000DE801068B0F1FF3F06DC01980130019094
:101A600001989842D4D9D2E0D1F8B4008F6800F040
:101A70007F00064407EA0C0000F10040886010680F
:101A8000B0F1FF3F27DC01980130019001989842A6
:101A900000F2BD801068B0F1FF3F1CDC01980130FE
:101AA00001900198984200F2B2801068B0F1FF3FB7
:101AB00011DC0198013001900198984200F2A78052
:101AC0001068B0F1FF3F06DC0198013001900198E9
:101AD0009842D4D99BE0D1F8B4008F6800F07F0021
:101AE000064407EA0C0000F1004088601068B0F17D
:101AF000FF3F25DC0198013001900198984200F2E7
:101B000086801068B0F1FF3F1ADC01980130019027
:101B1000019898427BD81068B0F1FF3F10DC019823
:101B2000013001900198984271D81068B0F1FF3FE0
:101B300006DC01980130019001989842D6D966E000
:101B4000D1F8B4008F6800F07F00064407EA0C006B
:101B500000F1004088601068B0F1FF3F24DC01987C
:101B6000013001900198984251D81068B0F1FF3FC0
:101B70001ADC0198013001900198984247D810680A
:101B8000B0F1FF3F10DC01980130019001989842BC
:101B90003DD81068B0F1FF3F06DC0198013001909C
:101BA00001989842D7D932E0D1F8B4008F6800F09C
:101BB0007F00064407EA0C0000F1004088601068CE
:101BC000B0F1FF3F31DC019801300190019898425B
:101BD0001DD81068B0F1FF3F27DC0198013001905B
:101BE0000198984213D81068B0F1FF3F1DDC0198AE
:101BF000013001900198984209D81068B0F1FF3F78
:101C000013DC01980130019001989842D7D9A06D5A
:101C1000012540F0100020F00200A065002084F8AB
:101C20005400284602B0BDE8F081D1F8B4008A68BB
:101C300000F07F0002EA0C0242F001028A60D1F853
:101C4000B420304422F07F0242EAD000C1F8B40050
:101C5000886800EA0C0040F00200886001F05CFA3D
:101C600021688A68D20708D1C86840EA0800C860BD
:101C7000A06D012161F30100CFE7064602E088680C
:101C8000C007F1D001F048FA801B21680328F6D381
:101C90008868C007F3D0A06D012540F01000A06552
:101CA000E06D40F00100E065284602B0BDE8F0813B
:101CB0002DE9F04381B00022009290F85420012ACF
:101CC00004D10221084601B0BDE8F0830123026877
:101CD00080F8543093685B071AD44B680469022B70
:101CE0001CD1042744F00403C8F20007BB4227D1EB
:101CF0000B684FF6FF77D943C0F20307966A61EA93
:101D0000070131409162B3F1FF3F1DDD0021FBE08F
:101D1000816D41F0200181650121F5E044F0040C62
:101D20000424C8F20004A4452CD1D1F800E01346E5
:101D3000744653F828CF6FF39F444CEA040C4BE0F1
:101D40000B68B3F1FF3FE1DC42F20871C4F201011C
:101D500044F200070A68CBF60007BB4200F0B380EC
:101D600042F20007CBF20047BB4200F0B08041F2E4
:101D70000007CBF20007BB4240F0B2800B6802F0D4
:101D8000A072A7E0D1F800E0066E03F01F0C0F244C
:101D9000D0F81C8004FA0CF4CEF384679EFAAEF5FA
:101DA00026EA04095FEA8E3618BFB5FA85F707FA06
:101DB0000CF545EA0905B8EB930F05660ED91346F5
:101DC00053F8285FE4434FEA9E662C4006F00F0567
:101DD00005FA0CF744EA070CC3F800C08968536998
:101DE0004FF6007701EA0E21C0F2FF3723EA0E23F7
:101DF00039401943BEF1FF3F516101DD002183E00D
:101E000042F2087CC4F2010CDCF8003041F200011F
:101E1000CBF200018E4503F0E07208BF13F400011D
:101E20001BD044F20001CBF600018E4508BF13F031
:101E3000807157D042F20001CBF200418E454FF045
:101E4000000108BF13F480035ED1DCF8001021F01C
:101E5000E071114341F480014BE0DCF8001021F007
:101E6000E071114341F40001CCF8001040F214116C
:101E7000C2F20001096842F663528909C0F23E527B
:101E8000A1FB0212910901EB41010C2202EB81013D
:101E90000091009989B3009901390091009971B3BB
:101EA000009901390091009959B3009901390091C5
:101EB000009941B3009901390091009900294FF030
:101EC0000001E8D120E00B6802F4400202E00B6858
:101ED00002F0C07223F0E0731A440A60002113E09C
:101EE000002111E0DCF8001021F0E071114341F015
:101EF0008071CCF80010002106E0002104E00021F0
:101F000002E0002100E00021002280F85420084671
:101F100001B0BDE8F083000070B5002856D004463B
:101F20000068A16D4FF6E87641F00201A165816875
:101F3000C6F6FF7649070FD58168890706D4816800
:101F400006F18052114041F01001816001F0E4F887
:101F50002168896849073BD42046FEF723FB0546E4
:101F6000002804BF0120A06520688168314081609D
:101F7000416840F29F32914341600260C16840F283
:101F80000022C8F23E321140C1600169002621F0F2
:101F900040410161416921F007014161016A01F09D
:101FA000F0210162816A866242F20870C4F2010087
:101FB000016821F0FE710160204600F06BF92846AF
:101FC0002666E665A66584F8546070BD012070BD84
:101FD000054602E080684007BED501F09DF8411B30
:101FE00020680329F6D381684907F3D5A16D01253F
:101FF00041F01001A165E16D41F00101E165B7E734
:102000000068006C704700002DE9F04182B0044682
:102010000020019044B1254655F8580F40B1216881
:102020008868C0000FD540E0012002B0BDE8F08113
:10203000204600F03FF90020E06584F85400216854
:102040008868C00031D488684FF6E872C6F6FF721F
:10205000104000F18050886040F21410C2F200007D
:10206000006842F663528009C0F23E52A0FB0202B1
:102070009009022202EB400001900198A8B100BF34
:10208000019801380190019878B1019801380190C8
:10209000019850B1019801380190019828B1019838
:1020A0000138019001980028EAD18868C00009D45D
:1020B000A06D40F01000A065E06D40F00100E0650B
:1020C000012000E000208A68C2F380022B6803F040
:1020D0001003D2182A6806D042F0100101202960AE
:1020E00002B0BDE8F08122F4817202322A608A686F
:1020F000D2076FD1227ED4E9023E667E43EA823364
:1021000094F81A80D4F810C043EAC63343EA48333F
:10211000266B4FF40017BCF1000F43EA0E0348BFD3
:102120002CF0004794F82C20002E18BF43F4805365
:1021300094F820603B43012E43EA42030BD1B8F1EF
:10214000000F00F0A080A26D42F02002A265E26DB7
:1021500042F00102E265626A2AB102F4E072A76A03
:102160001A4342EA0703CA6840F20127CFF6FE7716
:102170003A401A43CA60636894F83C20E76C012A2D
:1021800003F0404242EA070209D1D4E91076D4F8BC
:1021900048E03A43324342EA0E0242F001020F693C
:1021A0004FF60246C1F6FF7637403A43B3F1004F8F
:1021B0000A6118BFB3F1404F0ED0B3F1804F0BD07E
:1021C00042F20872C4F2010217689B0C63F3954750
:1021D000176001E0D4F810C0D4E90D324F69BCF1AA
:1021E000000F27F0070747EA03074F614F6927F001
:1021F000700747EA02124A6112D0BCF5001F23D1D2
:10220000D4F860C00A460CF00F0652F828EF0F2EE3
:102210000CD00CF0F006F02E08D16EF00F0C11E08F
:102220000A4652F8287F67F00F0C0BE0E7691C267E
:1022300006EB870707F01C076FF00F0606FA07F793
:102240004CEA070CC2F800C0496901F00701994245
:1022500009D10021E165A16D012262F3010129602C
:1022600002B0BDE8F081A06D40F0100020F0020047
:10227000A06554F85C0F40F001010120254629605B
:1022800002B0BDE8F08143F48033626A002A7FF433
:1022900064AF68E7006842F20041C4F2010188427D
:1022A00018BF70476020C5F60000016821F4007176
:1022B0000160704781B0006842F20041C4F2010140
:1022C000884201D001B070476020C5F60000016867
:1022D00041F400710160006800F400700090009803
:1022E00001B07047F0B581B0044640690D4608283A
:1022F00001D1082704E02068C068C00753D1042733
:1023000000F00AFF21680A683A421BD0A06D40F431
:102310000070A065C86810F4406F53D1A07E0028FB
:1023200050D1086800074DD58868400742D44868F6
:1023300040F2011220F00C004860A06D9043013083
:10234000A0653FE00646681C29D065B900F0E4FEB0
:102350002168086838420FD008683842F6D0D5E7BF
:1023600008683842D2D100F0D7FE801B2168A8420D
:10237000F6D908683842F3D1A06D40F00400A0659A
:10238000002084F85400032001B0F0BD08683842F2
:10239000BCD108683842B9D108683842B6D108685B
:1023A0003842F3D0B2E7A06D40F02000A0650120D4
:1023B00001B0F0BDA06D40F02000A065E06D40F0E0
:1023C0000100E065207E002804BF0C20086000208A
:1023D00001B0F0BD10B5044600688068400703D422
:1023E00094F85400012801D1022010BD012084F886
:1023F00054002046FEF714F918B1002184F8541057
:1024000010BD2168A06D40F60172904300F5807008
:10241000A06500201C22E0650A6084F854008A68E8
:102420004FF6E873C7F6FF731A4004328A6010BD96
:10243000B0B5044690F85400012804BF0220B0BD96
:102440000121206884F854108168490710D58168FB
:10245000890707D481684FF6E872C7F6FF7211400A
:102460001031816000F058FE21688968490710D456
:102470002046FEF797F818B1002184F85410B0BD3B
:10248000214651F8580F40F2011220EA02020020C2
:1024900016E0054603E000BF80684007E8D500F07D
:1024A0003BFE411B20680329F6D381684907F3D519
:1024B000A06D214640F01000A06551F85C2F01206E
:1024C00042F001020A60002184F85410B0BD0000FF
:1024D00042F20400CEF20400016821F00101016023
:1024E0007047000042F20400CEF20400016821F0BF
:1024F000040101607047000042F20400CEF20400C3
:10250000016821F00201016070470000002804BF4B
:102510000120704780B590F82510022926D1016866
:10252000D0E910CE826C0B6823F00E030B601368A9
:1025300023F4807313600A6822F001020A600EF02F
:102540001C02012101FA02F2CCF80420D0E9133276
:102550005A60426D32B1136823F480731360D0E97E
:102560001623536080F82510002102E00421C16386
:102570000121002280F82420BDE8804008467047F1
:1025800080B590F8251002292DD10168D0E910CE30
:10259000826C0B6823F00E030B600B6823F00103C1
:1025A0000B60116821F4807111600EF01C02012192
:1025B00001FA02F2CCF80420D0E913325A60426DDD
:1025C00032B1136823F480731360D0E9162353608B
:1025D00080F82510826B002180F824100AB1904702
:1025E0000021084680BD0421C1630121084680BD49
:1025F00000284FF0010C04BF012070472DE9F0477F
:1026000040F2000E0368C4F2020E4FF6F8310EF5E8
:10261000816ACBF6FD71534538BF01F580614CF6F8
:10262000CD441944CCF6CC44A1FB04156FF007014E
:1026300051FA83F1A1FB0416D0F8048019684FF019
:102640001C0221F0010119606FF0030102EA9502FA
:1026500040F61C090EF5806701EA95044FF0000171
:102660000CFA02F2C4F202093CBF0027C4F20207CE
:10267000C0E9107419607A60072202EB1612534504
:102680004B463CBF0EF5006332091F19876409F100
:10269000640702F01F02C7640CFA02F7A8F10102F6
:1026A000032A07651951C9F868700DD809EB820330
:1026B000012643F8E41F09F5927706FA02F2C0E911
:1026C0001537C265C9F82821C0E91511C165C0E9EF
:1026D0000B11C0E90D11C16380F8251080F824109A
:1026E000BDE8F04708467047B0B50168D0E910C4AE
:1026F000DCF800500B6804F01C0E5A0714D50422B5
:1027000002FA0EF414EA05020ED00A68920603D407
:102710000A6822F004020A60CCF80440016B002928
:1027200042D0BDE8B04008479A0721D5022202FAFC
:102730000EF414EA05021BD00A68920606D40A6851
:1027400022F00A020A60012280F825200422C4F245
:10275000020202F17C03994288BF02F58062146094
:10276000C16A002280F82420F1B1BDE8B0400847DA
:102770001A0719D5082202FA0EF22A4008BFB0BD86
:102780000A6822F00E020A60012101FA0EF2CCF86A
:102790000420C16380F82510416B002280F82420BA
:1027A00011B1BDE8B0400847B0BD000000284FF0AF
:1027B000010C00F093802DE9F04F0021C4F20201DA
:1027C00002684FF6F83401F58169CBF6FD744A458D
:1027D00038BF04F580644CF6CD4E1444CCF6CC4E94
:1027E000A4FB0E586FF0070555FA82F5A5FB0E56AF
:1027F00001F580636FF00304D0E9025BD0F810A00C
:102800003CBF0023C4F2020304EA9804C0E9103478
:10281000022380F82530136847F6F077BB43136036
:102820004BEA0503476943EA0A033B43D0E90671D3
:1028300040F6840E3B431943036A17681943394332
:10284000C4F2020E1160072101EB1611AEF168030C
:102850004A4540F20002C4F202023CBF02F50063A6
:1028600031091A19AEF1040301F01F01C3640CFA17
:1028700001F3B5F5804F8264036505D10021416005
:102880001160CEF8003019E0416801F07F04013991
:1028900003294FF000011460CEF800300ED8621EFC
:1028A0000EEB820747F87C1F02F0030101228A40E9
:1028B0000EF1BC033946CEF8C02001E0002300220F
:1028C000C0E915134FF0000C0121C265C0F83CC0EF
:1028D00080F8251080F824C0BDE8F04F60467047AE
:1028E0002DE9F04190F824C0BCF1010F04BF022093
:1028F000BDE8F0814FF0010C80F824C090F825C0AD
:10290000BCF1010F37D14FF0020C80F825C04FF019
:10291000000CC0F83CC0D0F800C000F14C0E9EE89E
:102920003040DCF80060BEF1000F26F00106CCF864
:10293000006065601CBFD0E916456560D0E910767F
:10294000012506F01C068468B540D0F830807D6013
:10295000CCF804300B46102C04BF13460A46CCF8C2
:102960000830CCF80C20DCF80010B8F1000F0AD0C9
:1029700041F00E010FE08021C163002180F8241096
:102980000120BDE8F08121F00401CCF80010DCF852
:10299000001041F00A01CCF80010806C0168C903F6
:1029A00003D5016841F480710160BEF1000F05D0CC
:1029B000DEF8000040F48070CEF80000DCF8000083
:1029C00040F00100CCF800000020BDE8F0810000DC
:1029D00081B00090009801B011F0F2BA2DE9F04FEB
:1029E00081B042F2F406C2F200063278012A03D125
:1029F000022001B0BDE8F08F0546012030700024B0
:102A00004FF47A708B467460FEF78CFE18B1347008
:102A100001B0BDE8F08F286844F214090428C5F617
:102A200000090DD10221D9F80000C0F201010231E4
:102A30000843C9F800004FF47A70FEF773FE35E0E2
:102A40004FF0FF30CBF80000D5E9017038448742E1
:102A500020D240F2020A4FF60548C0F2010AFC00FB
:102A6000CFF6FE78D9F8000000EA0800204340EADB
:102A70000A00C9F800004FF47A70FEF753FE58B907
:102A8000D5E9010101370844874204F10804E9D37C
:102A9000002003E0002002E0CBF800700024D9F809
:102AA000001040F2FA329143C9F8001059F8141C92
:102AB00059F8141C347001B0BDE8F08F70B542F2C3
:102AC000F405C2F200052978012904BF022070BD77
:102AD00004460120287020680026C5E901604FF4F3
:102AE0007A70FEF71FFE00281CBF2E7070BD44F2E6
:102AF0001401C5F600010868022240F04070086029
:102B00002068C0F20102042806D1002028610B6869
:102B100002321A430A6070BDD4E901034FF605463C
:102B2000C5E904030B68CFF6FE76334043EAC000E4
:102B300010430860002070BD44F21400C5F6000088
:102B4000016841F0004101600068C043C00F704758
:102B50002DE9F04742F2F409C2F20009924699F8D1
:102B60000020012A04BF0220BDE8F0878046012032
:102B700044F2100589F8000000201F460E46C5F6F5
:102B80000005C9F8040000F0C7FA04462868C0032D
:102B90000BD500F0C1FA001BB0F57A7FF6D3032005
:102BA000002189F80010BDE8F0872868C1071CBF24
:102BB000012129604CF2FA3108400FD02860C9F891
:102BC00004000120002189F80010BDE8F08700BF53
:102BD00000F0A2FA001BB0F57A7FE0D2286840032B
:102BE000F6D4B8F1010F09D1686840F001006860BF
:102BF000C6F800A0BFF36F8F776042E06868AAF163
:102C0000400240F480206860EFF31080EFF3108101
:102C100072B6A6F14001402352F8407F103B41F8C4
:102C2000407F57681E064F6097688F60D768CF60F7
:102C300017690F6157694F6197698F61D769CF61D4
:102C4000176A0F62576A4F62976A8F62D76ACF62BC
:102C5000176B0F63576B4F63976B8F63D76BCF63A4
:102C6000DAD105E02968C90309D52968C90306D561
:102C70002968C90344BF29685FEAC131F2D480F3EF
:102C8000108800F049FA04462868C00307D500F010
:102C900043FA001BB0F57A7FF6D3032018E02868CA
:102CA000C1071CBF012129604CF2FA3108400BD04A
:102CB0002860C9F8040001200AE000BF00F02CFAE7
:102CC000001BB0F57A7FE8D228684003F6D40020D4
:102CD000696821EA08016960002189F80010BDE8EF
:102CE000F087000044F20800C5F60000C168B1F1A9
:102CF000FF3FC4BF0020704740F22311C4F2675168
:102D0000016048F6AB11CCF6EF510160C068C00F0E
:102D1000704700002DE9F04F00297CD0B0F1904FB2
:102D20007BD040F20047C4F6000707F58063984265
:102D30004FF0070E08BF4FF0020EB8424FF00005EB
:102D40004FF000074FF0010608BF4FF0010E26E0DC
:102D500002680323AB401A4302606FF0030202EAE9
:102D60005C04044407F01C08D4F820C00F2202FAC7
:102D700008F22CEA0202226282689A438260426868
:102D800022EA0B024260C2689A43C26031FA06F23C
:102D900006F1010607F1040705F102053BD0A6F193
:102DA000010C012202FA0CFB1BEA0109EED00822F9
:102DB0004FEA9C08C4F2010252F8282007F00C03E5
:102DC000072404FA03FA02EA0A020EFA03F39A420B
:102DD000BED140F60003C5F60003D3F8802022EAF6
:102DE0000902C3F88020D3F8842022EA0902C3F83C
:102DF00084201A6822EA09021A605A6822EA090243
:102E00005A600823C4F2010353F8282022EA0A0278
:102E100043F828209CE7BDE8F08F00250024012717
:102E20002EE000BF06680322A24016436FF00303A2
:102E300040F22009066003EA5C03C4F6000905F0CD
:102E40001C0853F809C00F2606FA08F62CEA0606F5
:102E500043F80960836893438360436823EA0E0361
:102E60004360C36823EA0202C26031FA07F207F145
:102E7000010704F1020405F1040508BFBDE8F08F65
:102E8000A7F1010C012202FA0CFE1EEA0109ECD0A6
:102E900008224FEA9C08C4F2010252F828B005F05B
:102EA0000C06072202FA06FA1BEA0A0FBAD140F60C
:102EB0000002C5F60002D2F8806026EA0906C2F8D0
:102EC0008060D2F8846026EA0906C2F88460166839
:102ED00026EA09061660566826EA090656600822A0
:102EE000C4F2010252F8286026EA0A0642F8286075
:102EF00098E70000022807D0B0F5807F18BF704720
:102F00000420002112F0AEBE0820002112F0AABE5B
:102F100040F60C01C5F600010A68024214BF0860C1
:102F20007047FFF7E7BF00002DE9F04F84B00E684F
:102F30000390002E00F0DF8040F600020398C4F6F4
:102F400000028E4690424FF007004FF000044FF011
:102F500001074FF000054FF0000808BF0220009065
:102F6000029148E040F20040C4F600008242009A1C
:102F700008BF012202FA03F0082140EA0C00C4F263
:102F8000010141F8260040F60006C5F6000630684B
:102F9000DEF8041040EA0902CB0258BF20EA090219
:102FA000326070688B0240EA090258BF20EA0902C9
:102FB0007260D6F88000CB0340EA090258BF20EACD
:102FC0000902C6F88020D6F88400890340EA090285
:102FD00058BF20EA0902C6F88420DEF8006008F134
:102FE000010836FA07F005F1020507F1010704F1BF
:102FF000040400F08080A7F1010A012000FA0AF31E
:1030000016EA0309E9D0DEF804B00BF0030CACF1CA
:103010000102012A1ED803984FEA480281680192F2
:10302000032202FA05F6029AB143D2F80CE0F64305
:103030000EFA05F21143DDF808E08160416899431A
:1030400003460198CBF3001202FA0AF211435960C9
:103050000CE000BF0320A840039BC643BCF1030F54
:10306000284603D128464FF0030C26E0D968DEF845
:103070000820314082401143BCF1020FD9601CD1BD
:1030800002466FF0030000EA5A01194404F01C03E1
:103090000F20D1F820C000FA03FE1046029A2CEA55
:1030A0000E0C1269DDF808E09A4042EA0C02039B1C
:1030B0000A62DEF804B00BF0030C19680CFA00F099
:1030C000314008431BF4403F18603FF486AF0820AE
:1030D0004FEA9A06C4F2010050F8260004F00C03EF
:1030E0000721039A9940B2F1904F20EA010C7FF436
:1030F00039AF00223EE704B0BDE8F08F426902EA32
:103100000103914341EA0341816170471823002A7A
:1031100008BF2823C150704741F6E160C2F20000A9
:103120000078012814BF002010F0C0BF70470000D5
:1031300047F29050C1F6FF700068704747F2945014
:10314000C1F6FF700068704747F29850C1F6FF70F3
:103150000068704780B5032000F066F800F00EFBB1
:1031600040F21411C2F2000108600F2000F008F8CC
:1031700000281CBF012080BD00F004F8002080BDA5
:103180000020704770470000002848BF704700F0DB
:103190001F01012202FA01F14EF280124009CEF223
:1031A000000242F82010BFF34F8FBFF36F8F7047BC
:1031B000002848BF704700F01F01012202FA01F108
:1031C0004EF200124009CEF2000242F82010704781
:1031D00010B54EF60C5CCEF2000CDCF80030C3F3F8
:1031E000022E8EF00704042C28BF0424BEF1030332
:1031F0004FF0FF3E0EFA04F438BF0023A14399407C
:103200000EFA03F39A4300F00F03043B11436344A7
:1032100009010C3300F16042B0F1FF3FC8BF02F575
:103220006443197010BD00004EF60C51CEF200013F
:103230000A684FF6FF031A4060F30A2242F08060EA
:1032400040F0FD700860704740F21440C5F6000081
:1032500050F8141C322221F4804140F8141C40F232
:103260001411C2F20001096851434DF68362C4F2A1
:103270001B32A1FB0212910C0268002918BF12F444
:10328000007213D00268012918BF12F400720DD029
:103290000268022918BF12F4007207D002680329DD
:1032A00004D012F40072A1F10401E5D100680321F9
:1032B000800501EAE070704740F20040C5F600006A
:1032C000016841F4804101607047000040F2004C09
:1032D000C5F6000CDCF8003002224EF6105162F305
:1032E0000203CEF20001CCF800300A68012842F057
:1032F00004020A600FBF30BF40BF20BF20BF086874
:1033000020F004000860704740F20040C5F600005D
:10331000006800F4C060704740F20040C5F600004D
:10332000016841F4807101607047000010B50C46DF
:1033300040F21441C5F600010968002801F400704C
:1033400004D0002808BFFFF7B7FF05E020B1FFF762
:103350007BFF002818BF10BD4EF61050CEF20000C3
:103360000168012C21F00401016004BF30BF10BDD1
:1033700040BF20BF20BF10BDF0B581B004468078AB
:103380008826C007C5F6000600F0A980FFF7C4FF35
:10339000FFF7C2FE054600BFD6F87803C00575D416
:1033A000FFF7BAFE401B0228F6D903202168CA079E
:1033B00000F09A806268336823EA124392B21A439B
:1033C00032608A0740F19380A268336823EA12438F
:1033D00092B21A4332608A0640F18C8022693368C7
:1033E00023F440631A4332608A0540F18680226AE2
:1033F00033684FF6FF7767EA02073B4043EA024231
:1034000032604A057CD5626A33684FF6FF7767EA17
:1034100002073B4043EA024232600A0572D5A26AC3
:1034200033684FF6FF7767EA02073B4043EA024200
:1034300032604A0668D5626933686FF47F2767EAAD
:1034400012173B4002F47F4243EA021232600A063E
:103450005CD5A26933686FF47F2767EA12173B4097
:1034600002F47F4243EA02123260CA0550D5E26993
:1034700033686FF47F2767EA12173B4002F47F42FC
:1034800043EA02123260CA0654D543E0B168606B69
:1034900001F4407181421DD0B168B26821F44073DB
:1034A00042F48032B260B268890722F48032014669
:1034B000B260B3600ED5FFF72FFE054641F28837A4
:1034C000B068800705D4FFF727FE401BB842F7D944
:1034D0006BE7616BB06820F440700843B060002077
:1034E0002168CA077FF466AF8A073FF56DAF8A0689
:1034F0003FF574AF8A053FF57AAF4A053FF583AFD4
:103500000A058CD44A0696D40A06A2D4CA05AED4BB
:10351000CA060FD5E2683368B2F5807F23F44073A2
:1035200043EA0203336005D156F87C2C42F08072E6
:1035300046F87C2C0A0407D5226B336823F04043FD
:1035400043EA0203336092B1490418D5E16A326854
:10355000B1F1005F22F0405242EA010232600ED126
:1035600056F87C1C41F4803146F87C1C07E056F884
:103570007C2C42F0807246F87C2C4904E6D401B0E1
:10358000F0BD00002DE9F04381B0002800F0AF80CD
:1035900044F20008C5F600080546D8F800000C46BD
:1035A00000F00700884215D2D8F8000020F007008C
:1035B0002043C8F80000FFF7AFFD0646D8F800002A
:1035C00000F00700A04205D0FFF7A6FD801B0228EF
:1035D000F4D95BE0286808278107C5F6000713D5F2
:1035E000A868396821F0F00108433860FFF794FDBE
:1035F000064600BF3868C00305D4FFF78DFD801B69
:103600000228F7D942E02868410616D56869D7F83C
:10361000001121F00F0141EA1010C7F80001FFF777
:103620007BFD0646D7F80001C00305D4FFF774FD03
:10363000801B0228F6D929E02868410712D5E868DE
:10364000396821F4E06108433860FFF765FD0646FC
:103650003868800305D4FFF75FFD801B0228F7D987
:1036600014E02868010716D52869396821F46051EB
:1036700041EAC0003860FFF74FFD06463868400356
:1036800008D4FFF749FD801B0228F7D9032001B0B9
:10369000BDE8F0832868C0071ED1D8F8000000F00C
:1036A0000700A04227D9D8F8000020F007002043E7
:1036B000C8F80000FFF730FD054600BFD8F800004D
:1036C00000F00700A04216D0FFF726FD401B02289D
:1036D0004FF00300F2D945E068684FF0B04130B3D5
:1036E000032842D0022844D10968890322D401204A
:1036F00001B0BDE8F08300F08BF839683C2202EAA3
:10370000910148F21012C0F60102515840F2141211
:10371000B0FBF1F140F27000C2F200000068C2F2AA
:103720000002116001B0BDE8F043FFF729BD096850
:103730008907DCD5396821F0030108433860FFF7B9
:10374000EBFC064641F288393868696800F00C00E5
:10375000B0EB810FA1D0FFF7DFFC801B48454FF095
:103760000300F1D901B0BDE8F08309688901BED535
:10377000E0E709684905BAD5DCE7000080B500F04C
:1037800047F80821C5F6000109683C2202EA9101C8
:1037900048F21012C0F601025158B0FBF1F080BDA2
:1037A00080B500F035F80821C5F600010A683C2311
:1037B00003EA920248F21013C0F601039A5809680E
:1037C000B0FBF2F048F25012C1F30221C0F6010240
:1037D00052F82110C84080BD80B500F019F80821CA
:1037E000C5F600010A683C2303EA920248F210136E
:1037F000C0F601039A580968B0FBF2F048F2501283
:10380000C1F3C221C0F6010252F82110C84080BDA8
:103810000C21C5F6000151F8040C10F00C020868E8
:1038200005D00C2A17D100F00300012813D14FF066
:10383000B040036800681B0700F0080004D4E0B142
:103840004FF0B04000681FE0E0B14FF0B0400068BA
:10385000C0F3031019E042F20040042AC0F2F40061
:103860001FD0082A1CD14FF0B0421268D2025CBFB0
:1038700044F60000C0F2E81013E0D1F88800C0F36D
:10388000032002E0D1F88800002048F2BC23C0F6F3
:10389000010353F82030002A184618BF002001E029
:1038A0000020002351F8042C02F00C020C2A18BF4F
:1038B0007047086800F0030242F20040022AC0F29A
:1038C000F4000AD0032A09D14FF0B0421268D202A4
:1038D0005CBF44F60000C0F2E81003460868C0F37D
:1038E00006200A685843C2F3021201320968B0FB8D
:1038F000F2F0012202EB5171B0FBF1F070470000D1
:103900002DE9F04F81B0002800F0388340F2900B91
:103910000446C5F6000B5BF8880C5BF8841C227823
:1039200000F00C08900601F0030A29D42078C007A3
:1039300063D0B8F1080F57D0B8F10C0F08BFBAF137
:10394000030F51D04FF0B0400168D4E9015221F487
:1039500080111143B5F5803F016009D0B5F5041F12
:1039600040F033824FF0B0410A6842F400120A601E
:10397000016841F480310160FFF7CEFB054633E278
:10398000B8F1000F1ED0B8F10C0F08BFBAF1010F4B
:1039900018D0216A4FF0B0463068002900F08581C8
:1039A00040F001003060FFF7B7FB05463068800744
:1039B00000F18E81FFF7B0FB401B02284FF003009F
:1039C000F4D9BFE24FF0B0410868800703D5206A00
:1039D000002800F0D382A06A0968090700F1D780A7
:1039E000DBF804100909D5E04FF0B040006880030F
:1039F00003D56068002800F0C1822078800732D5A6
:103A0000B8F1040F1DD0B8F10C0F08BFBAF1020FC6
:103A100017D021694FF0B0463068002900F0FE81D0
:103A200040F480703060FFF777FB05463068400552
:103A300010D4FFF771FB401B02284FF00300F5D9AB
:103A400080E24FF0B0400068400503D520690028AF
:103A500000F0948260695BF88C1C21F0FE4141EA21
:103A600000604BF88C0C207800072AD4207840079F
:103A700051D4E06A08B3B8F10C0F40F03F8101283F
:103A800000F07C825BF8840C216B00F003028A4218
:103A900040F07482616B00F070028A4240F06E82E6
:103AA000A16B00F4FE42B2EB012F40F06782616C23
:103AB00000F06040884240F06182002001B0BDE823
:103AC000F08FA069DBF80410002800F0D980E069CD
:103AD00001F01002904200F0BA8201F00302022AC3
:103AE00000F04C82C90700F0AB82DBF8040020F044
:103AF0000100CBF80400FFF70FFB0546DBF80400DC
:103B0000800740F19C82FFF707FB401B11284FF014
:103B10000300F3D916E2DBF87003C00510D4FFF7F9
:103B2000FBFBFFF7F9FA0546DBF87003C00507D485
:103B3000FFF7F2FA401B02284FF00300F4D901E22C
:103B4000E068002800F07C81852801D0052805D197
:103B5000DBF8000040F00400CBF80000FFF7DCFACF
:103B6000DBF80010054641F0010041F28836CBF841
:103B7000000000BFDBF80000800700F10781FFF7BD
:103B8000CBFA401BB0424FF00300F3D9DAE14FF01B
:103B9000B041096801F0F00144F20006884248F2A1
:103BA000101948F2BC21C5F60006C0F60109C0F69E
:103BB000010128D93C2202EA9000DBF8782008585D
:103BC00002F00F0159F82110B0FBF1F5FFF79CFB53
:103BD000B0F5007F40F0AA804EF6BF20C0F2211061
:103BE000854240F2CF8049F23F30C0F23420854216
:103BF00040F25E814AF63F60C0F2EB20854240F21F
:103C0000A98000275BE14FF0B042136843F008033E
:103C10001360136823F0F00303431360626A5BF8D8
:103C20008C3C23F47F4343EA02224BF88C2C3C2249
:103C300002EA9000DBF87820085802F00F0159F8EA
:103C40002110B0FBF1F5FFF75FFBB0F5007F40F00E
:103C500083804EF6BF20C0F22110854240F294804E
:103C600049F23F30C0F23420854240F26E814AF67C
:103C70003F60C0F2EB20854240F2828000276BE17A
:103C800021F00100CBF80400FFF746FA054600BF1B
:103C9000DBF8040080077FF5E9AEFFF73DFA401B33
:103CA00011284FF00300F3D94CE120F001003060FF
:103CB000FFF732FA054600BF306880077FF536AE61
:103CC000FFF72AFA401B02284FF00300F4D939E12C
:103CD0004FF0B040016841F0080101600168D4E98B
:103CE000093221F0F001114301605BF88C0C20F4E3
:103CF0007F4040EA03204BF88C0C17E64FF0B046AB
:103D00003168022821F08071316040F0B380FFF704
:103D100003FA05463068800140F13481FFF7FCF971
:103D2000401B0A284FF00300F4D90BE14CF6BF709A
:103D3000C0F26A00854225D945F63F50C0F2C60060
:103D4000854240F2B58046F23F60C0F203108542E2
:103D50003FF657AF0220ACE04CF6BF70C0F26A00ED
:103D6000854211D945F63F50C0F2C600854240F267
:103D7000EC8046F23F60C0F2031085423FF67EAF12
:103D80000220E3E0002094E00020DFE0E06840F063
:103D90000400852840F02681FFF7BEF9DBF800100B
:103DA000054641F0800041F28836CBF8000000BFA4
:103DB000DBF8000000053FF55CAEFFF7ADF9401BF6
:103DC000B0424FF00300F3D9BCE04FF0B04630688A
:103DD00020F480303060306820F400103060FFF74D
:103DE0009BF9002D054615D04FF0B0463068800392
:103DF0003FF503AEFFF790F9401B64284FF0030036
:103E0000F4D99FE0FFF788F9401B64284FF00300C6
:103E100000F2988030688003F4D4EEE520F48070DE
:103E20003060FFF779F90546306840057FF51BAE35
:103E3000FFF772F9401B02284FF00300F4D981E02C
:103E4000FFF76AF9DBF80010064621F0800041F226
:103E50008837CBF8000000BFDBF80050FFF75CF9B3
:103E60002905054640F1D680A81BB8424FF0030053
:103E7000F2D967E05BF8840C4FF6FF7120F0030085
:103E80004BF8840C5BF8840CCEF6FE6108404BF8CE
:103E9000840CFFF741F90446306880017FF50DAED0
:103EA000FFF73AF9001B0A284FF00300F4D949E064
:103EB000012048F2D401C0F6010151F820703068A9
:103EC00020F0070038433060FFF726F9054600BFB1
:103ED000306800F00700B84205D0FFF71DF9401B1D
:103EE0000228F5D94AE04FF0B040016841F00801DE
:103EF00001600168D4E9093221F0F0011143016049
:103F00005BF88C0C20F47F4040EA03204BF88C0CCB
:103F1000FFF77EFC5BF8881C3C2202EA910159F80D
:103F2000011040F21412B0FBF1F140F27000C2F245
:103F300000000068C2F200021160FFF721F90028BA
:103F40003FF4F4AC01B0BDE8F08F012048F2D40199
:103F5000C0F6010151F82070306820F007003843A6
:103F60003060FFF7D9F80546306800F00700B84226
:103F7000CED0FFF7D1F8401B0228F5D9012001B0BF
:103F8000BDE8F08F5BF8840C48F28C01C1F2C111DE
:103F900004F1300708408ECFD4E910650843104380
:103FA00040EA03203843304328434BF8840C4FF059
:103FB000B045286840F0807028605BF8840C40F0C1
:103FC00080504BF8840CFFF7A7F80446286880015E
:103FD0003FF573ADFFF7A0F8001B0A284FF0030070
:103FE000F4D9AFE7FFF798F8DBF80010054621F0A9
:103FF000800041F28836CBF80000DBF800000005B5
:104000007FF537ADFFF788F8401BB0424FF0030053
:10401000F3D997E7DBF8000041F2883620F0010081
:10402000CBF80000DBF8000080077FF522ADFFF73A
:1040300073F8401BB0424FF00300F3D982E7E06908
:10404000DBF8041021F010010843CBF80400DBF882
:10405000040040F00100CBF80400FFF75DF80546CE
:10406000DBF8040080073FF501ADFFF755F8401B72
:104070001128F5D9032001B0BDE8F08F704700008A
:104080004BF20010C4F2000050F82100704700000D
:104090004BF20010C4F2000040F8212070470000ED
:1040A00090F82C1001294FF0020117D080F82D1044
:1040B00042F62401C4F20001CA220A6053220A60B7
:1040C00051F80C2C42F0200241F80C2CFF220A601F
:1040D000012180F82D10002180F82C10084670472F
:1040E00010B542F21004C2F2000420460221FFF78C
:1040F000C7FF421C20460221BDE81040FFF7C8BFA1
:1041000010B542F65401C4F200010A680446520692
:1041100004D5402088602046FFF7E2FF012084F8A4
:104120002D0010BD90F82C1001294FF002011FD076
:1041300080F82D1042F62401C4F20001CA220A6060
:1041400053220A6051F80C2C42F0800241F80C2CEA
:1041500040F68002C5F60002136843F48023136022
:10416000FF220A60012180F82D10002180F82C1018
:104170000846704711F0C8BD70B542F65C050446AC
:10418000C4F2000555F8080C216B01EA0006F0079F
:1041900005D1B0070AD4012084F82D0070BD01209C
:1041A00028602046FFF7E6FFB007F4D5022028601C
:1041B0002046FFF763FF012084F82D0070BD00004A
:1041C000B0B590F82C20012A4FF0020239D042F607
:1041D000240CC4F2000CCA2380F82D20CCF8003047
:1041E0005323CCF800305CF80CEC6FF40853B1F5B5
:1041F000807F08BF6FF488534FF028046FF00205EA
:1042000003EA0E0308BF202408BF6FF001054CF835
:104210000C3C54F80C30B1F5807F23F0004144F899
:104220000C10016B08BF012229400163FF21CCF86B
:104230003820CCF800100121002280F82D1080F8E1
:104240002C201046B0BD000070B500284DD00446AB
:1042500090F82D0028B9002084F82C00204600F0AA
:104260005FF842F60C060220C4F2000684F82D0026
:10427000CA20B0615320B0613068400613D4306862
:1042800040F080003060FEF747FF316849060AD4ED
:10429000054600BFFEF740FF401BB0F57A7F37D8D8
:1042A00030684006F6D5F0684FF6BF71CFF68F3113
:1042B0000840F060231D22690BCB1043A269F5680A
:1042C00010432843F06043EA014070603068D4E94D
:1042D000091220F4F850084310433060204608F0DB
:1042E0008BF920B1FF21B16170BD012070BDF06874
:1042F000D4E9073220F06040616910431843084355
:10430000F060FF20B061012084F82D00002070BD16
:10431000032084F82D003168FF21B16170BD0000D9
:1043200010B590B0044601A83821FCF714F82068B5
:1043300042F60001C4F20001884201D010B010BD65
:104340004FF4803001904FF480700E9001A8FFF779
:1043500013F8002818BFFDF73FF85820C5F60000F5
:10436000816B002241F400418163016841F4806166
:1043700001600068002100F480600F900F98022017
:10438000FEF726FF0220FEF713FF2A20002100225D
:10439000FEF71EFF2A20FEF70BFF10B010BD000035
:1043A0002DE9F04190F82C30012B4FF0020300F082
:1043B000EF8042F6180C0125C4F2000C80F82C5056
:1043C00080F82D305CF80C3C03F44078B8F5807F21
:1043D00001D1002284E0F2B14A69B2F1803F08D0F5
:1043E000B2F5000F05D0DCF8006076065CBF002651
:1043F000CE700E784D788C7842EA0642CB7842EA4D
:1044000005220F6A224391F824E042EA83523A439C
:1044100042EA0E6264E0DCF800204CF6CD4E520613
:104420005CBF0022CA700A78CCF6CC4E0A2A0CD3A4
:104430000A3AD4B2A4FB0E45EC0804EB8405A2EBC7
:104440004502102505EB041400E0002422434C78BB
:10445000D2B20A2C4FEA02420CD30A3CE5B2A5FBC9
:104460000E56F50805EB8506A4EB4604102606EB70
:10447000051500E0002525438C78EDB20A2C42EAB0
:1044800005220CD30A3CE5B2A5FB0E56F50805EB58
:104490008506A4EB4604102606EB051500E0002572
:1044A0002C43E4B2224391F82440CD780A2C42EA0E
:1044B00085520CD30A3CE5B2A5FB0E65EE0806EB6F
:1044C0008605A4EB4504102505EB061500E0002544
:1044D00044EA05060D6A4C692A43224342EA066211
:1044E000CA23CCF80C305323CCF80C308B6ADCF8A0
:1044F0000050B3F5807F0DD125F48853CCF80030FF
:104500000123B8F5807FCCF8443011D1D1E90623DE
:104510001A4310E025F40853CCF800300223B8F514
:10452000807FCCF844300FD1D1E906231A430EE046
:10453000CCF828208A69CCF82C2049680122CCF8D4
:1045400058104FF488510AE0CCF830208A69CCF832
:10455000342049680222CCF85C104FF40851036BF8
:104560001A430263DCF8002000231143CCF800104A
:1045700040F68001C5F600010A6842F400320A6084
:10458000FF21CCF80C10012180F82D1080F82C3080
:104590001846BDE8F08100004EF21000CEF2000097
:1045A000016841F00201016070470000012909D053
:1045B000002918BF704740F20020C2F20000816855
:1045C0008020084740F20020C2F2000081684FF4CA
:1045D0008070084740F20020C2F20000816840204D
:1045E000084700002DE9F04182B08779012F02D100
:1045F0004779012F04D10221084602B0BDE8F081BD
:10460000067940F2904C40F2141EC5F6000C0127CA
:10461000012EC2F2000E477127D1DEF8004004EBF4
:104620004404C4F34F340094DCF8004024F4004404
:10463000CCF80040009C013C0094009C7CB1009CA4
:10464000013C0094009C54B1009C013C0094009CEF
:104650002CB1009C013C0094009C002CEAD1DCF8B9
:10466000004044F40044CCF80040DEF800406425EB
:1046700004EB4404C4F34B446C4301945CF87C4C5D
:10468000019D55B1019DA408013D01955CF87C5C3C
:1046900004EA5504E407F1D101E002248460DCF867
:1046A0000040642624F40044CCF80040DEF80050BA
:1046B0000824C5EBC505C5F34C45C5F60104754393
:1046C0000195019DF5B1019D013D01952568AD075D
:1046D0001AD4019DB5B1019D013D01952568AD0735
:1046E00012D4019D75B1019D013D01952568AD076D
:1046F0000AD4019D35B1019D013D01952568AD07A5
:10470000DFD501E0012585602171DEF80010642508
:10471000C1EBC101C1F34C4169430191019DF5B168
:10472000019D013D01952568ED071AD1019DB5B1A7
:10473000019D013D01952568ED0712D1019D75B1DF
:10474000019D013D01952568ED070AD1019D35B117
:10475000019D013D01952568ED07DFD001E00125B0
:104760008560656801910199F1B101990139019163
:10477000216889071AD40199B1B1019901390191D0
:104780002168890712D4019971B101990139019108
:10479000216889070AD4019931B101990139019140
:1047A00021688907DFD501E00121816000212171A5
:1047B000DEF800706425C7EBC701C1F34C416943C3
:1047C00001910199F1B10199013901912168C9075C
:1047D0001AD10199B1B10199013901912168C90733
:1047E00012D1019971B10199013901912168C9076B
:1047F0000AD1019931B10199013901912168C907A3
:10480000DFD001E0012181606168002B62D00021CE
:10481000642501264FF0FF08C7EBC707C7F34C47D5
:104820006F430197019FFFB1019F013F01972768E7
:10483000BF071AD4019FBFB1019F013F01972768AD
:10484000BF0712D4019F7FB1019F013F01972768E5
:10485000BF070AD4019F3FB1019F013F019727681D
:10486000BF07DFD501E000BF866084F80480DEF872
:104870000070C7EBC707C7F34C476F430197019F11
:10488000F7B1019F013F01972768FF0719D1019FE9
:10489000B7B1019F013F01972768FF0711D1019F21
:1048A00077B1019F013F01972768FF0709D1019F59
:1048B00037B1019F013F01972768FF07DFD000E074
:1048C0008660676801319942177003D2DEF8007084
:1048D0000132A1E7DCF80010642241F40041CCF879
:1048E0000010DEF8001001EB4101C1F34B415143D0
:1048F000019100BF5CF87C1C019A52B1019A8908B1
:10490000013A01925CF87C2C01EA5201C907F1D10D
:1049100001E00221816081680122002918BF012184
:10492000827100224271084602B0BDE8F0810000A9
:104930002DE9F04382B08779012F02D14779012F09
:1049400004D10221084602B0BDE8F083067940F2A6
:10495000904C40F2141EC5F6000C0127012EC2F245
:10496000000E477127D1DEF8004004EB4404C4F385
:104970004F340094DCF8004024F40044CCF80040AC
:10498000009C013C0094009C7CB1009C013C009484
:10499000009C54B1009C013C0094009C2CB1009CF4
:1049A000013C0094009C002CEAD1DCF8004044F467
:1049B0000044CCF80040DEF80040642504EB4404D9
:1049C000C4F34B446C4301945CF87C4C019D55B19D
:1049D000019DA408013D01955CF87C5C04EA550446
:1049E000E407F1D101E00224846041F01004942C2A
:1049F00014BF002401240471DCF80040642624F470
:104A00000044CCF80040DEF800500824C5EBC50592
:104A1000C5F34C45C5F6010475430195019DF5B1FB
:104A2000019D013D01952568AD071AD4019DB5B1E1
:104A3000019D013D01952568AD0712D4019D75B119
:104A4000019D013D01952568AD070AD4019D35B151
:104A5000019D013D01952568AD07DFD501E00125E8
:104A600085602171DEF800506427C5EBC506C6F3EA
:104A70004C467E430196019EF6B1019E013E019691
:104A80002668F6071AD1019EB6B1019E013E019635
:104A90002668F60712D1019E76B1019E013E01966D
:104AA0002668F6070AD1019E36B1019E013E0196A5
:104AB0002668F607DFD001E0012686606668002BD5
:104AC00067D000264FF064094FF0010806E000BFF0
:104AD000C0F80880013667689E425AD0C5EBC5050C
:104AE000975DC5F34C4505FB09F50195019DFDB1A9
:104AF000019D013D01952568AD071BD4019DBDB108
:104B0000019D013D01952568AD0713D4019D7DB13F
:104B1000019D013D01952568AD070BD4019D3DB177
:104B2000019D013D01952568AD07DFD502E000BF7D
:104B3000C0F808802771DEF80050C5EBC507C7F341
:104B40004C4707FB09F70197019F002FC0D0019F39
:104B5000013F01972768FF07BCD1019F002FB7D005
:104B6000019F013F01972768FF07B3D1019F002FE5
:104B7000AED0019F013F01972768FF07AAD1019F8F
:104B8000002FA5D0019F013F01972768FF07DBD0C9
:104B9000A0E7DCF80020842942F40042CCF8002091
:104BA00019D0DEF80010642201EB4101C1F34B4142
:104BB000514301915CF87C1C019A52B1019A890819
:104BC000013A01925CF87C2C01EA5201C907F1D14B
:104BD00001E00221816081680122002918BF0121C2
:104BE000827100224271084602B0BDE8F0830000E5
:104BF00040F20020C2F20000816820200847000037
:104C000040F20020C2F20000816810200847000036
:104C100070B582B004460020ADF806000DF1060222
:104C2000204612210223FFF7DDFC9DF807609DF866
:104C30000650F0071BD1B0071ED4700721D43007EF
:104C400024D4F00627D4B0062AD470062DD430061A
:104C500030D4A80702D5204600F024FD0DF106024D
:104C6000204602210223FFF763FE02B070BD2046FA
:104C700000F028FDB007E0D5204600F00BFD7007DE
:104C8000DDD5204600F0B8F83007DAD5204600F030
:104C900011FDF006D7D52046FFF7B2FFB006D4D5F8
:104CA0002046FFF7A5FF7006D1D52046FFF792FCFE
:104CB0003006CED505F001012046FFF777FCA807A6
:104CC000CCD5C8E710B582B000283ED00446807924
:104CD00020B900206071204600F074F89421022071
:104CE000C5F60001A0710868642220F40040086045
:104CF00040F21410C2F200000068C0EBC000C0F324
:104D00004C4050430190019810B301980138019034
:104D10000868400417D50198D0B101980138019076
:104D2000086840040FD5019890B1019801380190AE
:104D30000868400407D5019850B1019801380190E6
:104D400008684004DFD4002004E0012002B010BD58
:104D50000120A060D1F8FC2342F40042C1F8FC23FA
:104D600040F69002C5F60002136843F480531360C6
:104D7000D1F8742342F40062C1F874234FF4006246
:104D8000C1F8842318B10121A17102B010BD002225
:104D9000C5F601022168136841F4417123F0400314
:104DA000136011604FF4B8515160116841F0400137
:104DB0001160012121710021A1600121A17102B0C6
:104DC00010BD000080B582B06420C5F60000016807
:104DD000002241F0010101600068002100F00100A3
:104DE000019001983220FEF7F3F9322002B0BDE8BD
:104DF0008040FEF7DDB9000040F20020C2F2000062
:104E000081680420084700002DE9F04182B08779CD
:104E1000012F02D14779012F04D10221084602B0A7
:104E2000BDE8F081067940F2904C40F2141EC5F6C0
:104E3000000C0127012EC2F2000E477127D1DEF8C7
:104E4000004004EB4404C4F34F340094DCF8004009
:104E500024F40044CCF80040009C013C0094009CE9
:104E60007CB1009C013C0094009C54B1009C013C2E
:104E70000094009C2CB1009C013C0094009C002CF0
:104E8000EAD1DCF8004044F40044CCF80040DEF8FD
:104E90000040642504EB4404C4F34B446C43019488
:104EA0005CF87C4C019D55B1019DA408013D019524
:104EB0005CF87C5C04EA5504E407F1D101E00224CB
:104EC0008460DCF80040642624F40044CCF8004000
:104ED000DEF800500824C5EBC505C5F34C45C5F602
:104EE000010475430195019DF5B1019D013D0195B9
:104EF0002568AD071AD4019DB5B1019D013D01950D
:104F00002568AD0712D4019D75B1019D013D019544
:104F10002568AD070AD4019D35B1019D013D01957C
:104F20002568AD07DFD501E0012585601E252571C7
:104F3000DEF800506426C5EBC505C5F34C45754346
:104F40000195019EF6B1019E013E01962668F60785
:104F50001AD1019EB6B1019E013E01962668F60760
:104F600012D1019E76B1019E013E01962668F60798
:104F70000AD1019E36B1019E013E01962668F607D0
:104F8000DFD001E00126866066680195019DF5B1DC
:104F9000019D013D01952568AD071AD4019DB5B16C
:104FA000019D013D01952568AD0712D4019D75B1A4
:104FB000019D013D01952568AD070AD4019D35B1DC
:104FC000019D013D01952568AD07DFD501E0012573
:104FD00085602171DEF800106425C1EBC101C1F3C9
:104FE0004C4169430191019DF5B1019D013D019540
:104FF0002568ED071AD1019DB5B1019D013D0195CF
:105000002568ED0712D1019D75B1019D013D019506
:105010002568ED070AD1019D35B1019D013D01953E
:105020002568ED07DFD001E0012585606568019105
:105030000199F1B1019901390191216889071AD4C7
:105040000199B1B10199013901912168890712D4FF
:10505000019971B1019901390191216889070AD437
:10506000019931B101990139019121688907DFD591
:1050700001E00121816000212171DEF800706425CA
:10508000C7EBC701C1F34C41694301910199F1B1EB
:105090000199013901912168C9071AD10199B1B16A
:1050A0000199013901912168C90712D1019971B1A2
:1050B0000199013901912168C9070AD1019931B1DA
:1050C0000199013901912168C907DFD001E001216F
:1050D00081606168002B63D00021642501264FF0B8
:1050E000FF0800BFC7EBC707C7F34C476F430197E3
:1050F000019FFFB1019F013F01972768BF071AD4A5
:10510000019FBFB1019F013F01972768BF0712D4DC
:10511000019F7FB1019F013F01972768BF070AD414
:10512000019F3FB1019F013F01972768BF07DFD56E
:1051300001E000BF866084F80480DEF80070C7EBF1
:10514000C707C7F34C476F430197019FF7B1019F12
:10515000013F01972768FF0719D1019FB7B1019F50
:10516000013F01972768FF0711D1019F77B1019F88
:10517000013F01972768FF0709D1019F37B1019FC0
:10518000013F01972768FF07DFD000E0866067686E
:1051900001319942177003D2DEF800700132A1E7A5
:1051A000DCF80010642241F40041CCF80010DEF875
:1051B000001001EB4101C1F34B415143019100BF8C
:1051C0005CF87C1C019A52B1019A8908013A01925B
:1051D0005CF87C2C01EA5201C907F1D101E00221FF
:1051E000816081680122002918BF0121827100229B
:1051F0004271084602B0BDE8F08100002DE9F0419F
:1052000082B08779012F02D14779012F04D1022181
:10521000084602B0BDE8F081067940F2904C40F2B9
:10522000141EC5F6000C0127012EC2F2000E4771B4
:1052300027D1DEF8004004EB4404C4F34F3400945B
:10524000DCF8004024F40044CCF80040009C013C11
:105250000094009C7CB1009C013C0094009C54B1E3
:10526000009C013C0094009C2CB1009C013C0094EB
:10527000009C002CEAD1DCF8004044F40044CCF857
:105280000040DEF80040642504EB4404C4F34B44C2
:105290006C4301945CF87C4C019D55B1019DA408C0
:1052A000013D01955CF87C5C04EA5504E407F1D10A
:1052B00001E002248460DCF80040642624F4004409
:1052C000CCF80040DEF800500824C5EBC505C5F356
:1052D0004C45C5F6010475430195019DF5B1019D4D
:1052E000013D01952568AD071AD4019DB5B1019D19
:1052F000013D01952568AD0712D4019D75B1019D51
:10530000013D01952568AD070AD4019D35B1019D88
:10531000013D01952568AD07DFD501E001258560D8
:105320001D252571DEF800506426C5EBC505C5F3C3
:105330004C4575430195019EF6B1019E013E0196D3
:105340002668F6071AD1019EB6B1019E013E01966C
:105350002668F60712D1019E76B1019E013E0196A4
:105360002668F6070AD1019E36B1019E013E0196DC
:105370002668F607DFD001E00126866066680E0A1F
:105380000195019DF5B1019D013D01952568AD0790
:105390001AD4019DB5B1019D013D01952568AD0768
:1053A00012D4019D75B1019D013D01952568AD07A0
:1053B0000AD4019D35B1019D013D01952568AD07D8
:1053C000DFD501E0012585602671DEF800506426F6
:1053D000C5EBC505C5F34C4575430195019EF6B176
:1053E000019E013E01962668F6071AD1019EB6B1CC
:1053F000019E013E01962668F60712D1019E76B104
:10540000019E013E01962668F6070AD1019E36B13B
:10541000019E013E01962668F607DFD001E00126D5
:10542000866066680195019DF5B1019D013D01957C
:105430002568AD071AD4019DB5B1019D013D0195C7
:105440002568AD0712D4019D75B1019D013D0195FF
:105450002568AD070AD4019D35B1019D013D019537
:105460002568AD07DFD501E0012585602171DEF8F3
:1054700000106425C1EBC101C1F34C4169430191A6
:10548000019DF5B1019D013D01952568ED071AD1FA
:10549000019DB5B1019D013D01952568ED0712D132
:1054A000019D75B1019D013D01952568ED070AD16A
:1054B000019D35B1019D013D01952568ED07DFD0C6
:1054C00001E001258560656801910199F1B10199BB
:1054D00001390191216889071AD40199B1B1019963
:1054E000013901912168890712D4019971B101999B
:1054F00001390191216889070AD4019931B10199D3
:105500000139019121688907DFD501E0012181601E
:1055100000212171DEF800706425C7EBC701C1F3DB
:105520004C41694301910199F1B10199013901910E
:105530002168C9071AD10199B1B1019901390191C5
:105540002168C90712D1019971B1019901390191FD
:105550002168C9070AD1019931B101990139019135
:105560002168C907DFD001E0012181606168002B5B
:1055700062D00021642501264FF0FF08C7EBC70762
:10558000C7F34C476F430197019FFFB1019F013F54
:1055900001972768BF071AD4019FBFB1019F013F40
:1055A00001972768BF0712D4019F7FB1019F013F78
:1055B00001972768BF070AD4019F3FB1019F013FB0
:1055C00001972768BF07DFD501E000BF866084F838
:1055D0000480DEF80070C7EBC707C7F34C476F4382
:1055E0000197019FF7B1019F013F01972768FF07CE
:1055F00019D1019FB7B1019F013F01972768FF07AC
:1056000011D1019F77B1019F013F01972768FF07E3
:1056100009D1019F37B1019F013F01972768FF071B
:10562000DFD000E08660676801319942177003D2CD
:10563000DEF800700132A1E7DCF80010642241F4CA
:105640000041CCF80010DEF8001001EB4101C1F37D
:105650004B415143019100BF5CF87C1C019A52B14F
:10566000019A8908013A01925CF87C2C01EA520106
:10567000C907F1D101E0022181608168012200297E
:1056800018BF0121827100224271084602B0BDE8B4
:10569000F081000040F20020C2F200008168022088
:1056A0000847000040F20020C2F2000081684FF479
:1056B0000070084740F20020C2F200008168082014
:1056C0000847000040F20020C2F20000816801207B
:1056D000084700002DE9F04182B08779012F02D1FF
:1056E0004779012F04D10221084602B0BDE8F081BC
:1056F000067940F2904C40F2141EC5F6000C0127CA
:10570000012EC2F2000E477127D1DEF8004004EBF3
:105710004404C4F34F340094DCF8004024F4004403
:10572000CCF80040009C013C0094009C7CB1009CA3
:10573000013C0094009C54B1009C013C0094009CEE
:105740002CB1009C013C0094009C002CEAD1DCF8B8
:10575000004044F40044CCF80040DEF800406425EA
:1057600004EB4404C4F34B446C4301945CF87C4C5C
:10577000019D55B1019DA408013D01955CF87C5C3B
:1057800004EA5504E407F1D101E002248460DCF866
:105790000040642624F40044CCF80040DEF80050B9
:1057A0000824C5EBC505C5F34C45C5F60104754392
:1057B0000195019DF5B1019D013D01952568AD075C
:1057C0001AD4019DB5B1019D013D01952568AD0734
:1057D00012D4019D75B1019D013D01952568AD076C
:1057E0000AD4019D35B1019D013D01952568AD07A4
:1057F000DFD501E0012585600E252571DEF800501A
:105800006426C5EBC505C5F34C4575430195019E5E
:10581000F6B1019E013E01962668F6071AD1019E57
:10582000B6B1019E013E01962668F60712D1019E8F
:1058300076B1019E013E01962668F6070AD1019EC7
:1058400036B1019E013E01962668F607DFD001E0E1
:105850000126866066680195019DF5B1019D013DB7
:1058600001952568AD071AD4019DB5B1019D013D93
:1058700001952568AD0712D4019D75B1019D013DCB
:1058800001952568AD070AD4019D35B1019D013D03
:1058900001952568AD07DFD501E0012585602171FF
:1058A000DEF800106426C1EBC105C5F34C45754315
:1058B0000195019DF5B1019D013D01952568ED071B
:1058C0001AD1019DB5B1019D013D01952568ED07F6
:1058D00012D1019D75B1019D013D01952568ED072E
:1058E0000AD1019D35B1019D013D01952568ED0766
:1058F000DFD001E0012585606568002B62D00025BE
:1059000064264FF0010805E0C0F80880013567689B
:105910009D4257D0C1EBC101575DC1F34C4171436A
:1059200001910199F1B1019901390191216889072A
:105930001AD40199B1B101990139019121688907FE
:1059400012D4019971B10199013901912168890736
:105950000AD4019931B1019901390191216889076E
:10596000DFD501E0C0F808802771DEF80010C1EB38
:10597000C107C7F34C4777430197019F002FC3D05E
:10598000019F013F01972768FF07BFD1019F002FAB
:10599000BAD0019F013F01972768FF07B6D1019F49
:1059A000002FB1D0019F013F01972768FF07ADD1BC
:1059B000019F002FA8D0019F013F01972768FF0793
:1059C000DBD0A3E7DCF80010642241F40041CCF8FE
:1059D0000010DEF8001001EB4101C1F34B415143CF
:1059E000019100BF5CF87C1C019A52B1019A8908B0
:1059F000013A01925CF87C2C01EA5201C907F1D10D
:105A000001E00221816081680122002918BF012183
:105A1000827100224271084602B0BDE8F0810000A8
:105A20002DE9F04182B08779012F54D147794FF0A9
:105A3000020C012F51D00127477180F806C0077969
:105A400040F2904C40F2141EC5F6000C012FC2F239
:105A5000000E28D1DEF8004004EB4404C4F34F34B8
:105A60000094DCF8004024F40044CCF8004000BF6F
:105A7000009C013C0094009C7CB1009C013C009483
:105A8000009C54B1009C013C0094009C2CB1009CF3
:105A9000013C0094009C002CEAD1DCF8004044F466
:105AA0000044CCF80040DEF80040642504EB4404D8
:105AB000C4F34B446C4301945CF87C4C019D85B16C
:105AC000019DA408013D01955CF87C5C04EA550445
:105AD000E407F1D107E04FF0020C604602B0BDE8E8
