:020000040800F2
:1000000070120020E50100086F310008EB2F000896
:100010006D310008BD0C00084965000800000000B3
:100020000000000000000000000000007150000807
:100030002F0E000800000000C7310008A951000879
:10004000FF010008FF010008FD520008FF01000841
:10005000FF010008FF010008310E0008370E0008FC
:10006000FF010008FF0100083D0E0008750D0008A3
:10007000FF010008FF010008FF010008FF01000860
:10008000FF010008FF010008FF010008FF01000850
:1000900000000000FF010008FF010008FF01000848
:1000A000FF010008FF010008FF010008FF01000830
:1000B000FF010008FF010008FF010008FF01000820
:1000C000FF010008FF010008FF010008FF01000810
:1000D00085610008FF010008FF010008FF0100081A
:1000E000FF010008FF01000809330008FF010008B4
:1000F000FF0100080000000000000000FF010008F0
:10010000FF010008FF01000895460008FF010008F4
:10011000FF010008FF010008FF010008FF010008BF
:10012000FF010008FF010008FF010008FF010008AF
:10013000FF010008FF01000800F002F800F043F89A
:100140000AA090E8000C82448344AAF10107DA4532
:1001500001D100F038F8AFF2090EBAE80F0013F041
:10016000010F18BFFB1A43F001031847E46A0000AF
:10017000046B0000103A24BF78C878C1FAD852073F
:1001800024BF30C830C144BF04680C607047000011
:100190000023002400250026103A28BF78C1FBD890
:1001A000520728BF30C148BF0B6070471FB500F031
:1001B000C5FC04000020002106F0F0FB401C60603C
:1001C0001FBD10B510BD00F07DFC1146FFF7EEFF1E
:1001D00006F0BCF900F0A4FC03B4FFF7F2FF03BC87
:1001E00000F0B0FC0948804709480047FEE7FEE7F9
:1001F000FEE7FEE7FEE7FEE7FEE7FEE7FEE7FEE7D7
:1002000004480549054A064B70470000F9520008AA
:10021000390100087008002070120020700A0020C8
:10022000700A002053EA020C00F069802DE9F04BBF
:100230004FF00006002B1FBFB3FA83F503FA05F455
:1002400024FA05F65E4012BF1643B2FA82F502FAAE
:1002500005F4C5F120051EBF22FA05FC44EA0C0492
:10026000203556EA044C4FEA144418BF641C4FF082
:1002700000084FF00009904271EB030C39D30029BC
:1002800019BFB1FA81F701FA07F6B0FA80F700FA60
:1002900007F6C7F120071EBF20FA07FC46EA0C0646
:1002A0002037B6FBF4FCA7EB0507103F07F01F0B48
:1002B000CBF120062CFA06F60CFA0BFB44BFB34632
:1002C0000026202FA4BF5E464FF0000B5BEA060C11
:1002D00008BF4FF0010B19EB0B0948EB0608ABFB0D
:1002E000027C06FB02CC0BFB03CCC01B71EB0C01A8
:1002F000C1E70B46024641464846BDE8F08B13B5C0
:10030000084318BF4FF0FF300146AFF30080BDE84F
:100310001C4070470FB400B58DB010A90990009132
:100320000B904FF0FF300A9000200C900648784464
:100330000690064878446A4607900F9909A800F08D
:100340009BF90DB05DF814FB670300007F0300000C
:100350002DE9FF5F1D464FF0FF3B91464FF000082F
:100360005F46D5E90146A96901987F1C8847296A3B
:10037000824688470028F6D1BAF1FF3F0CD0002E04
:1003800024F4C06419DD600614D5BAF12B0F09D02E
:10039000BAF12D0F0ED103E0584604B0BDE8F09F2E
:1003A00044F48064A96901987F1C8847761E8246C0
:1003B000002E02DDBAF1300F03D0B9F1000F26D0C4
:1003C00032E0A969761E01987F1C44F400748847C6
:1003D000002E824605DDBAF1780F06D0BAF1580F2B
:1003E00003D0B9F1000F10D01EE0B9F1000F02D018
:1003F000B9F1100F18D1A969761E01987F1C24F459
:10040000007488478246102002E0082000E00A209D
:10041000814609E0A96908FB0908761E01987F1C3E
:1004200044F4007488478246002E05DD4946504654
:1004300000F00DF90028EDDAE96901988847A00578
:1004400002D46FF00100A8E7E00725D1600613D5BC
:10045000600502D5C8F1000000E0404629680A1D89
:100460002A600968220501D5087015E0220701D528
:10047000088011E008600FE02868011D296000680D
:10048000210502D580F8008006E0210702D5A0F8FA
:10049000008001E0C0F8008038467EE710B5431CBC
:1004A00002E010F8011B71B18107FAD14FF001325F
:1004B00002C88C1A8C4314EAC211F9D0C01A0A0679
:1004C00003D0C01E10BDC01A10BD0A0401D0801E8A
:1004D00010BD0902FCD0401E10BD40EA010370B5FA
:1004E0009B072ED14FF00136042A2AD308C810C921
:1004F0009D1B9D43121F15EAC61517D0D8B2E1B255
:10050000401A50EA056110D198B2A1B2401A50EADF
:1005100005410AD123F07F4024F07F41401A50EA80
:10052000052102D1180EA0EB146070BDA342DBD0F0
:1005300018BA21BA884201D9012070BD4FF0FF30AE
:1005400070BD0AB9002070BD10F8013B11F8014BD5
:1005500063B1A3420AD1521E08D010F8013B11F832
:10056000014B1BB1A34201D1521EEDD1181B70BD2E
:10057000032A40F2308010F0030C00F0158011F8CF
:10058000013BBCF1020F624498BF11F801CB00F8A7
:10059000013B38BF11F8013BA2F1040298BF00F8FB
:1005A00001CB38BF00F8013B11F0030300F0948049
:1005B000083AC0F0088051F8043B083A51F804CBDF
:1005C000A0E80810F5E7121D5CBF51F8043B40F8A5
:1005D000043BAFF30080D20724BF11F8013B11F8B0
:1005E00001CB48BF11F8012B24BF00F8013B00F8F4
:1005F00001CB48BF00F8012B70474FF0000200B557
:10060000134694469646203922BFA0E80C50A0E835
:100610000C50B1F12001BFF4F7AF090728BFA0E8E3
:100620000C5048BF0CC05DF804EB890028BF40F8AF
:10063000042B08BF704748BF20F8022B11F0804FF1
:1006400018BF00F8012B70477047704770473A2871
:1006500000D2303820F02002412A01D3A2F1370025
:10066000884201D34FF0FF30704700000268114408
:100670001378016018467047D1600549794451618B
:1006800004497944116200211161114600F060B8FB
:10069000EDFFFFFFB7000000426842B1016811F8AA
:1006A000013B23B1521EC0E90012184670470121D8
:1006B000C160881E704742685AB1C368016843B977
:1006C00083688B4205D0491E521CC0E900120020ED
:1006D00070474FF0FF30704710B5203AC0F00B80E4
:1006E000B1E81850A0E81850B1E81850A0E8185028
:1006F000203ABFF4F5AF5FEA027C24BFB1E818509E
:10070000A0E8185044BF18C918C0BDE810405FEAFF
:10071000827C24BF51F8043B40F8043B08BF70477B
:10072000D20728BF31F8023B48BF11F8012B28BF80
:1007300020F8023B48BF00F8012B704710B5044673
:1007400000F0E6F90068005D00F0010010BD000057
:100750002DE9F34F4FF0000A0C4656468DB00120AC
:100760000C9001F10C000B9062690B9801219047ED
:10077000051E2DD0252D2CD0216A8847C0B1626975
:100780000B9801219047216A88470028F7D16269B8
:10079000411E0B98904700E0761CA1690D98884790
:1007A000216A88470028F7D1E1690D988847DBE77F
:1007B000A1690D988847A842074601D1761CD3E766
:1007C000E1690D9888477F1C02D1BAF1000F6FD004
:1007D0006BE162690B9800273D46394690472A280D
:1007E00004D162690B98012190470125DFF8D0827E
:1007F00062690B9801219047A0F130010A290AD2C1
:100800004745E5DC07EB870100EB4107303FDFD4CC
:1008100045F01005ECE7E90601D46FF000476C28BD
:100820000AD04C2814D0682815D06A280DD0742816
:100830001CD07A281AD01DE062690B9801219047DC
:100840006C2802D045F0040514E045F002050DE0E7
:1008500045F020050AE062690B980121904768285D
:1008600002D045F0080505E045F4006562690B9883
:1008700001219047C4E9015765283DD019DC58286B
:100880007AD00CDC452837D004DC252826D0412836
:100890009ED131E046282FD0472899D12CE05B2803
:1008A00077D0612828D063287CD0642823D15AE0EF
:1008B000F6E06F2848D008DC66281DD067281BD0DA
:1008C000692821D06E2816D127E0702845D07328DA
:1008D00068D0752847D078280DD14DE0A1690D98D2
:1008E0008847252805463FF469AFE1690D98884798
:1008F0006D1C3FF46AAFD8E00D9923466A466FF04D
:100900000100AFF30080C5E045F0400023464FF002
:1009100000026060A80736D43EE0E8077FF447AFE6
:100920002068011D21600068290501D506701BE7BC
:10093000290701D5068017E7A90703D5F117C0E9F4
:10094000006111E706600FE745F0400023464FF0D5
:1009500008026060A80716D41EE040F60E0125EAE2
:100960000100606016E045F0400023464FF00A02A7
:100970006060A80707D40FE045F040006060A8075A
:1009800008D5234610220D996FF00100AFF30080C7
:1009900080E007E0102223460D996FF00100FFF779
:1009A000D7FC77E04FF0000963284F46C8464B4616
:1009B000CB4602D05B2806D038E0E80601D40120FF
:1009C000A060012732E06269D4F80CB00B980121D5
:1009D00090475E2807D14FF0010949466269D4F873
:1009E0000CB00B989047216939B900210A4603AB36
:1009F00043F82120491C0829FADBD8B3216949B3FF
:100A000008F1010862690B98012190475D28F4D133
:100A1000B9F1000F09D0002003A951F82020D243DA
:100A200041F82020401C0828F7DB03AB2069002890
:100A300020794FEA40701ED05B462246CDF80080F8
:100A4000CDE901970D9900286FF0010020DAAFF38E
:100A500000801FE0C11703AA00EBD1614B1121F008
:100A60001F0102EB8302411A1368012088400343EF
:100A70001360C7E719E00D99224600286FF00100C6
:100A8000009702DAAFF3008004E0AFF3008001E0EA
:100A9000AFF3008000280ADA401C06D10C9820B180
:100AA0004FF0FF300FB0BDE8F08F5046FAE7E9078E
:100AB00001D10AF1010A064400200C9054E600001E
:100AC000CCCCCC0C754600F035F8AE460500694636
:100AD000534620F00700854618B020B5FFF790FB7D
:100AE000BDE820404FF000064FF000074FF000082F
:100AF0004FF0000BAC46ACE8C009ACE8C009ACE86C
:100B0000C009ACE8C00921F007018D46704700001C
:100B100010B500F013F8001D10BD00BF815E00008D
:100B200010B50446AFF300802046BDE81040FFF743
:100B300053BB000000487047180000200048704771
:100B40003800002001491820ABBEFEE72600020055
:100B500030B44FF0013C50F8042B51F8043BCCFA70
:100B600052F4D51A20D1FCB950F8042B51F8043BAB
:100B7000CCFA52F4D51A17D1B4B950F8042B51F865
:100B8000043BCCFA52F4D51A0ED16CB950F8042BB0
:100B900051F8043BCCFA52F4D51A05D1002CDAD026
:100BA00030BC4FF00000704729BAB1FA81F111F062
:100BB0001801D1F120008440F2D1CA40CB4012F09C
:100BC000FF0213F0FF0330BCD01A704770470000DB
:100BD000032818D8B0B504460CA0104D402150F899
:100BE00024204FF09040A8470DA0802150F82420E9
:100BF0004FF09040A8474FF090404FF40041002242
:100C0000A847BDE8B0400020704700BF00000000CA
:100C10000000000001000000010000002114000895
:100C200000000000010000000000000000000000C3
:100C30000220704770B586B01B4E002401200125AC
:100C40000594B0470120B0470220B047032004902C
:100C5000CDE90254802001AC144D01904FF090403A
:100C60002146A8474FF40040214601904FF09040A4
:100C7000A8474020214601904FF09040A8470C4CD7
:100C80004FF090404FF400410022A0474FF09040B9
:100C900080210022A0474FF0904040210022A04731
:100CA000002006B070BD00BF093000089112000896
:100CB000211400080120704700207047FEE7000063
:100CC0001CB500220A29019217D30DA10A2204465D
:100CD000FFF703FC08B100220FE00CA101AA204697
:100CE000FFF718FB019A012807D1A2F1960040F204
:100CF0002B31884224BF0022019290B21CBD00BF5C
:100D000041542B434F4E46524551000041542B4312
:100D10004F4E465245513D25640D0A001CB57F22B9
:100D20000A29019213D30BA10A220446FFF7D5FB2F
:100D300008B17F220BE00AA101AA2046FFF7EAFAD8
:100D4000019A012803D1172A24BF1622019290B2DA
:100D50001CBD00BF41542B434F4E5057455200001D
:100D600041542B434F4E505745523D25640D0A00C8
:100D700070470000014800F015B900BF28060020A8
:100D800010B51049836C104C01F1640223F0030389
:100D900002650268A24238BF04F57E71194414232B
:100DA000A242C1646FF0070151FA82F14FF00102D3
:100DB000B1FBF3F128BF073101F01F0102FA01F185
:100DC000416510BD1C0802400804024010B543688C
:100DD00007490124583003F07F0301F14002013B31
:100DE00001EB830103F0030304FA03F30EC010BD0B
:100DF00000090240F0B500F1500670CE656016B1F2
:100E0000D0E91745656085680468D0E9116001275D
:100E100000F01C00102D07FA00F0706008466360B7
:100E200008BF1046A06008BF0A46E260F0BD7047E8
:100E3000012000F023BA022000F020BA102000F0B8
:100E40001DBAEFF3108072B6FEE740B3B0B5816A09
:100E5000022926D1016800F144041CCC0D6803F07E
:100E60001C0325F00E050D60256825F480752560AE
:100E70000C6824F001040C60012101FA03F35360B3
:100E8000D0E914235360826D32B1136823F4807368
:100E90001360D0E9172353608162002104E001212F
:100EA00006E004210164012100224262BDE8B04055
:100EB00008467047B0B5816A022929D10168D0E996
:100EC0001132C46C0D6825F00E050D600D6825F01B
:100ED00001050D60216821F48071216002F01C0180
:100EE000012202FA01F15960D0E914134B60816DBF
:100EF00031B10B6823F480730B60D0E917134B609A
:100F0000002141628262C26B2AB19047002102E057
:100F10000421016401210846B0BD0000B0B50446BB
:100F20000120E4B322681425116821F00101116049
:100F3000714901F108039A42704B38BFA1F58061F5
:100F400038BF03F580631344B3FBF5F39D00C4E998
:100F50001115002515601C2202EA830290404860AA
:100F60002046FFF70DFF606804F14C030ECB0138FB
:100F700003280D60536007D82046FFF727FF04F1D0
:100F8000580207CA05604A602564C4E916552566FB
:100F9000C4E90C55C4E90E556562A56200E001255F
:100FA0002846B0BDF0B5D0E91123016814680E6879
:100FB00003F01C0375070ED504259D4015EA0407B0
:100FC00009D00B689B0603D40B6823F004030B6065
:100FD0005560416B2EE0B50719D502259D4015EAF5
:100FE000040714D00A68920605D40A6822F00A029F
:100FF0000A600122826200224262114A02F17C03ED
:10100000994288BF02F580621560016B12E03507D6
:1010100014D508259D402C4010D00C6824F00E04F7
:101020000C60012101FA03F3536000220164426263
:101030008162816B11B1BDE8F0400847F0BD00BF8F
:101040000400024000284AD0F8B5044602202A498C
:101050001427A06204F10806206801F1080268CE96
:101060009042264A38BFA1F5806138BF02F5806200
:101070000244B2FBF7F29200C4E9111247F6F07293
:1010800001689143016045EA0301626931431143FC
:10109000A2691143E2691143226A114302681143B4
:1010A00001602046FFF76CFEA06804F14C03B0F528
:1010B000804F06BF00206060606800F07F050ECBA7
:1010C000013803280D6053600BD82046FFF77EFEE1
:1010D00004F15802002307CA03604A6005E00120BA
:1010E00070470020C4E9160020660020012120641A
:1010F0006062A162F8BD00BF00040240F8FBFDBFC2
:10110000B0B50446406A012804BF0220B0BD0120EA
:101110006062A06A012812D10220A062002020642F
:101120002068056825F0010505602046FFF762FE8E
:101130002068626B016842B141F00E010BE00020B3
:101140006062802020640120B0BD21F004010160B4
:10115000016841F00A010160E16C0A68D20303D51D
:101160000A6842F480720A60A16D19B10A6842F4FB
:1011700080720A60016841F0010101600020B0BD89
:1011800081B00090009801B004F0ECB82DE9FC4F5C
:101190009F4A4FF000080025002390424FF00702BD
:1011A00008BF02220092019131FA03F608BFBDE8A0
:1011B000FC8F012202FA03F616EA010C56D008F061
:1011C0000C0907224FEA930EB0F1904F02FA09F48E
:1011D000914A52F82E7007EA040A07D08F4ADDF8C8
:1011E00000B0904208BF4FF0010B01E04FF0000B40
:1011F0000BFA09F7BA451AD18649D1F8807027EA67
:101200000C07C1F88070D1F8847027EA0C07C1F888
:1012100084700F6827EA0C070F604F6827EA0C07F5
:101220004F607D4951F82E70A74341F82E7003217D
:101230002C4601FA05F705680F213D43056008F0CB
:101240001C0501FA05F56FF0030101EA530202449F
:10125000116AA943254611628168B94381604168DA
:10126000B1434160C168B943C160019908F1040804
:101270000235013398E700BF7047000003490A6850
:10128000024208BF70470860FFF7F6BF0C0800581D
:101290002DE9F84F5E4A604F4FF000094FF0010B07
:1012A0004FF00008002390424FF0070208BF0222CF
:1012B00000920C6834FA03F208BFBDE8F88F0BFA0D
:1012C00003F214EA020A00F09D804E6806F0030C57
:1012D000ACF10104012C19D80324856804FA08F440
:1012E00025EA040ECD6805FA08F545EA0E05856085
:1012F000C6F3001505FA03FE456825EA020242EA34
:101300000E026FEA040E42605A000CE00322BCF1A8
:10131000030F02FA08F26FEA020E424603D1424678
:101320004FF0030C21E0C4688D68BCF1020F04EAA1
:101330000E0405FA02F544EA0504C46015D109F06B
:101340001C040F2505FA04FC6FF0030505EA53069B
:101350000644356A25EA0C0C0D6905FA04F444EAE2
:101360000C0434624E6806F0030C04680CFA02F2B6
:1013700016F4403F04EA0E0442EA0402026041D03F
:1013800009F00C060722B0F1904F02FA06F44FEA7A
:10139000930257F8225025EA040505D01F4CA042BD
:1013A000009C08BF012400E00024B440BC462C434C
:1013B00047F82240174A1746D2F880204D6842EA83
:1013C0000A04EE0358BF22EA0A04C7F88040AE03BD
:1013D000D7F8842042EA0A0458BF22EA0A04C7F870
:1013E0008440EE023A6842EA0A0458BF22EA0A043C
:1013F0003C60AD027A6842EA0A0458BF22EA0A0455
:101400007C60674609F1040908F10208013350E7DE
:101410000008004800080058080001400004004887
:101420001823002A08BF2823C150704703F0CEBFFD
:1014300080B5032000F060F800F02AFA0549086042
:101440000F2000F009F808B1012080BD00F006F877
:10145000002080BD10000020002070477047000071
:1014600000280CD400F01F010122400902FA01F10A
:10147000034A42F82010BFF34F8FBFF36F8F7047BE
:1014800080E100E0002808D400F01F01012240099B
:1014900002FA01F1014A42F82010704700E100E031
:1014A000F0B51B4B4FF0FF361C68C4F30224E51E59
:1014B00084F0070438BF0025042C28BF042406FA52
:1014C00005F706FA04F4BA43B0F1FF3F21EA04013C
:1014D00000F00F0401FA05F1A4F1040441EA02014D
:1014E0002344044A03F10C034FEA0111C8BF8318D7
:1014F0001970F0BD00E400E005494FF6FF030A68EB
:101500001A4060F30A22034810430860704700BF86
:101510000CED00E00000FA050548006800F4C0602A
:10152000704700BF0248016841F480710160704754
:1015300000040058F8B504468078644EC00742D0D5
:10154000FFF7F0FFFFF772FF0546D6F8F403C0057A
:1015500006D4FFF76BFF401B0228F6D9032533E0C2
:10156000606BD6F8841001F44071814224D0D6F823
:101570008410D6F8842042F48032C6F88420D6F84D
:10158000842022F48032C6F8842021F44072890736
:101590000146C6F884200FD5FFF748FF054641F203
:1015A0008837D6F88400800705D4FFF73FFF401B3B
:1015B000B842F6D9D2E7616BD6F8840020F44070C7
:1015C0000843C6F8840000252068C10706D061687A
:1015D000F26F22EA114289B21143F167810706D501
:1015E000A168F26F22EA114289B21143F1678106C4
:1015F00005D52169F26F22F440621143F16781053C
:1016000009D5216A4FF6FF72F36F62EA01021A40B0
:1016100042EA0141F167410509D5616A4FF6FF725F
:10162000F36F62EA01021A4042EA0141F1670105E3
:1016300009D5A16A4FF6FF72F36F62EA01021A4000
:1016400042EA0141F167410603D5606901F0EAFC15
:101650002068010603D5A06901F0E4FC2068C105FB
:1016600003D5E06901F0DEFC2068C1060DD5E16814
:10167000F26F22F44072B1F5807F42EA0102F26714
:1016800003D1316841F08071316001040BD5216BC9
:10169000F26F22F0404242EA0102F26719B9316862
:1016A00041F08071316040040DD5E06AF16F21F0A6
:1016B0004051B0F1005F41EA0001F16703D13068A9
:1016C00040F4803030602846F8BD00BF0C00005860
:1016D0002DE9F843002800F0A4806A4F05460C4627
:1016E000386800F00700884212D2386820F00700FE
:1016F00020433860FFF79AFE0646386800F007007E
:10170000A04205D0FFF792FE801B0228F5D959E0D0
:101710002868B946724F810712D5A868396821F048
:10172000F00108433860FFF781FE06463868C003C1
:1017300005D4FFF77BFE801B0228F7D942E028681A
:10174000410616D56869D7F8001121F00F0141EA6A
:101750001010C7F80001FFF769FE0646D7F8000130
:10176000C00305D4FFF762FE801B0228F6D929E0EA
:101770002868410712D5E868396821F4E061084318
:101780003860FFF753FE06463868800305D4FFF73C
:101790004DFE801B0228F7D914E02868010715D5F3
:1017A0002869396821F4605141EAC0003860FFF7C8
:1017B0003DFE06463868400307D4FFF737FE801B1E
:1017C0000228F7D90320BDE8F8832868C0071DD197
:1017D000D9F8000000F00700A04225D9D9F8000090
:1017E00020F007002043C9F80000FFF71FFE054660
:1017F0004846D9F8000000F00700A04214D0FFF7D7
:1018000015FE411B03200229F2D931E068684FF030
:10181000B04198B103282DD002282FD1096889033F
:101820000FD40120BDE8F88300F032F816490860B3
:1018300016480068BDE8F843FFF70EBE096889073F
:10184000EFD5396821F0030108433860FFF7EEFD5A
:10185000064641F288386868396801F00C01B1EB3E
:10186000800FB5D0FFF7E2FD811B03204145F2D97F
:10187000BDE8F88309688901D3D5E2E7096849051D
:10188000CFD5DEE700400058100000200400002003
:1018900080B500F029F812493C22096802EA91015A
:1018A000024A5158B0FBF1F080BD00BFE06900086A
:1018B00080B5FFF7EDFF0A490A4A0968C1F3022122
:1018C00052F82110C84080BD80B5FFF7E1FF044900
:1018D000044A0968C1F3C22152F82110C84080BDF2
:1018E00008000058206A000810B5364951F8042C49
:1018F000086812F00C0205D00C2A17D100F0030082
:10190000012813D14FF0B0400368006800F00800D0
:101910001B0704D4C8B14FF0B04000681CE0C8B148
:101920004FF0B0400068C0F3031016E02648042AC8
:101930001CD0082A19D14FF0B0421268D2025CBF05
:1019400044F60000C0F2E81010E0D1F88800C0F3BF
:10195000032002E0D1F8880000201C4B002A53F835
:101960002030184618BF002001E00020002351F865
:10197000042C02F00C020C2A22D1086800F00302A9
:101980001148022A0CD0032A09D14FF0B042126844
:10199000D2025CBF44F60000C0F2E81000E0184636
:1019A0000A680B6809680124C2F3062204EB51712E
:1019B0005043C3F302120132B0FBF2F0B0FBF1F07E
:1019C00010BD00BF0C0000580024F400FC6A0008A1
:1019D0002DE9F84F002800F07B81E14C83466068D8
:1019E00000F00C08A06800F003099BF800008006D6
:1019F0002CD49BF80000C00700F08880B8F1080FD5
:101A00007AD0B8F10C0F08BFB9F1030F74D04FF0C2
:101A1000B040DBE901610268B6F5803F22F4801234
:101A200041EA0201016009D0B6F5041F40F0CF8100
:101A30004FF0B0410A6842F400120A60016841F4B4
:101A400080310160FFF7F2FC0546D2E1B8F1000FEA
:101A50001FD0B8F10C0F08BFB9F1010F19D04FF02A
:101A6000B0463068DBF82010002900F0538140F0C8
:101A700001003060FFF7DAFC05463068800700F1AE
:101A80005A81FFF7D3FC411B03200229F5D9BDE899
:101A9000F88F4FF0B0410868800704D5DBF82000CC
:101AA000002800F01581DBF828000968090759BFF4
:101AB000D4F8901009094FF0B041096801F0F00125
:101AC000884240F2EF8001F089FB002840F000815D
:101AD0004FF0B040016841F008010160DBE90912F4
:101AE000036823F0F0031A430260206820F47F406B
:101AF00040EA01202060EEE04FF0B0400068800333
:101B000004D5DBF80400002800F0E2809BF8000018
:101B1000800732D5B8F1040F1DD0B8F10C0F08BF03
:101B2000B9F1020F17D04FF0B0463068DBF8101053
:101B3000002900F0778140F480703060FFF776FC78
:101B400005463068400510D4FFF770FC411B0320A8
:101B50000229F6D99BE74FF0B0400068400504D554
:101B6000DBF81000002800F0B380DBF814002168D7
:101B700021F0FE4141EA006020609BF80000000770
:101B80002DD49BF80000400753D4DBF82C0018B389
:101B9000B8F10C0F40F0E680012800F09980DBF8E6
:101BA0003010A06800F003028A4240F09180DBF818
:101BB000341000F070028A4240F08A80DBF838105E
:101BC00000F4FE42B2EB012F40F08280DBF84410BB
:101BD00000F0604088427BD10020BDE8F88FD4F847
:101BE0009010DBF81800002800F08180DBF81C0062
:101BF00001F01002904200F0B18101F00302022ACC
:101C000066D0C90700F0A381D4F8900020F001004D
:101C1000C4F89000FFF70AFC0546D4F8900080074E
:101C200040F19381FFF702FC411B03201129F4D9F5
:101C30002DE7D4F8FC03C0050FD4FFF773FCFFF7C2
:101C4000F5FB0546D4F8FC03C00506D4FFF7EEFB10
:101C5000411B03200229F5D919E7DBF80C00002805
:101C600000F0F180852801D0052805D1D4F88C003A
:101C700040F00400C4F88C00FFF7D8FB0546D4F808
:101C80008C0041F2883640F00100C4F88C00D4F892
:101C90008C0080077DD4FFF7C9FB411B0320B142B4
:101CA000F5D9F4E64FF0B0410A6842F008020A6044
:101CB0000A6822F0F00202430A60DBF8241022686E
:101CC00022F47F4242EA0121216001F087FA10B13B
:101CD0000120BDE8F88FFFF7DBFDAB490860AB489A
:101CE0000068FFF7B9FB00287FF4D1AE81E621F050
:101CF0000100C4F89000FFF799FB0546D4F8900066
:101D000080077FF53EAFFFF791FB411B03201129B0
:101D1000F4D9BCE620F001003060FFF787FB0546F0
:101D2000306880077FF565AEFFF780FB411B03201D
:101D30000229F5D9ABE64FF0B040016841F0080147
:101D40000160DBE90912036823F0F0031A43026023
:101D5000206820F47F4040EA0120206049E600BF6F
:101D6000040000584FF0B0460228316821F080711D
:101D7000316040F08280FFF759FB054630688001F2
:101D800040F19180FFF752FB411B03200A29F5D94E
:101D90007DE6DBF80C0040F00400852840F0A980C7
:101DA000FFF744FB0546D4F88C0041F2883640F03A
:101DB0008000C4F88C00D4F88C0000053FF5E5AE37
:101DC000FFF734FB411B0320B142F4D95FE64FF02B
:101DD000B04ADAF8000020F48030CAF80000DAF8DF
:101DE000000020F40010CAF80000FFF71FFB0546B2
:101DF0009EB14FF0B046306880033FF587AEFFF7E5
:101E000015FB411B03206429F5D940E6FFF70EFBC3
:101E1000411B032064293FF63AAEDAF80000800344
:101E2000F4D473E620F480703060FFF7FFFA0546C3
:101E3000306840057FF5A1AEFFF7F8FA411B03209B
:101E40000229F5D923E6FFF7F1FA0646D4F88C000B
:101E500041F2883920F08000C4F88C00D4F88C005E
:101E600027460405FFF7E2FA0546002C58D5A91BC2
:101E700003203C464945F1D909E6A068444920F0D1
:101E80000300A060A0680840A060FFF7CFFA0446F6
:101E9000306880017FF5A0AEFFF7C8FA011B032070
:101EA0000A29F5D9F3E5A0683A490BF13007084053
:101EB000EECF0843104340EA032028434FF0B045DB
:101EC00030433843A060286840F080702860A068E4
:101ED00040F08050A060FFF7A9FA0446286880010E
:101EE0003FF57AAEFFF7A2FA011B03200A29F5D9C4
:101EF000CDE5FFF79BFA0546D4F88C0041F2883611
:101F000020F08000C4F88C00D4F88C0000057FF528
:101F10003CAEFFF78BFA411B0320B142F4D9B6E582
:101F2000D7F88C003C4641F2883620F00100C7F813
:101F30008C00D4F88C0080077FF527AEFFF776FA87
:101F4000411B0320B142F4D9A1E5DBF81C00D4F811
:101F5000901021F010010843C4F89000D4F89000CC
:101F600040F00100C4F89000FFF760FA0546D4F88D
:101F7000900080073FF505AEFFF758FA401B112887
:101F8000F5D90320BDE8F88F1000002004000020E0
:101F9000FFFFFEEE8C80C11170470000034850F82F
:101FA00021007047014840F82120704700B10040EF
:101FB000C26A0221012A0FD00163DD49CA22CA6028
:101FC0005322CA600A6842F020020A60FF22CA60F7
:101FD00000210122C16202630846704780B503F008
:101FE00091F90130BDE8804003F098B910B504467E
:101FF00020480168490604D5402181602046FFF74A
:10200000EDFF0120206310BDC26A0221012A14D015
:102010000163C749CA22CA605322CA600A6842F0F3
:1020200080020A60C44A136843F480231360FF22CD
:10203000CA6000210122C16202630846704700BFE6
:1020400004F0B8B970B50B4D04462868616B01EA1D
:102050000006F00704D00120A8602046FFF7F0FF3B
:10206000B00704D50220A8602046FFF795FF0120A5
:10207000206370BD54280040B0B5C36A0222012B12
:1020800031D0AB4BCA240263B1F5807FDC604FF0E6
:102090005304DC606FF4085408BF6FF488541D6863
:1020A000B1F5807F04EA05041C604FF0340408BFDA
:1020B0002C24E55825F00045E55008BF01225A645C
:1020C000B1F5807F4FF0FF02DA604FF000024FF071
:1020D0000103C26203636FF0020308BF6FF00103E4
:1020E000416B194041631046B0BD00BF70B580B36D
:1020F0000446006B20B90020E062204600F03EF864
:102100000220994D2063CA20A8615320A86120466F
:1021100001F012F9D0B9E8681749261D0840E860B7
:102120004ECEA06931430843E9680843E86043EABA
:1021300002406860D4E909012A6822F4F852104389
:1021400008432860204601F019F920B1FF21A96158
:1021500070BD012070BD6069D4E90712EB6823F0FF
:1021600060431A4311430843E860FF20A86101203F
:102170002063002070BD00BFBFFF8FFB10B590B083
:10218000044601A83821FEF738FA2068174988422A
:1021900029D14FF480700E904FF48030019001A847
:1021A000FFF7C8F908B1FEF74CFE11480022816B19
:1021B00041F400418163016841F4806101600021C4
:1021C000006800F480600F900F980220FFF768F914
:1021D0000220FFF757F92A2000210022FFF760F9BB
:1021E0002A20FFF74FF910B010BD00BF00280040B3
:1021F000580000582DE9F84F0D46C16A04460220E8
:10220000012900F0928020630120494FE06257F8D5
:102210000C0C00F4407BBBF5807F01D1002041E035
:10222000EAB16869B0F1803F07D0B0F5000F04D083
:10223000396849065CBF0021E97029786A78AB7873
:10224000EE7840EA0140296A40EA0220184340EA59
:102250008650084395F8241040EA016022E038686F
:10226000DFF8D0A0400659BF4FF0000985F8039071
:10227000E8784FEA80592878D04780466878D04778
:10228000000240EA0848A878D047404440EA0908DC
:1022900095F82400D0472A6A696942EA080242EAAE
:1022A00000600843CA21F9605321F9603968AA6ABD
:1022B000B2F5807F14D121F48851BBF5807F39605D
:1022C0004FF00101796419BFB862A869D5E9060128
:1022D0000843F86268680121B8654FF4885013E03C
:1022E00021F40851BBF5807F39604FF00201796419
:1022F00019BF3863A869D5E906010843786368689F
:102300000221F8654FF408503A68104338600A48D3
:10231000026842F400320260FF20F8600020626B25
:10232000E0621143616301212163BDE8F88F00BFC2
:10233000182800401533000880080058B0B50A4D31
:10234000286820F020002860FFF770F8044628680D
:10235000800607D4FFF76AF8001BB0F57A7FF6D93C
:102360000320B0BD0020B0BD0C280040012904D0DE
:1023700041B9F248816880200847F34881684FF4EA
:1023800080700847704700BFEF48816840200847C9
:102390002DE9F0410446C068012802D1A068012857
:1023A00002D10220BDE8F08101201D4616460F46ED
:1023B000A060204602F04EF9D8490868884620F40B
:1023C00000400860F9B2204602F014F920460021CE
:1023D000002702F00FF9AF4206D22046314602F044
:1023E000D9F801370136F6E7D8F8000040F400408C
:1023F000C8F80000204602F051F900200121A06039
:102400002069E160002818BF0120BDE8F08100BF0D
:102410002DE9F0410446C068012802D1A0680128D6
:1024200002D10220BDE8F08101201E4617460D466C
:10243000A060204602F00EF945F01000E249943801
:10244000B0FA80F0884640092071086820F4004006
:102450000860E9B2204602F0CDF836B117F8011B4A
:10246000204602F0C7F8013EF7E7D8F80000842DB7
:1024700040F40040C8F8000002D0204602F00EF9F7
:1024800000200121A0602069E160002818BF012020
:10249000BDE8F081AC48816820200847AA488168DF
:1024A000102008477CB5044600200DF106021221D9
:1024B0000223ADF806002046FFF76AFF9DF807608B
:1024C0009DF80650F00702D0204600F039F9B00719
:1024D00002D5204600F024F9700702D5204600F00E
:1024E00091F8300702D5204600F024F9F00602D515
:1024F0002046FFF7D3FFB00602D52046FFF7CAFFFC
:10250000700602D52046FFF73FFF300604D505F0E0
:1025100001012046FFF72AFFA80702D5204600F058
:1025200003F90DF10602204602210223FFF770FF96
:102530007CBD0000BCB510B30446C06820B90020C3
:10254000A060204600F046F802201E496423E060A7
:102550001D48425822F4004242501C4A1268C2EB05
:10256000C202C2F34C425A430192019A4AB1019A03
:10257000013A019242585204F7D4002503E00125A4
:102580001DE001252561D0F8881041F40041C0F814
:1025900088100F490A6842F480520A60016841F4C9
:1025A000006101604FF40061016135B9206801F0FC
:1025B000DFFF00202061012020710120E06028461B
:1025C000BCBD00BF8CFCFFFF0804005810000020B9
:1025D00090080058E0B50A480022016841F0010166
:1025E00001600021006800F0010001900198322094
:1025F000FEF756FF3220BDE88C40FEF743BF00BF18
:102600006400005850488168042008472DE9F843C9
:102610000446C068012802D1A068012802D1022026
:10262000BDE8F88301201D4616460F46A0602046EF
:1026300002F010F88649DFF81C820868894620F409
:102640000040086020461E21C04720463946C0474A
:10265000204600210027C047AF4206D2204631461F
:1026600001F098FF01370136F6E7D9F8000040F491
:102670000040C9F80000204602F010F800200121B7
:10268000A0602069E160002818BF0120BDE8F88340
:102690002DE9F8430446C068012802D1A06801284A
:1026A00002D10220BDE8F88301201D4616460F46E0
:1026B000A060204601F0CEFF6549DFF898810868E8
:1026C000894620F40040086020461D21C047390A91
:1026D0002046C047F9B22046C047204600210027C7
:1026E000C047AF4206D22046314601F053FF0137C2
:1026F0000136F6E7D9F8000040F40040C9F80000C0
:10270000204601F0CBFF00200121A0602069E1609C
:10271000002818BF0120BDE8F88300BF90040058CE
:102720000948816802200847074881684FF4007013
:10273000084700BF04488168082008478800002037
:102740000148816801200847880000202DE9F041F8
:102750000446C068012802D1A068012802D10220E5
:10276000BDE8F08101201D4616460F46A0602046B8
:1027700001F070FF36490868884620F40040086080
:1027800020460E2101F036FF2046394601F032FF87
:1027900035B116F8011B204601F02CFF013DF7E78B
:1027A000D8F8000040F40040C8F80000204601F0CE
:1027B00075FF00200121A0602069E160002818BF9A
:1027C0000120BDE8F08100BF900400582DE9F843D6
:1027D0000446C06801281CBF0220BDE8F8830F46EC
:1027E000A1680220012931D0E06001201D46164673
:1027F000A060204601F02EFF1549DFF858800868D8
:10280000894620F40040086020460D21C047390A5F
:102810002046C047F9B22046C04735B116F8011B23
:10282000204601F0E7FE013DF7E7D9F8000040F44B
:102830000040C9F80000204601F030FF00200121CF
:10284000A0602069E160002818BF0120BDE8F8837E
:1028500090040058F5450008D0F88010012901D1F6
:10286000022112E02421C0F8841001680A680B6874
:1028700023F0010322F000520B600A6000212022A5
:102880004166C0F88010C0F8842008467047D0F830
:102890008010012901D102210FE00121C0F8801030
:1028A000016851E8001F026841F0020142E800138C
:1028B000002BF5D10021C0F880100846704710B5F4
:1028C0000446D0F88800202806D1012071B16AB1F1
:1028D000D4F88000012801D1022010BD0120E0665B
:1028E000C4F88000204603F065FB00B110BDE06E27
:1028F00001281CBF012010BD20681021016250E892
:10290000000F216840F0100041E800020AB1206881
:10291000F5E7002010BD00000068044A904200D096
:10292000704703480122427001707047003801402F
:10293000E40000207047B0B50446D0F880000128BC
:1029400004BF0220B0BD2420C4F8840020680568BC
:10295000026822F0010202600122C4F8802082682D
:1029600022F0606211438160204602F0CFFE2068B1
:10297000202105600020C4F88000C4F88410B0BD98
:10298000B0B50446D0F88000012804BF0220B0BDD5
:102990002420C4F8840020680568026822F001023F
:1029A00002600122C4F88020826822F06042114354
:1029B0008160204602F0AAFE2068202105600020E8
:1029C000C4F88000C4F88410B0BDBCB50446D0F88B
:1029D0008000012804BF0220BCBD2420C4F884006C
:1029E0002068036823F0010303604FF00103C4F87B
:1029F0008030836823F4401343EA0103836059B9AC
:102A0000436891B223F0100319434160C2F30741B8
:102A1000426861F31F624260016841F00101016098
:102A2000FEF704FD03466FF07E404FF48001002264
:102A300000250090204603F03BFB08B1032003E093
:102A40002020C4F884000020C4F88050BCBD70472A
:102A500070477047F8B50446006840F62F01C26918
:102A600002EA010501688368202D0ED101F02005DE
:102A700003F08056AD1900F08280216F002900F02C
:102A800068812046BDE8F840084740F60F052A4215
:102A900075D0B04D01EA0506AF4D1D4076196ED0D8
:102AA000D60718BF11F4807607D001260662D4F845
:102AB0008C6046F00106C4F88C6003F001069707AD
:102AC00008D53EB102270762D4F88C7047F004079E
:102AD000C4F88C70570708D53EB104260662D4F8B6
:102AE0008C6046F00206C4F88C6016070BD501F026
:102AF0002006354307D008250562D4F88C5045F0F0
:102B00000805C4F88C5015050BD511F0806508D068
:102B10004FF400650562D4F88C5045F02005C4F8E8
:102B20008C50D4F88C50002D00F0138112F020024C
:102B30001EBF01F0200103F0805211EB020140F0B2
:102B4000F680D4F88C10806801F0280100F0400075
:102B5000401800F0CC80204602F0D6FE2068816844
:102B6000490640F1DF8050E8020F216820F0400064
:102B700041E80202002A00F0CB802068F3E701EA76
:102B80000205EE06E66E39D5012E37D1102101621D
:102B9000816849063FD4B4F85E10B4F85C20B4F8FC
:102BA0005E30002B00F0D580511A0A0401D1D0E02C
:102BB000206850E8000F226820F4907042E800037B
:102BC000002BF5D16648226852E8022F23680240A4
:102BD00043E80225002DF6D12020C4F8880000200B
:102BE0002067E066206850E8000F226820F010009F
:102BF00042E80003002BF5D189B253E0D60256D546
:102C000013F4800653D04FF4801101622046BDE8D2
:102C1000F840FFF71DBFE16F0A6853689DB2002DB1
:102C200000F09780B4F85C108D4280F09280A4F898
:102C30005E301268920631D450E8000F216820F40B
:102C4000807041E800020AB12068F5E7206850E88A
:102C5000020F216820F0010041E80202002AF5D1AC
:102C6000206850E8020F216820F0400041E802028D
:102C7000002AF5D12020C4F888000020E0662068F2
:102C800050E8000F216820F0100041E80002002AFF
:102C9000F5D1E06FFEF7D9F8B4F85C10B4F85E0037
:102CA000081A81B22046BDE8F840FFF735BE160687
:102CB00007D501F0800603F400039B1901D0616F72
:102CC000DCE66B0609D4100239D511F0804036D00D
:102CD0002046BDE8F840FFF7BABE50E8000F216873
:102CE00020F0400041E8000242B12068F5E72046AC
:102CF000FFF7AFFE0020C4F88C00F8BD002060672D
:102D00002020C4F884002046BDE8F84000F066B9F1
:102D1000E06F38B11149C163FEF7CCF8C8B1E06F7C
:102D2000C16BAFE62046BDE8F840FFF792BE216FC9
:102D300000293FF406AF20468847206801E7D0010C
:102D400007D5B1F1FF3F04DC2046BDE8F840FFF7AE
:102D5000F1BDF8BD20010004010000105F5800081B
:102D6000FEFFFFEF10B5B0B10446D0F8840028B9DB
:102D70000020C4F88000204600F040F82420C4F869
:102D800084002068016821F001010160204603F001
:102D90001FF8012801D1012010BDA06A10B1204602
:102DA00002F0D6FC2068416821F4904141608168BE
:102DB00021F02A018160016841F001010160204693
:102DC000BDE8104002F019BD10B504460068E649A0
:102DD000884218BF10BD0848016821F48041016095
:102DE0003348C021FEF7D2F9A06FFEF797F82420F0
:102DF000BDE81040FEF734BB6000005870B594B0D9
:102E000004460EA81421FDF7F8FB68463821FDF7AB
:102E1000F4FB2068D449884248D14FF440300190F7
:102E2000012000906846FEF785FB08B1FEF709F81F
:102E30007B480026416941F480414161416901F4C8
:102E4000804113911399016841F0020101600EA9BC
:102E5000006800F002001390072012900220CDE9D4
:102E600010660F90C0200E9013981148FEF710FACC
:102E7000104D114B122280201021C5E90032C5E906
:102E80000216C5E904062846C5E906662E62FEF765
:102E9000D9F808B1FDF7D5FF242000210022EC620B
:102EA000A567FEF7FDFA2420FEF7ECFA14B070BD1A
:102EB000000400482806002008000240B0B5D0F801
:102EC0008830202B06D1012329B122B1D0F88030DF
:102ED000012B02D102231846B0BD00230C4CC3665F
:102EE0000123C0F880300368A34202D05C6824024A
:102EF00003D403F05FF80023EDE753E8003F0468D4
:102F000043F0806344E80035002DF2D00368F4E715
:102F10000080004010B504460848436833B1D4F837
:102F20008C0018B905480121002298470349204622
:102F30000122BDE81040FFF7C1BF00BF80000020A4
:102F4000F8B50446D0F88400202806D161B31346B2
:102F500052B3D4F88000012801D10220F8BD002529
:102F60000120A4F85630C4F88C50C4F88000212009
:102F7000A4F854302165C4F88400A06FB0B1144A9D
:102F8000144E154FC0E90C76C0E90E252268283290
:102F9000FEF7B6F850B11020C4F88C000020C4F839
:102FA00080002020C4F884000120F8BD2068402162
:102FB000C4F88050016250E8020F216840F08000A0
:102FC00041E802020AB12068F5E70020F8BD00BF21
:102FD0006F58000803590008C558000801480168E7
:102FE00000200847240600207047FEE781B005490D
:102FF0000A6802430A60096808400090009801B01E
:10300000704700BF4800005881B005490A68024374
:103010000A60096808400090009801B0704700BF3E
:103020004C000058064A6FF47F2161EA101100F449
:103030007F401368194041EA00101060704700BFDC
:103040008800005880B50420FFF7D0FF0120FFF76B
:10305000CDFF0B2000210022FEF722FA0B20BDE855
:103060008040FEF70FBA000080B58CB001A82C217B
:10307000FDF7C3FAA64800224FF480714FF0804359
:10308000C0E90422C0E90623C0E908211F218160AC
:1030900010490160FFF72AF808B1FDF7D2FE9C48FD
:1030A000FEF7B2FF08B1FDF7CCFE4FF4807001A926
:1030B00000220B904FF000500790002006900290E5
:1030C00008909348FFF796F808B1FDF7BAFE0CB0E8
:1030D00080BD00BF0028004080B505480821016080
:1030E000FFF728FA18B1BDE88040FDF7AABE80BD01
:1030F000C806002080B502F091F8BDE8804001F0DC
:10310000B9BF000010B5174C174B4FF4E1320C203B
:103110000021C4E90032C4E90211C4E9041004F139
:1031200018001421FDF769FA2046FFF71BFE08B1CD
:10313000FDF787FE0B480021FFF722FC08B1FDF7E1
:1031400080FE08480021FFF7F6FB08B1FDF779FE85
:103150000448FFF781FB18B1BDE81040FDF771BED0
:1031600010BD00BFDC06002000380140FEE7FEE78E
:10317000B0B505460B480C46FF21FDF73EFA0A485C
:10318000FF2C048004D8074829462246FDF7F0F9B1
:103190000448214603F08CF85648416B0020BDE8F6
:1031A000B040084768030020840500205148416B67
:1031B000002008474F48416B00200847484801213C
:1031C0000170704770477047FDF702BDFDF730BDD5
:1031D000FDF730BDFDF76EBDFDF76EBD70B53C214E
:1031E000244A01EA9000214908582149096801F060
:1031F0000F0152F82110B0FBF1F03D49B0FBF1F4A2
:10320000FEF78AF9B0F5007F09D11D490020032897
:103210000FD031F8102094420DD90130F7E716494C
:103220000020032805D031F81020944203D9013042
:10323000F7E7002502E0114951F82050114E30689F
:1032400020F0070028433060FEF7F0F804463068AD
:1032500000F00700A84206D0FEF7E8F8001B03289C
:10326000F5D3032070BD002070BD00BFFC6A0008CC
:1032700008010058E0690008CE690008D469000818
:10328000C869000800400058704770474FF0FF3091
:10329000704700207047002070474FF0FF307047A4
:1032A0004FF0FF3070477047704770474FF0FF3066
:1032B00070474FF0FF307047B0B5094C0D4D0022FC
:1032C000C9B22270AA6A9047207818B90120FDF788
:1032D00057FFF9E7696B0020BDE8B040084700BF21
:1032E0006C070020024948430249C968084700BFEB
:1032F00040420F003C6B000880B540B201F03AFD3F
:10330000DE4981F8940080BD0148FEF79BBE00BFF6
:103310008C06002001460A22092898BF0921B1FB2A
:10332000F2F202EB8203A1EB4303591A084440EA8C
:103330000210C0B270470000F8B50F4F044638685D
:10334000400616D43868002540F080003860FEF74B
:103350006DF806463868032D0CD010F0400009D1F6
:10336000FEF764F8801BB0F57A7FF3D90325256357
:10337000F0E700252846F8BD0C280040B0B5114DF7
:10338000044655F80C0C20F0800045F80C0C286819
:10339000800607D4FEF7D2FF00280EBF00200320CE
:1033A0002063B0BD286820F020002860FEF7C6FF2B
:1033B00010B10320206300E00020296841F02001C3
:1033C0002960B0BD182800400120704780B501F089
:1033D0001FFA043803288EBF002002A151F82000F4
:1033E00080BD00BF020000000100000000000000DE
:1033F0000300000080B501F05FFA033080BD0000DB
:103400007CB5E24ED84900253446C1E902550D711C
:1034100001C41A4801F0ACFA002000F057FB01F09B
:1034200080FC0020002101F01AFB01200021042271
:1034300001F084FD4FF6FF704FF6FF71002200236C
:1034400001F046FB00F092FF0D4B20464FF0FF319C
:103450000022009502F07AFF009506F12005094B45
:103460004FF0FF310022284602F070FF204603F0A3
:1034700035F82846BDE87C4003F030B85D370008D9
:103480007D3700086D3700087CB57C4C00208DF836
:1034900007000090D4F89000411E07292BD910286E
:1034A00000F08680202800F08580402800F0998078
:1034B000802800F0A680B0F5807F00F0AC80B0F5E9
:1034C000007F40F0C4807FA302200021012202F08F
:1034D0005FFE01F09DF9042840F0A8806C4C201D8F
:1034E00002F0FCFF002001F0BBFC2068002800F087
:1034F000AE804068A9E0DFE801F00417AA4CAAAA50
:10350000AA4E634C201D02F0E9FF002001F0A8FC48
:10351000FFF7C1FE012808BFFFF7B7FE20680028AB
:1035200000F09580006890E0594D05F1200002F010
:10353000D5FF207988B9002001F092FC40F60210F6
:10354000002101F077FD40F6441001F061FA40F0EF
:10355000020140F6441001F06DFD5F480DF10701D6
:10356000FF2201F091F904F1500001F055F92868AB
:1035700000286CD08668002E69D0206D012867D1A4
:1035800094F95D3094F95C209DF807105248B047DB
:103590007CBD49A31FE045A302200021012202F0C7
:1035A000F7FDFFF776FE012851D1FFF77CFE7CBDC9
:1035B0003BA310E0364D05F1200002F08FFF20798B
:1035C00010B9002001F04CFC286800283FD0C068EA
:1035D000E8B380472FA302200021012202F0D8FD8A
:1035E0007CBD27A302200021012202F0D1FD207919
:1035F00010B9002001F034FC2548006838B3006998
:1036000023E0002001F02CFC21480068F8B181691A
:10361000E9B1002008E0002001F022FC1C4800680D
:10362000A8B1816999B1012088477CBD01F0F0F80B
:1036300005280CD1164C04F1200002F04FFF0020A9
:1036400001F00EFC206810B1C06800B180477CBD5D
:10365000A06E694601F08CF800984FF47A7194F9E5
:10366000552000F5FA7090FBF1F09DF8071043B279
:1036700028688468ED48A0477CBD00BF880500200D
:103680004952515F4352435F4552524F520D0A0017
:10369000A0000020484452204B4F0D0A00000000BB
:1036A000484452204F4B0D0A0000000053594E432E
:1036B000204F4B0D0A000000505245204F4B0D0A81
:1036C000000000004952515F52585F54585F5449FE
:1036D0004D454F55540D0A00670400202DE9F04177
:1036E0008AB01C4615468846074600F048FE002072
:1036F000002600F0C3F9384601F022FB01204146C4
:103700004FF416720023CDE908600320CDE9008054
:103710000020CDE90266CDE90466CDE9066600F039
:10372000F1F9002000F04AF8FFF764FEFDF728FDEC
:1037300002F026FE0646304602F02CFEA04205D2DC
:1037400001F0EEF8A842F6DD002400E0012400F0CC
:1037500016FE20460AB0BDE8F0810000E849C1F835
:103760009000FFF791BE00BF88050020B7480068B1
:1037700010B1C06800B10047704700BFB34800688F
:1037800010B1406800B10047704700BFA0000020A2
:1037900080B5012000F072F90020002100220023F2
:1037A00001F096F9BDE8804001F088B801F030B929
:1037B00001F03AB980B501F0B3F880BDB0B5044668
:1037C000FFF767FD012802D1FFF767FD07E040F230
:1037D000622040F262210022002301F079F94CB10D
:1037E0009A48214600F12005284602F029FE284685
:1037F00002F03EFEC24C002194F8940001F04CFB14
:1038000021796FF07F40E268002908BF9001BDE890
:10381000B04001F0C3BA00BFB0B50446FFF739FDB0
:10382000012802D1FFF739FD07E040F2622040F2A3
:1038300062210022002301F04BF94CB1834821465C
:1038400000F12005284602F0FBFD284602F010FE9C
:10385000AB4C002194F8940001F01EFB21796FF02D
:103860007F40E268002908BF9001BDE8B04001F048
:10387000A9BA00BF2DE9F84F8B46814640F20120DE
:1038800040F201210022002301F022F9DFF89881A3
:10389000012198F8940001F0FFFAD8F80000D8F858
:1038A000841081F0060180F0010040EA010640F634
:1038B000890001F0ADF840F00401002E08BF00F0CF
:1038C000FB0140F6890001F0B5FBD8F800000328A1
:1038D00000F29280DFE800F002171A21FFF7D9FC0E
:1038E00001287ED10DF1030248465946FFF7DEFC60
:1038F000002800F08D804FA302200021012202F059
:1039000047FCBDE8F88F88F844B06CE002214046DF
:1039100040F8141F80F824B067E0444800215A465C
:103920004B463AB11E78013AF64303F8016B00F8B2
:10393000011BF6E73D4E4FEACB070020072100228E
:10394000974215D0C2F3C70421EA0203013219F8E5
:10395000044024FA03F321EA020403F0010358406F
:10396000C3B2A340C2F3C704355D2B433355E7E729
:10397000C10145460BF1010941EA8011C0B2B0FA1C
:1039800080F0400941EA401006F80B00022045F89B
:10399000140F284685F8249001F048F9DFF890A02C
:1039A000F1200021D047F0200021D0476C6EE121AA
:1039B000F320642C08BF7021D0470421F220642C2E
:1039C00008BF1D21D0474FEA5B11F420D047B81C37
:1039D000C1B2F520D0475FFA89F130466FF07F42DF
:1039E00008E088F82CB008F1140001F01FF94846EF
:1039F0005946002201F02AF81448D8F80810041D8E
:103A0000204602F01DFD204602F032FDBDE8F88F91
:103A10009DF8030088F82C0008F1140001F006F965
:103A20009DF803104846E4E788050020670400205D
:103A300035500008526164696F53656E64204F769B
:103A4000657273697A650D0A00000000A00000200D
:103A500001F076B9E24A012802D102F1440005E002
:103A6000906A012818BF704702F12C000170D048FD
:103A7000017002F1140001F0D9B800BFB0B5D84D03
:103A800004462860FFF711FC601E032809D8DFE810
:103A900000F00E020208022001F02CF900206874E8
:103AA000B0BD0020002401F025F96C74B0BD0120E8
:103AB00001F020F9287C697C8142F7D068740028E5
:103AC00018BF0120BDE8B040AFF3008010B5044638
:103AD000C348447404740120FFF7D0FF14214FF44D
:103AE000E860002C18BF342101F0A4FA2421002C36
:103AF00040F2417018BF4421BDE8104001F09ABA6D
:103B0000880500202DE9F04F85B0DDE91187DFF849
:103B100024BA179C9A4691460D4606468BF80440F7
:103B2000B8F1000F08BF4FF0FF37FFF7ADFBA0491A
:103B30001098002C0F9A0F7018BF0020002E73D021
:103B4000012E00F0C780042E40F02E81009001204D
:103B50004FF0010A0C46904601F094F94FF4487179
:103B6000092000275E46CBE91A91CBF87000284661
:103B700046F8647F00F03AFE5D4645F8147F85F80C
:103B800060001020C5E90477AF6028734FEAC800D1
:103B9000A8802078C5E907A728760420FFF76EFFE4
:103BA000304600F0CDFF284601F040F842F2B270F6
:103BB000CDF80E70ADF81270ADF80C0003A801F04E
:103BC00081F940F2FF1001F0F9F97B4E40F6B800A0
:103BD000B0477A4D00F0EF0140F6B800A84740F634
:103BE000B9000421A84740F69B00B04700F0E3006D
:103BF00000F1080140F69B00A84740F2D160B047B1
:103C000040F0180140F2D160A84740F2AC60B047E4
:103C100000F08F0000F1500140F2AC60A84700991D
:103C20004FF4FA50484352E00446002000279246E1
:103C300001F028F90B205E46CBF86890CBF87000B5
:103C4000284646F8647F00F0D1FD5D46139945F89B
:103C5000147F85F8600088F0010000294FF0010111
:103C6000C5E904704FF0180028734FF00400A860F5
:103C70004FEACA00A8804FF0010018BFF221C5E941
:103C800007104B480078287600F079FB3068002850
:103C900018BF0120FFF7F2FE304600F051FF284622
:103CA00000F0C4FFC120CDF807708DF80B708DF8BF
:103CB000060049F2C140ADF8040001A801F002F984
:103CC00040F2FF1001F07AF94FF4FA506043B0FB74
:103CD000F9F067E0009000205F464FF0000B1446BB
:103CE00001F0D0F8334901203E460C2CA9F1050221
:103CF00085F0010346F8640F51F82510C6E90791D5
:103D00002146C6F824A046F8248C98BF0C21022A2C
:103D100089F00C0228BF214626F8281C1A43344695
:103D20001399B2FA82F2520946F81C1C169946F809
:103D3000181C1F49097806F8201CA9F10B0102295B
:103D4000B5FA85F138BF4FF0010B44F8500D490921
:103D500001EA0B01BB46114386F8281000F00FFB67
:103D60003068002818BF0120FFF788FE304600F0B9
:103D7000E7FE204600F05AFF0098C0B200F0C3FEF4
:103D800056F8184C40F2367000F042FE40F0040144
:103D9000012C08BF00F0FB0140F2367001F04AF937
:103DA0004FF6FF70CBF80C0005B0BDE8F08F00BFF8
:103DB0000C000020406A0008114A00083550000835
:103DC000B0B50546E8480C46002190F8940001F093
:103DD00063F828462146BDE8B04001F00DB800BFA9
:103DE000880500202DE9F04387B000279846144647
:103DF0000D460646CDE90477FFF746FADFF834971B
:103E0000002C18BF012489F8044018BFB846012EC1
:103E100017D0002E40F0C080E868002800F0BA807B
:103E20002869002800F0B680287E082800F2B280B9
:103E3000002104AA884229D0EB695B5C535401310C
:103E4000F8E7B5F85000002800F0A480686D01285C
:103E50000CBF2C6AFF24E86B002818BF012001F07A
:103E600011F85FFA88F000F04EFE012005F14003E2
:103E700009F18006C9F86400E96C0DCB0DC679B371
:103E800002292FD0012935D1012031E028680028EE
:103E900018BF012000F0F6FF0024C9F86440D5E9FE
:103EA0000110EA68C9F86820C9F8701000F09EFC9B
:103EB00089F87400C9F814406869C9F81C00D5E98C
:103EC0000A10C9F82410298A4FEAC101A9F818106C
:103ED000297E4FEAC10189F82010E8B3FF213CE0B8
:103EE000002005E0A0F10B010020022938BF0120CD
:103EF00089F88C00012049F8140FB5F8500089F8B2
:103F00003040A9F82800686DD5E91712C9F82C00CF
:103F1000C9E90D1200F033FA0120FFF7AFFD09F1F6
:103F2000500000F00DFE484600F080FED9F8384001
:103F300040F2367000F06CFD40F00401012C08BF27
:103F400000F0FB0140F2367001F074F84FF6FF709C
:103F5000002749F8080C1FE0296A89F82C10296B02
:103F6000022807D0AA6B022A04D0C9E90C12C9F8AA
:103F700028001AE0A1F1F100022801D3012909D19A
:103F8000F94A002401A80295039452F8201BFFF778
:103F90007DF928B14FF0FF37384607B0BDE8F08310
:103FA0000120C9E90C04C9F8284000F0E8F9002014
:103FB0000027FFF763FD09F1640000F0C1FD09F17E
:103FC000140000F033FE04A800F07CFFA88C00F081
:103FD000F5FFA88E00F05AFD4FF4FA50E96808FB8F
:103FE00000F0B0FBF1F0C9F80C00D5E72DE9FE4F69
:103FF0001D46174688460446FFF746F9149EDDF82D
:1040000030A0032C51D0DDF84090DDE90EB1012C39
:1040100058D0002C40F09D80E44E0B20306728469D
:10402000C6F868A04FF0000A34460D4644F864AF65
:1040300000F0DCFB46F814AF0121B9F1000F86F85F
:1040400060004FF00100B76518BFF221C6E9071004
:1040500085F00100C6E904A0182030730420B06088
:104060004FEACB00B08000F08AF92068002818BF22
:104070000120FFF703FD204600F062FD3046149E4C
:1040800000F0D4FDC120CDF807A08DF80BA08DF86D
:10409000060049F2C140ADF8040001A800F012FF8B
:1040A00040F2FF1000F08AFF53E00320FFF7E6FC28
:1040B000BE48022140F8641F1621C0E905A100F0A6
:1040C0003FFD46E0294B3746B84E0120139C0D9A20
:1040D000BBF10C0F53F8253046F8140FC6E91BA3AB
:1040E000F16223497267C6E90D94AAF1050285F0D1
:1040F00001033446097886F83010594698BF0C21E0
:10410000022A4FF0000228BF59463185AAF10B015F
:104110000229B5FA85F138BF012244F8500F490948
:1041200011408AF00C021A43B2FA82F2520911438A
:1041300086F8781000F023F92068002818BF0120C5
:10414000FFF79CFC204600F0FBFC30463E4600F0AA
:104150006DFD404600F00EFEF64C84F89400FFF72B
:10416000A3F8A660BDE8FE8F88050020406A00081D
:104170000C000020B0B514460D4600F0E1FD2846C5
:1041800000F0F8FD012100F087FE4FF47A704443FF
:1041900000F0CAFE74482146051D284602F050F979
:1041A0002846BDE8B04002F063B900BF2DE9F041F8
:1041B00086B0074600201C4615460E46CDE9040091
:1041C000FFF762F8022F13D0012F19D0002F68D10A
:1041D000B06890B1316981B1317D08290DD80022D4
:1041E00004AB91426AD0B769BF5C9F540132F8E7D3
:1041F000306D0138C0087C2814D94FF0FF305AE0E8
:10420000CC4F012006F13003786607F1800CF16B8A
:104210000DCBACE80D0099B1022913D0012919D1B9
:10422000012015E002200227FFF728FCC1481621D3
:1042300040F8647F8161316D416100F081FC30E0C4
:10424000002005E0A0F10B010020022938BF012069
:1042500087F88C00012006F1440247F8140FB6F8E5
:104260004000388507CAF862C7E90D1200F087F8E8
:104270000120FFF703FC07F1500000F061FC384615
:1042800000F0D4FC3E6F40F6890000F0C1FB062E22
:104290000CBF00F0FB0140F0040140F6890000F083
:1042A000C9FE284600F066FDA24D85F89400FEF791
:1042B000FBFF0020AC6006B0BDE8F0819D4F4FF0E1
:1042C0000008C7E91980D6E90010396700F08EFAB6
:1042D00087F874000420C7F81480C7F82480F861B8
:1042E000F068F866308AC0003883307DC00087F8F7
:1042F0002000F06A022802D0316A022919D1706ABE
:10430000A0F1F101022902D301287FF476AF164A09
:104310004FF0010801A80196CDF80C8002CAFEF703
:10432000B5FF00287FF469AF0020C7E90C80B862B0
:1043300003E07863B962706A386300F020F8002007
:10434000FFF79CFB07F1640000F0FAFB07F1140093
:1043500000F06CFC04A800F0B5FDB08B00F02EFE60
:10436000308D00F093FB9CE7A000002080B5042076
:1043700000F05EFD0220BDE88040FCF701BF002098
:1043800000F06EBD80B56B48002190F8940000F0FD
:1043900083FD4FF4C0704FF4C0710022002300F081
:1043A00097FBBDE8804000F067BB00BF8805002098
:1043B0002DE9F0410DF1180E002401289EE860500F
:1043C00014D0002840F071800CEB0500BEF1000F06
:1043D0004FF0200118BF0230002E18BF182101EB4A
:1043E000C0004FF47A7100FB01F45FE00C2D4FF038
:1043F0000000A2F1050703F1040838BF0120022FD5
:1044000038BF0124044019B9A2F10B03022B05D3D4
:1044100001294FF0000308BF0C2A00D10123142703
:10442000002E4FEA820018BF0027A7EB8206BEF1DC
:10443000000F18BF1036072A6FF0070706EBCC06EF
:1044400028BF0836002B18BF07EB8200072A38BFA9
:1044500090000346002EC8BF3344013B072AA2F157
:10446000020293FBF0F04FF00C0338BF0E23002C38
:1044700018BF0C252B4400FB083080000130904011
:104480004FF47A7200FB02F41748002250F8210022
:104490000A280BD8DFE800F006101316191B1D0AB6
:1044A0001F22250041F6846200E00122A018013895
:1044B000B0FBF2F0BDE8F08143F60952F6E747F6AB
:1044C0001222F3E74FF22442F0E70A4AEEE7084AE5
:1044D000ECE7064AEAE742F6B102E7E745F2611285
:1044E000E4E74AF2C322E1E7406A000820A107009E
:1044F00090D0030048E8010080B500F03BFC0121AA
:1045000000F0CAFCBDE8804000F00EBD80B509484F
:10451000012190F8940000F0BFFC4FF4D7602D21EA
:1045200000F088FD00F005FD0348BDE8804000F084
:10453000E5BC00BF88050020FFFF0F0000F07ABD3A
:1045400000F084BD10B50446FEF744FE012818BFF4
:1045500010BD40F6231000F05BFA00F0F90040EACD
:10456000040140F62310BDE8104000F063BD0000D8
:10457000074940F441700A6822F040020A6008606E
:104580004FF4B8504860086840F040000860704739
:1045900000000158B8B5504C64232268C2EBC20237
:1045A000C2F34C425A432A4B0092009A3AB1009A05
:1045B000013A00921A689207F7D5002201E0012221
:1045C0000261FF251D7164252468C4EBC404C4F393
:1045D0004C446C430094009C34B1009C013C00941A
:1045E0001C68E407F7D001E00122026158680870F6
:1045F0001046B8BD18B5384C64232268C2EBC2021D
:10460000C2F34C425A43124B0092009A3AB1009ABC
:10461000013A00921A689207F7D5002201E00122C0
:104620000261197121686424C1EBC101C1F34C41DD
:1046300061430091009931B10099013900911968E5
:10464000C907F7D001E0012202615868104618BD81
:104650000800015881B00179012915D11E49096866
:1046600001EB4101C1F34F31009109490A6822F47D
:1046700000420A60009A013A0092009A002AF9D199
:104680000A6842F400420A6001B000F007B800BFB7
:1046900090040058EC48FDF705BF00BF81B00E49FB
:1046A0006422096801EB4101C1F34B415143009180
:1046B0000A490A68009B53B1009B9208013B009392
:1046C0000B6802EA5302D207F3D1002002E0022174
:1046D0000161012001B0704710000020140400584F
:1046E000E0B500F07F000DF1070101228DF8070011
:1046F000892000F08FFC8CBDE0B51849884204D3B6
:10470000E1208DF80600E9201EE01549884204D317
:10471000D7208DF80600DB2016E01249884204D32A
:10472000C1208DF80600C5200EE00F49884204D351
:1047300075208DF80600812006E00C49884205D3DB
:104740006B208DF806006F208DF807000DF1060133
:104750009820022200F05EFC8CBD00BF01E9A43568
:1047600081F8A9328144E52D010B6B1B41FC5419E2
:104770002DE9F843194C814640F607008846A047CA
:1047800006464FF4D660A047074600F00F0540F2FA
:10479000B160A0473A0740EA052011494FF00103F4
:1047A00048BF0843C6F3C1010EA2515C06F00702E0
:1047B000013A91400C4AB2FBF1F1B1FBF9F2082A3F
:1047C00038BF02235A43042A38BF042359434909F6
:1047D0004843C011C8F80000BDE8F883114A00083A
:1047E00000F0FFFF04080A0C0048E80160B1074A26
:1047F0000021B02907D0535808318342F9D9501805
:1048000010F8040C7047FEE71F2070474C6A000840
:10481000AE48C068704700BF1CB504460DF10501E5
:104820001420032200F0E4F8F64801690129216010
:1048300010D009BB9DF805009DF806109DF80720D3
:1048400020710020A06048424008A07150424008FA
:1048500060711CBD40689DF8071020619DF805003F
:104860004042400820739DF90600023080086073C2
:1048700048424008A0731CBD20460021142201F0CC
:104880005DFD0F2020601CBD7CB50E460446002057
:104890000DF1070115468DF80700304600F04CF881
:1048A0003278AA4284BF01207CBD9DF807002146D2
:1048B00000F08EF800207CBD012070477CB5002000
:1048C000019040F6E20000F0A3F8144E044600F018
:1048D000FE0140F6E200B04740F6E50000F098F82F
:1048E000054600F07F0140F6E500B0476FF07F40DD
:1048F00000F054FA01A940F61900042200F094F8DF
:10490000002000F0ADFA40F6E2002146B04740F644
:10491000E5002946B04701987CBD00BF355000082E
:10492000E0B50DF107011520012200F061F89DF8B6
:104930000700404240108CBDBCB50C4605460DF149
:1049400006011320022200F053F8F2480169012900
:1049500007D14069012804D140F2027000F058F8F4
:1049600001E09DF8060028709DF807002070BCBD8E
:1049700010B508B1E7498860FEF7AEFB0220FFF7EB
:10498000E1FDE44C00202070002000F069FAFEF701
:1049900023FC01280CD10120402100F09CFA40F6B4
:1049A0001110002100F046FB7F20FFF799FE09E07F
:1049B00040F61110202100F03DFB40F6121020219E
:1049C00000F038FBFEF704FC0120E06010BD00BFE2
:1049D00010B513460A460146EFF31084EFF310803A
:1049E00072B61948FDF712FE84F3108810BD00BF9F
:1049F00010B513460A460146EFF31084EFF310801A
:104A000072B61148FDF7C4FC84F3108810BD00BFD6
:104A1000E0B501460C480DF107020123FDF738FE11
:104A20009DF807008CBD00BF10B513460A4601462D
:104A3000EFF31084EFF3108072B60348FDF728FE01
:104A400084F3108810BD00BFC806002010B51446BE
:104A500000F062F92046BDE8104000F04FBAE0B522
:104A60008DF807108DF806000DF106018F20022247
:104A700000F0D0FA8CBD000080B5C52000210022D6
:104A800000F0C8FAF5480721C16080BDE0B540BA22
:104A9000ADF80600F148006900B18CBD0DF10601CA
:104AA00040F2BE60022200F0D1FA8CBDE0B540BAFF
:104AB000ADF80600F248006900B18CBD0DF10601A9
:104AC00040F2BC60022200F0C1FA8CBD88000020D8
:104AD000E0B58DF80520120A8DF80310090A8DF84B
:104AE0000100000A8DF807301B0A8DF804208DF8AC
:104AF00002108DF800006946082008228DF8063063
:104B000000F088FA8CBDE0B58DF807000DF10701C3
:104B1000A020012200F07EFA9DF8070040280ED365
:104B200041080020CAB2202A02D301309108F9E7D7
:104B300000EBC100C1B240F2067000F07BFA8CBD00
:104B40001CB5F84904460020CDE900002068096939
:104B5000814202D000F0CEF82168032951D8DFE865
:104B600001F002243339221D002307CA8DF80320E7
:104B7000227C8DF80420244AB2FBF0F0020A8DF862
:104B80000200000C8DF80120794A8DF800004806DB
:104B9000C909FBF747FB010A8DF80700000C082242
:104BA0008DF806108DF8050027E004F11C0207CAF5
:104BB0008DF802208DF8011004228DF8000094F881
:104BC00028008DF8030018E0D4E9050104228DF8CF
:104BD000031007E0E168606805228DF80310217C6E
:104BE0008DF804100849B1FBF0F0010A8DF80200BD
:104BF000000C8DF801108DF8000069468B2000F044
:104C000009FA1CBD880000200000093DE0B58DF8C0
:104C100006208DF805108DF8040001A995200422C6
:104C20008DF8073000F0F6F98CBD0000BFB50446E2
:104C30000020EF4D8DF80C00CDE9010020682969B6
:104C4000814202D000F056F82168032950D8DFE8ED
:104C500001F002112202E069F22822D0F12829D1C4
:104C60004FF6FF70FFF722FF48F20500FFF70EFF37
:104C700002201FE0E06A062268618DF8060094F8C1
:104C800030008DF80700D4E90D018DF80800208D63
:104C90008DF8091024E094F8240001228DF8040016
:104CA00022E041F60F50FFF701FF41F22100FFF72C
:104CB000EDFE06208DF80B00A06809228DF8060095
:104CC000207B8DF80700D4E904018DF80800207ED0
:104CD0008DF809108DF80A00206A8DF80C00A08864
:104CE00000BA000CADF8040001A98C2000F092F984
:104CF000BFBD00BFE0B5BE490190086120B940F2D8
:104D0000AC60002100F096F901A98A20012200F090
:104D100081F98CBD880000200A460146002000F081
:104D200069B9E0B5FEF756FA013801A90122B0FAD7
:104D300080F040090190962000F06CF98CBD0000D5
:104D4000BCB5AB4D0446287820B92046FFF7D4FC0B
:104D500001202870064A6006E1090023FBF762FA89
:104D600000BA01A904220190862000F053F9BCBDCD
:104D70000048E801B0B50446FEF728FA022805D03D
:104D8000012520B90F2CC8BF022500E002252846C6
:104D90002146022200F0D2F82846B0BDE0B5944981
:104DA00005228DF80700CA60010A000C03228DF865
:104DB00006108DF805000DF10501822000F02AF99A
:104DC0008CBD00BF1CB5044689480521C16040F672
:104DD000AC00972100F02EF9200A0DF10501032205
:104DE0008DF807408DF80600200C8DF80500822014
:104DF00000F010F91CBD00BF1CB50A0A8DF80710A1
:104E0000090C8DF8040006248DF80510010A000C29
:104E10008DF8062006228DF803108DF802000DF1A2
:104E20000201942000F0F6F87148C4601CBD00BF78
:104E3000BCB5044600200025FEF7C6F90220FFF7A6
:104E400081FB04F007000DF1070101228DF8070036
:104E5000842000F0DFF86648C560BCBD88000020F3
:104E6000E0B5019001A98020012200F0D3F801995A
:104E7000022000295E4908BF0120C8608CBD00BF28
:104E800088000020E0B58DF807000DF107019F2094
:104E9000012200F0BFF88CBD012908D110B50446ED
:104EA000012807D10420FFF74DFB022003E0012079
:104EB000FEF78AB90120022C08BF0320BDE810408C
:104EC000FEF782B980B501464FF4D860082200F0A1
:104ED000BDF8002080BDE0B500F007008DF8071098
:104EE00004228DF80400080A8DF80600080C01A9B8
:104EF0008DF80500972000F08DF88CBDE0B53C4999
:104F000004228DF80700CA60010A000C03228DF804
:104F100006108DF805000DF10501832000F07AF8E8
:104F20008CBD00BF88000020D1200021002200F0AD
:104F300071B8D2200021002200F06CB8BCB5144634
:104F40000D46012812D104200021012201230F2D3A
:104F500008BF0620FFF75AFE15F1110FD8BF6FF0FA
:104F6000100518210E2DA8BF0E2518E040F6D80018
:104F7000FFF74EFD40F01E0140F6D80000F05AF851
:104F80000420072100220123FFF740FE15F1090F3D
:104F9000D8BF6FF008053821162DA8BF162540F69A
:104FA000E70000F047F80DF106018E2002228DF88F
:104FB00007408DF8065000F02DF8BCBD10B5044632
:104FC0000B48006900B110BD4FF4D760FFF720FD1A
:104FD000C4F3002100F0FE0001444FF4D76000F05C
:104FE00029F8E1B240F2B960BDE8104000F022B803
:104FF0008800002010B513460A460146EFF31084DE
:10500000EFF3108072B61948FDF7A0FB84F3108807
:1050100010BD00BF10B513460A460146EFF31084D9
:10502000EFF3108072B61148FDF7F2F984F310889F
:1050300010BD00BFE0B503460C488DF807100DF118
:10504000070219460123FDF7C1FB8CBD10B51346BD
:105050000A460146EFF31084EFF3108072B603485E
:10506000FDF7B4FB84F3108810BD00BFC806002014
:10507000704700002DE9F0478AB0DFF8D4A02E4831
:105080002E492F4A314D304C2E4BC0E90025C0E946
:105090000214DAF80010DAF80C50DAE90689036134
:1050A00088472C48A847314D2BA30220002100221D
:1050B0000026A8472EA3022000210022A8477D2019
:1050C00030A30021002200900220A8470B2732A322
:1050D0000220002100220097A84740F6B8300125A1
:1050E000082416210022002308900120CDE9007534
:1050F000CDE90246CDE90456CDE90666C84705204C
:10510000CDE90865CDE9006400210B220123CDE93A
:1051100002060120CDE90465CDE90666C047DAF84C
:1051200054200120FF219047DAF8341000200AB003
:10513000BDE8F047084700BF68050020713100084E
:10514000BD310008AD310008B5310008C531000897
:105150003C6B000880A1031C2D2D2D2D2D2D2D2DF8
:105160002D2D2D2D2D2D2D0A0D00000091610008F3
:105170004C4F52415F4D4F44554C4154494F4E0A9C
:105180000D0000004C4F52415F42573D2564206B9B
:10519000487A0A0D000000004C4F52415F53463DD3
:1051A00025640A0D000000007047000010B5194486
:1051B000029B0024C0E90014064C13FA82F2130487
:1051C0008280A34204DBA2F57A7201318280016001
:1051D00010BD00BF0100E70370B586B00E4904465C
:1051E0000020CDE9040004A84E68D1E90351043041
:1051F00088470490A8470546B0470146DDE90430DA
:10520000AAB2009002A8FFF7D1FFDDE90201C4E9CC
:10521000000106B070BD00BFD86B000880B509481A
:10522000016821F40041016001F004F9FBF7A0FDE1
:1052300001F01CF8044801F037F80220BDE8804076
:1052400001F05EB808000058E956000870B59AB041
:1052500008AC1C2104F11000FBF7CFF902A81821BB
:10526000FBF7CBF9FCF75EF921482249032600251C
:105270000A5822F018020A500122086862F34A20F4
:105280000860086800F4C0600190812014960A95B7
:105290000B904FF480300990052008904FF0C040EB
:1052A00019904FF4003017900C2016901020159094
:1052B0000220139001984FF0007018902046FCF7E0
:1052C00087FB18B1EFF3108072B6FEE74F20CDE9EF
:1052D00003650221029002A8CDE905550795FCF768
:1052E000F7F918B1EFF3108072B6FEE71AB070BD8F
:1052F00090FCFFFF00040058704700006848FCF76E
:1053000075BE00BF66480221FCF748BE6448002114
:10531000FCF744BE62480121FCF740BE02466048EB
:105320000221FCF73FBE00BF02465D480021FCF7AA
:1053300039BE00BF02465A480121FCF733BE00BF08
:105340004FF47A71A0FB0101800A40EA8150704756
:1053500080B58202810D002310464FF47A72FAF76D
:1053600061FF80BD80B58202810D002310464FF49D
:105370007A72FAF757FF2D490A680B68D31A8342ED
:1053800028BF80BD00BFF8E70320704770B5044612
:1053900026484FF47A71056840F2FF30A84348432D
:1053A000860AFFF7AFFFE9432680890A41EA805069
:1053B00070BD00BF30484068704700BF1B482E4991
:1053C00000684968C043401A704700BF2A48007807
:1053D000012811BF002015480068C043704700BF76
:1053E00070B5254D2878C8B92D4C4FF0FF3666634F
:1053F000FDF73AFE00F042F820464FF48071FCF7CA
:105400003BFE20466663FCF7D3FD0020FFF786FFD6
:105410000648012100682970C0436860002070BD03
:10542000024815490068C04348607047082800409A
:10543000B0B58CB001AD044628212846FBF7DDF855
:1054400000F01CF84FF48071002001220B914FF006
:1054500000510890CDE906010748294640682044DC
:10546000C04302900E48FCF7C5FE08B1FBF7E9FC0B
:1054700000200CB0B0BD00BF7800002010B5074878
:10548000074C0121016020464FF48071FCF7F4FDC8
:105490004FF0FF306063002010BD00BF5C2800406B
:1054A0008C060020F0B5EFF31082EFF3108372B694
:1054B0006A4B9E8ADC8AA6420CD1C4F50076B5B24E
:1054C000854216D8844214D9002501261C80DD822D
:1054D0005E6010E00CD2C4F50077BDB285421BD8E7
:1054E000864219D900251C800124DD825C6001E020
:1054F000361B25463446A4B2844207D90D80D98A8A
:1055000008446FF35F20D882002001E04FF6FF705F
:1055100082F3108800B2F0BD25463C46EBE700BFA1
:10552000EFF31080EFF3108172B64C494A8B0132D1
:105530004A8380F310887047B0B5484DEFF310846C
:10554000EFF3108072B6688B10B184F3108809E015
:10555000FFF7E6FFE88AA98A814205D100F072F8D8
:1055600084F310880020B0BD6A686AB1012A13D1A3
:105570002B8802226A6000225B1A2A802B831B047C
:105580000AD1AA826A6000E00A461146904294BF9E
:10559000C2F50070801A2883284884F310884418C4
:1055A00000F07EFE2648298BC2682046BDE8B04048
:1055B000104700BFB0B5EFF31080EFF3108172B663
:1055C00026494C68022C03D1002400224C6004E0E0
:1055D0008A8A0B8B1A446FF35F22CB8A8A829A42A3
:1055E00011D04D8B012D0ED1ACB1012C1BD10D88EA
:1055F00002244C600024AD1A0C800D832D0412D1BE
:105600008C824C6008E080F3108800F045FEBDE815
:10561000B04000F017B81446A34294BFC4F500721E
:105620001A1B0A83224680F310880448098B104411
:10563000034AD268BDE8B040104700BF4C010020CB
:10564000186C0008EFF31080EFF3108172B6034975
:105650004A8B013A4A8380F3108870474C0300203C
:1056600012490A6832B1824202F1180104BF0120D6
:105670007047F6E7002070470C4A116809B1002313
:105680000B721060816100F013B800BF10B50749BC
:1056900009680A46896921B10B6804689C42F8D8F8
:1056A00000E000219061816110BD00BF2006002054
:1056B0002DE9F041DFF88C8E0446D8F82000D8F8A8
:1056C000187080470546012026682072B847284494
:1056D000864203D2B8472844206000E02068D8F80A
:1056E0000810BDE8F0410847BFB5054602A80C46C2
:1056F000FFF772FDBDF90C00029B0090284600F0F8
:1057000089FF2846FAF7CAFE2080BFBDB0B5416EBA
:1057100091B102680C4B0D4D9168C1F342619268E2
:105720005C5C695C520F9B5CAA5CC900B1FBF4F144
:10573000D200B2FBF3F201E001220121A0F86810CF
:10574000A0F86A20B0BD00BF406C0008386C0008AB
:1057500010B5816ACA0706D00268C36A546824F487
:105760000034234353608A0706D50268036B5468EC
:1057700024F48034234353604A0706D50268436B00
:10578000546824F48024234353600A0706D5026832
:10579000836B546824F4004423435360CA0606D53F
:1057A0000268C36B946824F48054234393608A0690
:1057B00006D50268036C946824F400542343936074
:1057C0004A0610D50268436C5468B3F5801F24F470
:1057D000801444EA0304546005D1836C546824F4B3
:1057E000C00423435360090606D50168C06C4A68AB
:1057F00022F400221043486010BDBCB504460020CE
:10580000C4F88C00FBF712FE054620680168090702
:105810000BD56FF07E404FF4001100222B46009014
:10582000204600F045FC70B92068006840070CD5A0
:105830006FF07E404FF4800100222B4600902046FE
:1058400000F036FC08B10320BCBD2020C4F8840061
:10585000C4F888000020C4F88000E066BCBDC06ABF
:105860000021A0F85E10A0F85610FDF7F2B8B0B510
:10587000C46A2068D4F88420D4F888508168212A2A
:1058800009D111F0800106D00020A4F8560020466E
:1058900000F064F820688068222D08D110F04000E4
:1058A00005D00020A4F85E00204600F02DF8D4F8C2
:1058B0008C0040F01000C4F88C002046BDE8B040D9
:1058C000FDF7C7B80168C06A0968890648BFFDF7D7
:1058D00085BB0021A0F85610016851E8021F02683C
:1058E00021F0800142E80213002BF5D1016851E854
:1058F000001F026841F0400142E80013002BF5D17F
:105900007047C06AFDF770BB10B5016851E8001F11
:10591000026821F4907142E80013002BF5D1A249EE
:10592000026852E8022F03680A4043E80224002C70
:10593000F6D1C16E012909D1016851E8001F026842
:1059400021F0100142E80013002BF5D12021C0F80E
:10595000881000210167C16610BD00BF016851E8D1
:10596000001F026821F0C00142E80013002BF5D1AE
:10597000016851E8021F026821F4000142E80213A5
:10598000002BF5D12021C0F8841070470168D0F8B1
:105990008820222A43D1B0F860204B6A1A40836DD8
:1059A00023F8022BB0F85E20013AA0F85E20836550
:1059B000B0F85E200AB17047016851E8001F026824
:1059C00021F4907142E80013002BF5D1016851E8F1
:1059D000021F026821F0010142E80213002BF5D1F9
:1059E0002021C0F8881000210167C26E012A18BF6B
:1059F000FDF790BAC166016851E8001F026821F006
:105A0000100142E80013002BF5D10168CA69D206E3
:105A100044BF10220A62B0F85C10FCF77DBF8869B1
:105A200040F00800886170472DE9F84F044600688F
:105A3000D0F81CA001688268B4F86090D4F888306F
:105A4000222B40F08B80B4F86870E04D02F0010624
:105A500001F480784FF0000B002F00F084801AF0E2
:105A6000200000F080802068A16D426A02EA0902ED
:105A700021F8022BB4F85E20013AA4F85E20A1655B
:105A8000D0F81CA05FEA4A712DD0B8F1000F18BF02
:105A90001AF0010107D001210162D4F88C1041F005
:105AA0000101C4F88C1056B11AF0020107D002218E
:105AB0000162D4F88C1041F00401C4F88C1056B186
:105AC0001AF0040107D004210162D4F88C0040F0E0
:105AD0000200C4F88C00D4F88C0020B12046FCF7FA
