:020000040800F2
:10000000E8120020D90100084D4B000819490008EA
:10001000494B000841060008119F0008000000003D
:10002000000000000000000000000000657A0008E9
:100030006506000800000000B94D0008897C000832
:10004000F3010008F3010008357D0008F301000802
:10005000F3010008F3010008F3010008F3010008B0
:10006000F3010008F3010008F3010008F3010008A0
:10007000F3010008F3010008F30100085906000825
:10008000F3010008F3010008F3010008F301000880
:1000900000000000F3010008F3010008F30100086C
:1000A000F3010008F3010008F3010008F301000860
:1000B000F3010008F3010008F3010008F301000850
:1000C000F3010008F3010008F3010008F301000840
:1000D000F301000871940008F3010008F30100081F
:1000E000F3010008F30100080D500008F3010008B7
:1000F000F30100080000000000000000F301000808
:10010000F3010008F3010008B5670008F3010008D7
:10011000F3010008F3010008F3010008F3010008EF
:10012000F3010008F3010008F3010008F3010008DF
:10013000F3010008F301000800F002F800F03CF8B9
:100140000AA090E8000C82448344AAF10107DA4532
:1001500001D100F031F8AFF2090EBAE80F0013F048
:10016000010F18BFFB1A43F001031847B8A900009C
:10017000D8A90000103A24BF78C878C1FAD852072D
:1001800024BF30C830C144BF04680C607047000011
:100190000023002400250026103A28BF78C1FBD890
:1001A000520728BF30C148BF0B6070471FB50AF027
:1001B00038FB1FBD10B510BD00F090F91146FFF7D8
:1001C000F5FF09F0A7FE00F0AEF903B4FFF7F2FF68
:1001D00003BC00F0B5F90000094880470948004712
:1001E000FEE7FEE7FEE7FEE7FEE7FEE7FEE7FEE7E7
:1001F000FEE7FEE704480549054A064B7047000044
:10020000317D000839010008E8080020E8120020CC
:10021000E80A0020E80A002053EA020C00F0698096
:100220002DE9F04B4FF00006002B1FBFB3FA83F50A
:1002300003FA05F424FA05F65E4012BF1643B2FA3B
:1002400082F502FA05F4C5F120051EBF22FA05FC6D
:1002500044EA0C04203556EA044C4FEA144418BF13
:10026000641C4FF000084FF00009904271EB030C42
:1002700039D3002919BFB1FA81F701FA07F6B0FAAC
:1002800080F700FA07F6C7F120071EBF20FA07FC27
:1002900046EA0C062037B6FBF4FCA7EB0507103F37
:1002A00007F01F0BCBF120062CFA06F60CFA0BFB1D
:1002B00044BFB3460026202FA4BF5E464FF0000B7C
:1002C0005BEA060C08BF4FF0010B19EB0B0948EB7A
:1002D0000608ABFB027C06FB02CC0BFB03CCC01B6D
:1002E00071EB0C01C1E70B46024641464846BDE8AA
:1002F000F08B13B5084318BF4FF0FF300146AFF342
:100300000080BDE81C40704710B5431C02E010F8A7
:10031000011B71B18107FAD14FF0013202C88C1A6A
:100320008C4314EAC211F9D0C01A0A0603D0C01EC9
:1003300010BDC01A10BD0A0401D0801E10BD0902F4
:10034000FCD0401E10BD032A40F2308010F0030C98
:1003500000F0158011F8013BBCF1020F624498BF18
:1003600011F801CB00F8013B38BF11F8013BA2F1B5
:10037000040298BF00F801CB38BF00F8013B11F030
:10038000030300F05780083AC0F0088051F8043B9E
:10039000083A51F804CBA0E80810F5E7121D5CBF3D
:1003A00051F8043B40F8043BAFF30080D20724BF70
:1003B00011F8013B11F801CB48BF11F8012B24BF04
:1003C00000F8013B00F801CB48BF00F8012B704753
:1003D00002F0FF0343EA032242EA024200F05EB861
:1003E0004FF0000200B5134694469646203922BFCE
:1003F000A0E80C50A0E80C50B1F12001BFF4F7AF19
:10040000090728BFA0E80C5048BF0CC05DF804EBFA
:10041000890028BF40F8042B08BF704748BF20F868
:10042000022B11F0804F18BF00F8012B7047704766
:100430007047704710B5203AC0F00B80B1E81850F3
:10044000A0E81850B1E81850A0E81850203ABFF4BE
:10045000F5AF5FEA027C24BFB1E81850A0E818505D
:1004600044BF18C918C0BDE810405FEA827C24BFB1
:1004700051F8043B40F8043B08BF7047D20728BF3F
:1004800031F8023B48BF11F8012B28BF20F8023B8E
:1004900048BF00F8012B70474FF000020429C0F05C
:1004A000128010F0030C3FF49DAFCCF1040CBCF1B2
:1004B000020F18BF00F8012BA8BF20F8022BA1EBF8
:1004C0000C01FFF78FBF5FEAC17C24BF00F8012B4E
:1004D00000F8012B48BF00F8012B7047754600F06B
:1004E0002BF8AE4605006946534620F007008546C6
:1004F00018B020B5FFF77EFEBDE820404FF00006A3
:100500004FF000074FF000084FF0000BAC46ACE88E
:10051000C009ACE8C009ACE8C009ACE8C00921F0EA
:1005200007018D46704710B50446AFF300802046A2
:10053000BDE81040FFF749BE00487047200000208A
:1005400001491820ABBEFEE72600020070470000FC
:100550000048704724000020032820D8B0B50021AF
:10056000C000C0F20111C1404FF48072CCB222FA37
:1005700000F54FF090404021224600F0E3FCEAB243
:100580004FF09040802100F0DDFC40F60000C4F602
:1005900000002021224600F0D5FCBDE8B04000203C
:1005A000704700001621002808BF0F210846704739
:1005B00002207047B0B586B000204C210490C5F6EB
:1005C00000010A686C4642F001020A60096801F005
:1005D000010105910599802100910121CDE90110CA
:1005E000032003904FF09040214600F0B9FB40F605
:1005F00000052020C4F6000500902846214600F0A2
:10060000AFFB402000904FF09040214600F0A8FB47
:1006100028462021002200F095FC4FF090408021D8
:10062000002200F08FFC4FF090404021002200F0AB
:1006300089FC002006B0B0BD012070470020704743
:10064000FEE7000080B500F015F800F027F8BDE8DF
:10065000804000F019B8000040F2B060C2F2000023
:1006600000F014B970470000EFF3108072B600BFBD
:10067000FEE7000042F20400CEF20400016821F01F
:10068000010101607047000042F20400CEF2040054
:10069000016821F0040101607047000042F204008B
:1006A000CEF20400016821F00201016070470000F1
:1006B000002804BF0120704780B590F8251002295A
:1006C00026D10168D0E910CE826C0B6823F00E03AE
:1006D0000B60136823F4807313600A6822F0010230
:1006E0000A600EF01C02012101FA02F2CCF804208B
:1006F000D0E913325A60426D32B1136823F480732B
:100700001360D0E91623536080F82510002102E021
:100710000421C1630121002280F82420BDE880402B
:100720000846704780B590F8251002292DD1016840
:10073000D0E910CE826C0B6823F00E030B600B68BF
:1007400023F001030B60116821F4807111600EF039
:100750001C02012101FA02F2CCF80420D0E9133284
:100760005A60426D32B1136823F480731360D0E98C
:100770001623536080F82510826B002180F8241026
:100780000AB190470021084680BD0421C1630121C0
:10079000084680BD00284FF0010C04BF01207047BF
:1007A0002DE9F04740F2000E0368C4F2020E4FF646
:1007B000F8310EF5816ACBF6FD71534538BF01F56E
:1007C00080614CF6CD441944CCF6CC44A1FB041511
:1007D0006FF0070151FA83F1A1FB0416D0F80480F1
:1007E00019684FF01C0221F0010119606FF003013C
:1007F00002EA950240F61C090EF5806701EA9504AD
:100800004FF000010CFA02F2C4F202093CBF0027CB
:10081000C4F20207C0E9107419607A60072202EB83
:10082000161253454B463CBF0EF5006332091F19A3
:10083000876409F1640702F01F02C7640CFA02F72B
:10084000A8F10102032A07651951C9F868700DD88B
:1008500009EB8203012643F8E41F09F5927706FAB3
:1008600002F2C0E91537C265C9F82821C0E915119F
:10087000C165C0E90B11C0E90D11C16380F82510F5
:1008800080F82410BDE8F04708467047B0B501680D
:10089000D0E910C4DCF800500B6804F01C0E5A07B5
:1008A00014D5042202FA0EF414EA05020ED00A68E6
:1008B000920603D40A6822F004020A60CCF80440CD
:1008C000016B002942D0BDE8B04008479A0721D506
:1008D000022202FA0EF414EA05021BD00A689206FC
:1008E00006D40A6822F00A020A60012280F8252054
:1008F0000422C4F2020202F17C03994288BF02F58D
:1009000080621460C16A002280F82420F1B1BDE841
:10091000B04008471A0719D5082202FA0EF22A40F9
:1009200008BFB0BD0A6822F00E020A60012101FA78
:100930000EF2CCF80420C16380F82510416B002230
:1009400080F8242011B1BDE8B0400847B0BD0000D8
:1009500000284FF0010C00F093802DE9F04F0021AA
:10096000C4F2020102684FF6F83401F58169CBF652
:10097000FD744A4538BF04F580644CF6CD4E1444EE
:10098000CCF6CC4EA4FB0E586FF0070555FA82F555
:10099000A5FB0E5601F580636FF00304D0E9025BFE
:1009A000D0F810A03CBF0023C4F2020304EA98046C
:1009B000C0E91034022380F82530136847F6F07739
:1009C000BB4313604BEA0503476943EA0A033B4311
:1009D000D0E9067140F6840E3B431943036A176859
:1009E00019433943C4F2020E1160072101EB1611BD
:1009F000AEF168034A4540F20002C4F202023CBF75
:100A000002F5006331091A19AEF1040301F01F0168
:100A1000C3640CFA01F3B5F5804F8264036505D118
:100A2000002141601160CEF8003019E0416801F00A
:100A30007F04013903294FF000011460CEF8003023
:100A40000ED8621E0EEB820747F87C1F02F00301EE
:100A500001228A400EF1BC033946CEF8C02001E0E5
:100A600000230022C0E915134FF0000C0121C265DC
:100A7000C0F83CC080F8251080F824C0BDE8F04FD5
:100A8000604670472DE9F04190F824C0BCF1010F99
:100A900004BF0220BDE8F0814FF0010C80F824C0B3
:100AA00090F825C0BCF1010F37D14FF0020C80F84F
:100AB00025C04FF0000CC0F83CC0D0F800C000F1D9
:100AC0004C0E9EE83040DCF80060BEF1000F26F0CE
:100AD0000106CCF8006065601CBFD0E91645656072
:100AE000D0E91076012506F01C068468B540D0F8E0
:100AF00030807D60CCF804300B46102C04BF1346C8
:100B00000A46CCF80830CCF80C20DCF80010B8F11C
:100B1000000F0AD041F00E010FE08021C1630021D7
:100B200080F824100120BDE8F08121F00401CCF808
:100B30000010DCF8001041F00A01CCF80010806CC5
:100B40000168C90303D5016841F480710160BEF1F9
:100B5000000F05D0DEF8000040F48070CEF80000F1
:100B6000DCF8000040F00100CCF800000020BDE8F7
:100B7000F081000081B00090009801B007F012B938
:100B80002DE9F04F00297CD0B0F1904F7BD040F29E
:100B90000047C4F6000707F5806398424FF0070E40
:100BA00008BF4FF0020EB8424FF000054FF00007AB
:100BB0004FF0010608BF4FF0010E26E00268032344
:100BC000AB401A4302606FF0030202EA5C04044483
:100BD00007F01C08D4F820C00F2202FA08F22CEA11
:100BE0000202226282689A438260426822EA0B0211
:100BF0004260C2689A43C26031FA06F206F1010609
:100C000007F1040705F102053BD0A6F1010C012212
:100C100002FA0CFB1BEA0109EED008224FEA9C08FD
:100C2000C4F2010252F8282007F00C03072404FA4A
:100C300003FA02EA0A020EFA03F39A42BED140F620
:100C40000003C5F60003D3F8802022EA0902C3F8A6
:100C50008020D3F8842022EA0902C3F884201A688D
:100C600022EA09021A605A6822EA09025A60082335
:100C7000C4F2010353F8282022EA0A0243F828208C
:100C80009CE7BDE8F08F0025002401272EE000BF7F
:100C900006680322A24016436FF0030340F22009C6
:100CA000066003EA5C03C4F6000905F01C0853F86B
:100CB00009C00F2606FA08F62CEA060643F8096072
:100CC000836893438360436823EA0E034360C368E9
:100CD00023EA0202C26031FA07F207F1010704F1C8
:100CE000020405F1040508BFBDE8F08FA7F1010C6F
:100CF000012202FA0CFE1EEA0109ECD008224FEA9A
:100D00009C08C4F2010252F828B005F00C06072234
:100D100002FA06FA1BEA0A0FBAD140F60002C5F63B
:100D20000002D2F8806026EA0906C2F88060D2F894
:100D3000846026EA0906C2F88460166826EA090675
:100D40001660566826EA090656600822C4F20102B7
:100D500052F8286026EA0A0642F8286098E7000060
:100D60002DE9F04F84B00E680390002E00F0DF8074
:100D700040F600020398C4F600028E4690424FF0FF
:100D800007004FF000044FF001074FF000054FF04F
:100D9000000808BF02200090029148E040F20040A5
:100DA000C4F600008242009A08BF012202FA03F052
:100DB000082140EA0C00C4F2010141F8260040F687
:100DC0000006C5F600063068DEF8041040EA0902A5
:100DD000CB0258BF20EA0902326070688B0240EAF9
:100DE000090258BF20EA09027260D6F88000CB03DE
:100DF00040EA090258BF20EA0902C6F88020D6F866
:100E00008400890340EA090258BF20EA0902C6F8B3
:100E10008420DEF8006008F1010836FA07F005F1D9
:100E2000020507F1010704F1040400F08080A7F136
:100E3000010A012000FA0AF316EA0309E9D0DEF8F4
:100E400004B00BF0030CACF10102012A1ED8039888
:100E50004FEA480281680192032202FA05F6029ADB
:100E6000B143D2F80CE0F6430EFA05F21143DDF877
:100E700008E081604168994303460198CBF3001272
:100E800002FA0AF2114359600CE000BF0320A840A7
:100E9000039BC643BCF1030F284603D128464FF0FD
:100EA000030C26E0D968DEF8082031408240114367
:100EB000BCF1020FD9601CD102466FF0030000EABA
:100EC0005A01194404F01C030F20D1F820C000FA85
:100ED00003FE1046029A2CEA0E0C1269DDF808E0B7
:100EE0009A4042EA0C02039B0A62DEF804B00BF05F
:100EF000030C19680CFA00F0314008431BF4403F22
:100F000018603FF486AF08204FEA9A06C4F2010049
:100F100050F8260004F00C030721039A9940B2F11F
:100F2000904F20EA010C7FF439AF00223EE704B075
:100F3000BDE8F08F426902EA0103914341EA0341AF
:100F4000816170471823002A08BF2823C1507047C9
:100F500040F24A60C2F200000078012814BF00206D
:100F600006F096BF7047000080B5032000F066F8D9
:100F700000F00EFB40F21401C2F2000108600F20E5
:100F800000F008F800281CBF012080BD00F004F824
:100F9000002080BD0020704770470000002848BF37
:100FA000704700F01F01012202FA01F14EF2801297
:100FB0004009CEF2000242F82010BFF34F8FBFF37A
:100FC0006F8F7047002848BF704700F01F01012253
:100FD00002FA01F14EF200124009CEF2000242F88C
:100FE0002010704710B54EF60C5CCEF2000CDCF809
:100FF0000030C3F3022E8EF00704042C28BF042413
:10100000BEF103034FF0FF3E0EFA04F438BF002395
:10101000A14399400EFA03F39A4300F00F03043BF7
:101020001143634409010C3300F16042B0F1FF3F0A
:10103000C8BF02F56443197010BD00004EF60C5194
:10104000CEF200010A684FF6FF031A4060F30A224D
:1010500042F0806040F0FD700860704740F214403C
:10106000C5F6000050F8141C322221F4804140F8EB
:10107000141C40F21401C2F20001096851434DF6FC
:101080008362C4F21B32A1FB0212910C0268002998
:1010900018BF12F4007213D00268012918BF12F4AD
:1010A00000720DD00268022918BF12F4007207D036
:1010B0000268032904D012F40072A1F10401E5D101
:1010C00000680321800501EAE070704740F20040AB
:1010D000C5F60000016841F48041016070470000DE
:1010E00040F2004CC5F6000CDCF8003002224EF64F
:1010F000105162F30203CEF20001CCF800300A680E
:10110000012842F004020A600FBF30BF40BF20BF79
:1011100020BF086820F004000860704740F20040DB
:10112000C5F60000006800F4C060704740F200405F
:10113000C5F60000016841F480710160704700004D
:1011400010B50C4640F21441C5F6000109680028AC
:1011500001F4007004D0002808BFFFF7B7FF05E0D6
:1011600020B1FFF77BFF002818BF10BD4EF61050CE
:10117000CEF200000168012C21F00401016004BFDF
:1011800030BF10BD40BF20BF20BF10BDF0B581B043
:10119000044680788826C007C5F6000600F0A980BE
:1011A000FFF7C4FFFFF7D4FE054600BFD6F878036B
:1011B000C00575D4FFF7CCFE401B0228F6D90320EA
:1011C0002168CA0700F09A806268336823EA1243F4
:1011D00092B21A4332608A0740F19380A268336862
:1011E00023EA124392B21A4332608A0640F18C809D
:1011F0002269336823F440631A4332608A0540F160
:101200008680226A33684FF6FF7767EA02073B4021
:1012100043EA024232604A057CD5626A33684FF67F
:10122000FF7767EA02073B4043EA024232600A0561
:1012300072D5A26A33684FF6FF7767EA02073B4030
:1012400043EA024232604A0668D5626933686FF445
:101250007F2767EA12173B4002F47F4243EA0212FB
:1012600032600A065CD5A26933686FF47F2767EAAB
:1012700012173B4002F47F4243EA02123260CA0571
:1012800050D5E26933686FF47F2767EA12173B4055
:1012900002F47F4243EA02123260CA0654D543E0A8
:1012A000B168606B01F4407181421DD0B168B268D1
:1012B00021F4407342F48032B260B268890722F4AC
:1012C00080320146B260B3600ED5FFF741FE05469D
:1012D00041F28837B068800705D4FFF739FE401B1C
:1012E000B842F7D96BE7616BB06820F440700843EF
:1012F000B06000202168CA077FF466AF8A073FF517
:101300006DAF8A063FF574AF8A053FF57AAF4A059F
:101310003FF583AF0A058CD44A0696D40A06A2D4B8
:10132000CA05AED4CA060FD5E2683368B2F5807F2D
:1013300023F4407343EA0203336005D156F87C2C52
:1013400042F0807246F87C2C0A0407D5226B336881
:1013500023F0404343EA0203336092B1490418D5B5
:10136000E16A3268B1F1005F22F0405242EA0102C4
:1013700032600ED156F87C1C41F4803146F87C1C5A
:1013800007E056F87C2C42F0807246F87C2C490429
:10139000E6D401B0F0BD00002DE9F04381B0002893
:1013A00000F0AF8044F20008C5F600080546D8F802
:1013B00000000C4600F00700884215D2D8F8000063
:1013C00020F007002043C8F80000FFF7C1FD0646E3
:1013D000D8F8000000F00700A04205D0FFF7B8FDE4
:1013E000801B0228F4D95BE0286808278107C5F62E
:1013F000000713D5A868396821F0F0010843386068
:10140000FFF7A6FD064600BF3868C00305D4FFF706
:101410009FFD801B0228F7D942E02868410616D5B7
:101420006869D7F8001121F00F0141EA1010C7F8E0
:101430000001FFF78DFD0646D7F80001C00305D473
:10144000FFF786FD801B0228F6D929E028684107AE
:1014500012D5E868396821F4E06108433860FFF785
:1014600077FD06463868800305D4FFF771FD801BC1
:101470000228F7D914E02868010716D528693968C9
:1014800021F4605141EAC0003860FFF761FD064673
:101490003868400308D4FFF75BFD801B0228F7D9AA
:1014A000032001B0BDE8F0832868C0071ED1D8F83A
:1014B000000000F00700A04227D9D8F8000020F073
:1014C00007002043C8F80000FFF742FD054600BFB3
:1014D000D8F8000000F00700A04216D0FFF738FD52
:1014E000401B02284FF00300F2D945E068684FF036
:1014F000B04130B3032842D0022844D1096889039F
:1015000022D4012001B0BDE8F08300F08BF83968E7
:101510003C2202EA91014AF63C02C0F60002515810
:1015200040F21402B0FBF1F140F20400C2F20000FC
:101530000068C2F20002116001B0BDE8F043FFF79D
:1015400029BD09688907DCD5396821F00301084302
:101550003860FFF7FDFC064641F288393868696853
:1015600000F00C00B0EB810FA1D0FFF7F1FC801B65
:1015700048454FF00300F1D901B0BDE8F083096898
:101580008901BED5E0E709684905BAD5DCE7000066
:1015900080B500F047F80821C5F6000109683C2233
:1015A00002EA91014AF63C02C0F600025158B0FB33
:1015B000F1F080BD80B500F035F80821C5F60001D6
:1015C0000A683C2303EA92024AF63C03C0F6000391
:1015D0009A580968B0FBF2F04AF67C02C1F3022186
:1015E000C0F6000252F82110C84080BD80B500F05E
:1015F00019F80821C5F600010A683C2303EA9202A3
:101600004AF63C03C0F600039A580968B0FBF2F0B2
:101610004AF67C02C1F3C221C0F6000252F8211042
:10162000C84080BD0C21C5F6000151F8040C10F033
:101630000C02086805D00C2A17D100F0030001281D
:1016400013D14FF0B040036800681B0700F008009A
:1016500004D4E0B14FF0B04000681FE0E0B14FF0BB
:10166000B0400068C0F3031019E042F20040042AC1
:10167000C0F2F4001FD0082A1CD14FF0B04212680B
:10168000D2025CBF44F60000C0F2E81013E0D1F8CB
:101690008800C0F3032002E0D1F8880000204AF659
:1016A0005013C0F6000353F82030002A184618BF24
:1016B000002001E00020002351F8042C02F00C026D
:1016C0000C2A18BF7047086800F0030242F200407D
:1016D000022AC0F2F4000AD0032A09D14FF0B04226
:1016E0001268D2025CBF44F60000C0F2E810034664
:1016F0000868C0F306200A685843C2F30212013298
:101700000968B0FBF2F0012202EB5171B0FBF1F07D
:10171000704700002DE9F04F81B0002800F03883B9
:1017200040F2900B0446C5F6000B5BF8880C5BF8A2
:10173000841C227800F00C08900601F0030A29D4DA
:101740002078C00763D0B8F1080F57D0B8F10C0F5C
:1017500008BFBAF1030F51D04FF0B0400168D4E98F
:10176000015221F480111143B5F5803F016009D089
:10177000B5F5041F40F033824FF0B0410A6842F4DF
:1017800000120A60016841F480310160FFF7E0FB5C
:10179000054633E2B8F1000F1ED0B8F10C0F08BFB8
:1017A000BAF1010F18D0216A4FF0B0463068002915
:1017B00000F0858140F001003060FFF7C9FB05466D
:1017C0003068800700F18E81FFF7C2FB401B0228C2
:1017D0004FF00300F4D9BFE24FF0B0410868800732
:1017E00003D5206A002800F0D382A06A096809079F
:1017F00000F1D780DBF804100909D5E04FF0B040C4
:101800000068800303D56068002800F0C18220785A
:10181000800732D5B8F1040F1DD0B8F10C0F08BF06
:10182000BAF1020F17D021694FF0B0463068002995
:1018300000F0FE8140F480703060FFF789FB0546C0
:101840003068400510D4FFF783FB401B02284FF09F
:101850000300F5D980E24FF0B0400068400503D5A1
:101860002069002800F0948260695BF88C1C21F0EC
:10187000FE4141EA00604BF88C0C207800072AD426
:101880002078400751D4E06A08B3B8F10C0F40F05B
:101890003F81012800F07C825BF8840C216B00F012
:1018A00003028A4240F07482616B00F070028A4247
:1018B00040F06E82A16B00F4FE42B2EB012F40F0CB
:1018C0006782616C00F06040884240F061820020D5
:1018D00001B0BDE8F08FA069DBF80410002800F02B
:1018E000D980E06901F01002904200F0BA8201F064
:1018F0000302022A00F04C82C90700F0AB82DBF839
:10190000040020F00100CBF80400FFF721FB05469E
:10191000DBF80400800740F19C82FFF719FB401BB5
:1019200011284FF00300F3D916E2DBF87003C0056D
:1019300010D4FFF7FBFBFFF70BFB0546DBF870034A
:10194000C00507D4FFF704FB401B02284FF003003B
:10195000F4D901E2E068002800F07C81852801D0FC
:10196000052805D1DBF8000040F00400CBF80000AA
:10197000FFF7EEFADBF80010054641F0010041F2F6
:101980008836CBF8000000BFDBF80000800700F1CC
:101990000781FFF7DDFA401BB0424FF00300F3D997
:1019A000DAE14FF0B041096801F0F00144F20006BD
:1019B00088424AF63C094AF65011C5F60006C0F6C0
:1019C0000009C0F6000128D93C2202EA9000DBF8A9
:1019D0007820085802F00F0159F82110B0FBF1F5FA
:1019E000FFF79CFBB0F5007F40F0AA804EF6BF20C9
:1019F000C0F22110854240F2CF8049F23F30C0F260
:101A00003420854240F25E814AF63F60C0F2EB200E
:101A1000854240F2A98000275BE14FF0B042136895
:101A200043F008031360136823F0F00303431360CB
:101A3000626A5BF88C3C23F47F4343EA02224BF852
:101A40008C2C3C2202EA9000DBF87820085802F047
:101A50000F0159F82110B0FBF1F5FFF75FFBB0F56E
:101A6000007F40F083804EF6BF20C0F221108542F7
:101A700040F2948049F23F30C0F23420854240F277
:101A80006E814AF63F60C0F2EB20854240F28280D0
:101A900000276BE121F00100CBF80400FFF758FAB2
:101AA000054600BFDBF8040080077FF5E9AEFFF7CD
:101AB0004FFA401B11284FF00300F3D94CE120F0FE
:101AC00001003060FFF744FA054600BF3068800728
:101AD0007FF536AEFFF73CFA401B02284FF00300BB
:101AE000F4D939E14FF0B040016841F008010160DC
:101AF0000168D4E9093221F0F001114301605BF87B
:101B00008C0C20F47F4040EA03204BF88C0C17E645
:101B10004FF0B0463168022821F08071316040F00A
:101B2000B380FFF715FA05463068800140F1348133
:101B3000FFF70EFA401B0A284FF00300F4D90BE11F
:101B40004CF6BF70C0F26A00854225D945F63F5079
:101B5000C0F2C600854240F2B58046F23F60C0F256
:101B6000031085423FF657AF0220ACE04CF6BF7041
:101B7000C0F26A00854211D945F63F50C0F2C60056
:101B8000854240F2EC8046F23F60C0F2031085428D
:101B90003FF67EAF0220E3E0002094E00020DFE08B
:101BA000E06840F00400852840F02681FFF7D0F976
:101BB000DBF80010054641F0800041F28836CBF892
:101BC000000000BFDBF8000000053FF55CAEFFF74A
:101BD000BFF9401BB0424FF00300F3D9BCE04FF017
:101BE000B046306820F480303060306820F4001057
:101BF0003060FFF7ADF9002D054615D04FF0B04627
:101C0000306880033FF503AEFFF7A2F9401B64285C
:101C10004FF00300F4D99FE0FFF79AF9401B6428C6
:101C20004FF0030000F2988030688003F4D4EEE5B2
:101C300020F480703060FFF78BF90546306840056E
:101C40007FF51BAEFFF784F9401B02284FF003001D
:101C5000F4D981E0FFF77CF9DBF80010064621F0AB
:101C6000800041F28837CBF8000000BFDBF800505D
:101C7000FFF76EF92905054640F1D680A81BB8424A
:101C80004FF00300F2D967E05BF8840C4FF6FF7168
:101C900020F003004BF8840C5BF8840CCEF6FE6158
:101CA00008404BF8840CFFF753F904463068800174
:101CB0007FF50DAEFFF74CF9001B0A284FF003002B
:101CC000F4D949E001204AF63001C0F6000151F88C
:101CD0002070306820F0070038433060FFF738F993
:101CE000054600BF306800F00700B84205D0FFF796
:101CF0002FF9401B0228F5D94AE04FF0B0400168A7
:101D000041F0080101600168D4E9093221F0F001D5
:101D1000114301605BF88C0C20F47F4040EA032003
:101D20004BF88C0CFFF77EFC5BF8881C3C2202EA27
:101D3000910159F8011040F21402B0FBF1F140F2A8
:101D40000400C2F200000068C2F200021160FFF756
:101D500021F900283FF4F4AC01B0BDE8F08F012078
:101D60004AF63001C0F6000151F82070306820F0CA
:101D7000070038433060FFF7EBF80546306800F0A5
:101D80000700B842CED0FFF7E3F8401B0228F5D990
:101D9000012001B0BDE8F08F5BF8840C48F28C01A3
:101DA000C1F2C11104F1300708408ECFD4E91065AB
:101DB0000843104340EA03203843304328434BF89C
:101DC000840C4FF0B045286840F0807028605BF8C4
:101DD000840C40F080504BF8840CFFF7B9F80446AF
:101DE000286880013FF573ADFFF7B2F8001B0A28A1
:101DF0004FF00300F4D9AFE7FFF7AAF8DBF80010C3
:101E0000054621F0800041F28836CBF80000DBF86F
:101E1000000000057FF537ADFFF79AF8401BB04290
:101E20004FF00300F3D997E7DBF8000041F2883662
:101E300020F00100CBF80000DBF8000080077FF500
:101E400022ADFFF785F8401BB0424FF00300F3D9F5
:101E500082E7E069DBF8041021F010010843CBF8B9
:101E60000400DBF8040040F00100CBF80400FFF7A9
:101E70006FF80546DBF8040080073FF501ADFFF77A
:101E800067F8401B1128F5D9032001B0BDE8F08F99
:101E9000704700004BF20010C4F2000050F821001F
:101EA000704700004BF20010C4F2000040F82120FF
:101EB0007047000090F82C1001294FF0020117D054
:101EC00080F82D1042F62401C4F20001CA220A60F3
:101ED00053220A6051F80C2C42F0200241F80C2CDD
:101EE000FF220A60012180F82D10002180F82C10BB
:101EF0000846704710B540F21074C2F20004204644
:101F00000221FFF7C7FF421C20460221BDE8104016
:101F1000FFF7C8BF10B542F65401C4F200010A68C9
:101F20000446520604D5402088602046FFF7E2FFB1
:101F3000012084F82D0010BD90F82C1001294FF0DD
:101F400002011FD080F82D1042F62401C4F20001D6
:101F5000CA220A6053220A6051F80C2C42F0800217
:101F600041F80C2C40F68002C5F60002136843F4D9
:101F700080231360FF220A60012180F82D100021C8
:101F800080F82C100846704707F0B0BD70B542F6D7
:101F90005C050446C4F2000555F8080C216B01EA03
:101FA0000006F00705D1B0070AD4012084F82D00FF
:101FB00070BD012028602046FFF7E6FFB007F4D58A
:101FC000022028602046FFF763FF012084F82D00DF
:101FD00070BD0000B0B590F82C20012A4FF002022D
:101FE00039D042F6240CC4F2000CCA2380F82D200C
:101FF000CCF800305323CCF800305CF80CEC6FF4D4
:102000000853B1F5807F08BF6FF488534FF0280460
:102010006FF0020503EA0E0308BF202408BF6FF02B
:1020200001054CF80C3C54F80C30B1F5807F23F0DE
:10203000004144F80C10016B08BF012229400163E4
:10204000FF21CCF83820CCF800100121002280F8C4
:102050002D1080F82C201046B0BD000070B500286F
:102060004DD0044690F82D0028B9002084F82C00AB
:10207000204600F05FF842F60C060220C4F200068B
:1020800084F82D00CA20B0615320B061306840064A
:1020900013D4306840F080003060FEF759FF31689B
:1020A00049060AD4054600BFFEF752FF401BB0F5B3
:1020B0007A7F37D830684006F6D5F0684FF6BF71A2
:1020C000CFF68F310840F060231D22690BCB1043FF
:1020D000A269F56810432843F06043EA014070604C
:1020E0003068D4E9091220F4F850084310433060F6
:1020F000204602F091FF20B1FF21B16170BD0120A7
:1021000070BDF068D4E9073220F060406169104387
:1021100018430843F060FF20B061012084F82D00CF
:10212000002070BD032084F82D003168FF21B161CB
:1021300070BD000010B590B0044601A83821FEF72C
:102140004FF9206842F60001C4F20001884201D034
:1021500010B010BD4FF4803001904FF480700E909D
:1021600001A8FFF713F8002818BFFEF77DFA5820E2
:10217000C5F60000816B002241F4004181630168D3
:1021800041F4806101600068002100F480600F90DC
:102190000F980220FEF726FF0220FEF713FF2A20E9
:1021A00000210022FEF71EFF2A20FEF70BFF10B0D1
:1021B00010BD00002DE9F04190F82C30012B4FF0BC
:1021C000020300F0EF8042F6180C0125C4F2000C67
:1021D00080F82C5080F82D305CF80C3C03F44078EB
:1021E000B8F5807F01D1002284E0F2B14A69B2F1F2
:1021F000803F08D0B2F5000F05D0DCF8006076060D
:102200005CBF0026CE700E784D788C7842EA06428C
:10221000CB7842EA05220F6A224391F824E042EA91
:1022200083523A4342EA0E6264E0DCF800204CF646
:10223000CD4E52065CBF0022CA700A78CCF6CC4E56
:102240000A2A0CD30A3AD4B2A4FB0E45EC0804EBDC
:102250008405A2EB4502102505EB041400E00024E0
:1022600022434C78D2B20A2C4FEA02420CD30A3CE9
:10227000E5B2A5FB0E56F50805EB8506A4EB460472
:10228000102606EB051500E0002525438C78EDB2FD
:102290000A2C42EA05220CD30A3CE5B2A5FB0E56F5
:1022A000F50805EB8506A4EB4604102606EB05159C
:1022B00000E000252C43E4B2224391F82440CD787D
:1022C0000A2C42EA85520CD30A3CE5B2A5FB0E6506
:1022D000EE0806EB8605A4EB4504102505EB061574
:1022E00000E0002544EA05060D6A4C692A432243B2
:1022F00042EA0662CA23CCF80C305323CCF80C30E7
:102300008B6ADCF80050B3F5807F0DD125F488533B
:10231000CCF800300123B8F5807FCCF8443011D1DF
:10232000D1E906231A4310E025F40853CCF8003015
:102330000223B8F5807FCCF844300FD1D1E90623D1
:102340001A430EE0CCF828208A69CCF82C20496882
:102350000122CCF858104FF488510AE0CCF8302014
:102360008A69CCF8342049680222CCF85C104FF41A
:102370000851036B1A430263DCF800200023114369
:10238000CCF8001040F68001C5F600010A6842F45E
:1023900000320A60FF21CCF80C10012180F82D10CA
:1023A00080F82C301846BDE8F08100004EF2100095
:1023B000CEF20000016841F00201016070470000A8
:1023C000012909D0002918BF704740F2D000C2F29D
:1023D000000081688020084740F2D000C2F200006F
:1023E00081684FF48070084740F2D000C2F20000CC
:1023F00081684020084700002DE9F04182B08779CC
:10240000012F02D14779012F04D10221084602B0E1
:10241000BDE8F081067940F2904C40F2140EC5F60A
:10242000000C0127012EC2F2000E477127D1DEF801
:10243000004004EB4404C4F34F340094DCF8004043
:1024400024F40044CCF80040009C013C0094009C23
:102450007CB1009C013C0094009C54B1009C013C68
:102460000094009C2CB1009C013C0094009C002C2A
:10247000EAD1DCF8004044F40044CCF80040DEF837
:102480000040642504EB4404C4F34B446C430194C2
:102490005CF87C4C019D55B1019DA408013D01955E
:1024A0005CF87C5C04EA5504E407F1D101E0022405
:1024B0008460DCF80040642624F40044CCF800403A
:1024C000DEF800500824C5EBC505C5F34C45C5F63C
:1024D000010475430195019DF5B1019D013D0195F3
:1024E0002568AD071AD4019DB5B1019D013D019547
:1024F0002568AD0712D4019D75B1019D013D01957F
:102500002568AD070AD4019D35B1019D013D0195B6
:102510002568AD07DFD501E0012585602171DEF872
:1025200000106425C1EBC101C1F34C416943019125
:10253000019DF5B1019D013D01952568ED071AD179
:10254000019DB5B1019D013D01952568ED0712D1B1
:10255000019D75B1019D013D01952568ED070AD1E9
:10256000019D35B1019D013D01952568ED07DFD045
:1025700001E001258560656801910199F1B101993A
:1025800001390191216889071AD40199B1B10199E2
:10259000013901912168890712D4019971B101991A
:1025A00001390191216889070AD4019931B1019952
:1025B0000139019121688907DFD501E0012181609E
:1025C00000212171DEF800706425C7EBC701C1F35B
:1025D0004C41694301910199F1B10199013901918E
:1025E0002168C9071AD10199B1B101990139019145
:1025F0002168C90712D1019971B10199013901917D
:102600002168C9070AD1019931B1019901390191B4
:102610002168C907DFD001E0012181606168002BDA
:1026200062D00021642501264FF0FF08C7EBC707E1
:10263000C7F34C476F430197019FFFB1019F013FD3
:1026400001972768BF071AD4019FBFB1019F013FBF
:1026500001972768BF0712D4019F7FB1019F013FF7
:1026600001972768BF070AD4019F3FB1019F013F2F
:1026700001972768BF07DFD501E000BF866084F8B7
:102680000480DEF80070C7EBC707C7F34C476F4301
:102690000197019FF7B1019F013F01972768FF074D
:1026A00019D1019FB7B1019F013F01972768FF072B
:1026B00011D1019F77B1019F013F01972768FF0763
:1026C00009D1019F37B1019F013F01972768FF079B
:1026D000DFD000E08660676801319942177003D24D
:1026E000DEF800700132A1E7DCF80010642241F44A
:1026F0000041CCF80010DEF8001001EB4101C1F3FD
:102700004B415143019100BF5CF87C1C019A52B1CE
:10271000019A8908013A01925CF87C2C01EA520185
:10272000C907F1D101E002218160816801220029FD
:1027300018BF0121827100224271084602B0BDE833
:10274000F08100002DE9F04382B08779012F02D19A
:102750004779012F04D10221084602B0BDE8F08379
:10276000067940F2904C40F2140EC5F6000C012799
:10277000012EC2F2000E477127D1DEF8004004EBB3
:102780004404C4F34F340094DCF8004024F40044C3
:10279000CCF80040009C013C0094009C7CB1009C63
:1027A000013C0094009C54B1009C013C0094009CAE
:1027B0002CB1009C013C0094009C002CEAD1DCF878
:1027C000004044F40044CCF80040DEF800406425AA
:1027D00004EB4404C4F34B446C4301945CF87C4C1C
:1027E000019D55B1019DA408013D01955CF87C5CFB
:1027F00004EA5504E407F1D101E00224846041F0C9
:102800001004942C14BF002401240471DCF800404F
:10281000642624F40044CCF80040DEF8005008247C
:10282000C5EBC505C5F34C45C5F6010475430195D7
:10283000019DF5B1019D013D01952568AD071AD4B3
:10284000019DB5B1019D013D01952568AD0712D4EB
:10285000019D75B1019D013D01952568AD070AD423
:10286000019D35B1019D013D01952568AD07DFD57D
:1028700001E0012585602171DEF800506427C5EB79
:10288000C506C6F34C467E430196019EF6B1019EF5
:10289000013E01962668F6071AD1019EB6B1019E47
:1028A000013E01962668F60712D1019E76B1019E7F
:1028B000013E01962668F6070AD1019E36B1019EB7
:1028C000013E01962668F607DFD001E0012686600A
:1028D0006668002B67D000264FF064094FF00108AE
:1028E00006E000BFC0F80880013667689E425AD0F3
:1028F000C5EBC505975DC5F34C4505FB09F501958D
:10290000019DFDB1019D013D01952568AD071BD4D9
:10291000019DBDB1019D013D01952568AD0713D411
:10292000019D7DB1019D013D01952568AD070BD449
:10293000019D3DB1019D013D01952568AD07DFD5A4
:1029400002E000BFC0F808802771DEF80050C5EB38
:10295000C507C7F34C4707FB09F70197019F002FF5
:10296000C0D0019F013F01972768FF07BCD1019F9D
:10297000002FB7D0019F013F01972768FF07B3D110
:10298000019F002FAED0019F013F01972768FF07ED
:10299000AAD1019F002FA5D0019F013F0197276871
:1029A000FF07DBD0A0E7DCF80020842942F40042D6
:1029B000CCF8002019D0DEF80010642201EB4101B0
:1029C000C1F34B41514301915CF87C1C019A52B117
:1029D000019A8908013A01925CF87C2C01EA5201C3
:1029E000C907F1D101E0022181608168012200293B
:1029F00018BF0121827100224271084602B0BDE871
:102A0000F083000040F2D000C2F200008168202074
:102A10000847000040F2D000C2F200008168102098
:102A20000847000070B582B004460020ADF80600EB
:102A30000DF10602204612210223FFF7DDFC9DF86E
:102A400007609DF80650F0071BD1B0071ED4700731
:102A500021D4300724D4F00627D4B0062AD4700637
:102A60002DD4300630D4A80702D5204600F024FD2E
:102A70000DF10602204602210223FFF763FE02B099
:102A800070BD204600F028FDB007E0D5204600F0DC
:102A90000BFD7007DDD5204600F0B8F83007DAD519
:102AA000204600F011FDF006D7D52046FFF7B2FF13
:102AB000B006D4D52046FFF7A5FF7006D1D5204635
:102AC000FFF792FC3006CED505F001012046FFF756
:102AD00077FCA807CCD5C8E710B582B000283ED057
:102AE0000446807920B900206071204600F074F817
:102AF00094210220C5F60001A0710868642220F428
:102B00000040086040F21400C2F200000068C0EB10
:102B1000C000C0F34C4050430190019810B301989D
:102B2000013801900868400417D50198D0B1019888
:102B300001380190086840040FD5019890B10198C0
:102B4000013801900868400407D5019850B10198F8
:102B50000138019008684004DFD4002004E001201F
:102B600002B010BD0120A060D1F8FC2342F4004265
:102B7000C1F8FC2340F69002C5F60002136843F446
:102B800080531360D1F8742342F40062C1F87423B7
:102B90004FF40062C1F8842318B10121A17102B081
:102BA00010BD0022C5F601022168136841F441718D
:102BB00023F04003136011604FF4B8515160116865
:102BC00041F040011160012121710021A16001212A
:102BD000A17102B010BD000080B582B06420C5F6BE
:102BE00000000168002241F001010160006800213D
:102BF00000F00100019001983220FEF7F3F9322035
:102C000002B0BDE88040FEF7DDB9000040F2D00020
:102C1000C2F2000081680420084700002DE9F0415D
:102C200082B08779012F02D14779012F04D1022187
:102C3000084602B0BDE8F081067940F2904C40F2BF
:102C4000140EC5F6000C0127012EC2F2000E4771CA
:102C500027D1DEF8004004EB4404C4F34F34009461
:102C6000DCF8004024F40044CCF80040009C013C17
:102C70000094009C7CB1009C013C0094009C54B1E9
:102C8000009C013C0094009C2CB1009C013C0094F1
:102C9000009C002CEAD1DCF8004044F40044CCF85D
:102CA0000040DEF80040642504EB4404C4F34B44C8
:102CB0006C4301945CF87C4C019D55B1019DA408C6
:102CC000013D01955CF87C5C04EA5504E407F1D110
:102CD00001E002248460DCF80040642624F400440F
:102CE000CCF80040DEF800500824C5EBC505C5F35C
:102CF0004C45C5F6010475430195019DF5B1019D53
:102D0000013D01952568AD071AD4019DB5B1019D1E
:102D1000013D01952568AD0712D4019D75B1019D56
:102D2000013D01952568AD070AD4019D35B1019D8E
:102D3000013D01952568AD07DFD501E001258560DE
:102D40001E252571DEF800506426C5EBC505C5F3C8
:102D50004C4575430195019EF6B1019E013E0196D9
:102D60002668F6071AD1019EB6B1019E013E019672
:102D70002668F60712D1019E76B1019E013E0196AA
:102D80002668F6070AD1019E36B1019E013E0196E2
:102D90002668F607DFD001E00126866066680195A7
:102DA000019DF5B1019D013D01952568AD071AD43E
:102DB000019DB5B1019D013D01952568AD0712D476
:102DC000019D75B1019D013D01952568AD070AD4AE
:102DD000019D35B1019D013D01952568AD07DFD508
:102DE00001E0012585602171DEF800106425C1EB4A
:102DF000C101C1F34C4169430191019DF5B1019DB0
:102E0000013D01952568ED071AD1019DB5B1019DE0
:102E1000013D01952568ED0712D1019D75B1019D18
:102E2000013D01952568ED070AD1019D35B1019D50
:102E3000013D01952568ED07DFD001E001258560A2
:102E4000656801910199F1B10199013901912168F8
:102E500089071AD40199B1B1019901390191216809
:102E6000890712D4019971B1019901390191216841
:102E700089070AD4019931B1019901390191216879
:102E80008907DFD501E00121816000212171DEF891
:102E900000706425C7EBC701C1F34C416943019140
:102EA0000199F1B10199013901912168C9071AD13C
:102EB0000199B1B10199013901912168C90712D174
:102EC000019971B10199013901912168C9070AD1AC
:102ED000019931B10199013901912168C907DFD008
:102EE00001E0012181606168002B63D0002164252D
:102EF00001264FF0FF0800BFC7EBC707C7F34C47D9
:102F00006F430197019FFFB1019F013F0197276820
:102F1000BF071AD4019FBFB1019F013F01972768E6
:102F2000BF0712D4019F7FB1019F013F019727681E
:102F3000BF070AD4019F3FB1019F013F0197276856
:102F4000BF07DFD501E000BF866084F80480DEF8AB
:102F50000070C7EBC707C7F34C476F430197019F4A
:102F6000F7B1019F013F01972768FF0719D1019F22
:102F7000B7B1019F013F01972768FF0711D1019F5A
:102F800077B1019F013F01972768FF0709D1019F92
:102F900037B1019F013F01972768FF07DFD000E0AD
:102FA0008660676801319942177003D2DEF80070BD
:102FB0000132A1E7DCF80010642241F40041CCF8B2
:102FC0000010DEF8001001EB4101C1F34B41514309
:102FD000019100BF5CF87C1C019A52B1019A8908EA
:102FE000013A01925CF87C2C01EA5201C907F1D147
:102FF00001E00221816081680122002918BF0121BE
:10300000827100224271084602B0BDE8F0810000E2
:103010002DE9F04182B08779012F02D14779012F44
:1030200004D10221084602B0BDE8F081067940F2E1
:10303000904C40F2140EC5F6000C0127012EC2F28E
:10304000000E477127D1DEF8004004EB4404C4F3BE
:103050004F340094DCF8004024F40044CCF80040E5
:10306000009C013C0094009C7CB1009C013C0094BD
:10307000009C54B1009C013C0094009C2CB1009C2D
:10308000013C0094009C002CEAD1DCF8004044F4A0
:103090000044CCF80040DEF80040642504EB440412
:1030A000C4F34B446C4301945CF87C4C019D55B1D6
:1030B000019DA408013D01955CF87C5C04EA55047F
:1030C000E407F1D101E002248460DCF800406426CA
:1030D00024F40044CCF80040DEF800500824C5EB8E
:1030E000C505C5F34C45C5F6010475430195019D21
:1030F000F5B1019D013D01952568AD071AD4019DEB
:10310000B5B1019D013D01952568AD0712D4019D22
:1031100075B1019D013D01952568AD070AD4019D5A
:1031200035B1019D013D01952568AD07DFD501E071
:10313000012585601D252571DEF800506426C5EB4C
:10314000C505C5F34C4575430195019EF6B1019E39
:10315000013E01962668F6071AD1019EB6B1019E7E
:10316000013E01962668F60712D1019E76B1019EB6
:10317000013E01962668F6070AD1019E36B1019EEE
:10318000013E01962668F607DFD001E00126866041
:1031900066680E0A0195019DF5B1019D013D0195FD
:1031A0002568AD071AD4019DB5B1019D013D01957A
:1031B0002568AD0712D4019D75B1019D013D0195B2
:1031C0002568AD070AD4019D35B1019D013D0195EA
:1031D0002568AD07DFD501E0012585602671DEF8A1
:1031E00000506426C5EBC505C5F34C4575430195F4
:1031F000019EF6B1019E013E01962668F6071AD19E
:10320000019EB6B1019E013E01962668F60712D1D5
:10321000019E76B1019E013E01962668F6070AD10D
:10322000019E36B1019E013E01962668F607DFD069
:1032300001E00126866066680195019DF5B1019D5A
:10324000013D01952568AD071AD4019DB5B1019DD9
:10325000013D01952568AD0712D4019D75B1019D11
:10326000013D01952568AD070AD4019D35B1019D49
:10327000013D01952568AD07DFD501E00125856099
:103280002171DEF800106425C1EBC101C1F34C418E
:1032900069430191019DF5B1019D013D01952568AD
:1032A000ED071AD1019DB5B1019D013D019525683C
:1032B000ED0712D1019D75B1019D013D0195256874
:1032C000ED070AD1019D35B1019D013D01952568AC
:1032D000ED07DFD001E00125856065680191019966
:1032E000F1B1019901390191216889071AD4019935
:1032F000B1B10199013901912168890712D401996D
:1033000071B1019901390191216889070AD40199A4
:1033100031B101990139019121688907DFD501E0B7
:103320000121816000212171DEF800706425C7EB66
:10333000C701C1F34C41694301910199F1B1019970
:10334000013901912168C9071AD10199B1B10199D7
:10335000013901912168C90712D1019971B101990F
:10336000013901912168C9070AD1019931B1019947
:10337000013901912168C907DFD001E00121816095
:103380006168002B62D00021642501264FF0FF0800
:10339000C7EBC707C7F34C476F430197019FFFB1C6
:1033A000019F013F01972768BF071AD4019FBFB152
:1033B000019F013F01972768BF0712D4019F7FB18A
:1033C000019F013F01972768BF070AD4019F3FB1C2
:1033D000019F013F01972768BF07DFD501E000BFCC
:1033E000866084F80480DEF80070C7EBC707C7F377
:1033F0004C476F430197019FF7B1019F013F019730
:103400002768FF0719D1019FB7B1019F013F0197BD
:103410002768FF0711D1019F77B1019F013F0197F5
:103420002768FF0709D1019F37B1019F013F01972D
:103430002768FF07DFD000E08660676801319942A6
:10344000177003D2DEF800700132A1E7DCF800103B
:10345000642241F40041CCF80010DEF8001001EBCA
:103460004101C1F34B415143019100BF5CF87C1C09
:10347000019A52B1019A8908013A01925CF87C2CB8
:1034800001EA5201C907F1D101E00221816081689E
:103490000122002918BF01218271002242710846D1
:1034A00002B0BDE8F081000040F2D000C2F200009E
:1034B000816802200847000040F2D000C2F20000FC
:1034C00081684FF40070084740F2D000C2F200005B
:1034D000816808200847000040F2D000C2F20000D6
:1034E00081680120084700002DE9F04182B087790A
:1034F000012F02D14779012F04D10221084602B0E1
:10350000BDE8F081067940F2904C40F2140EC5F609
:10351000000C0127012EC2F2000E477127D1DEF800
:10352000004004EB4404C4F34F340094DCF8004042
:1035300024F40044CCF80040009C013C0094009C22
:103540007CB1009C013C0094009C54B1009C013C67
:103550000094009C2CB1009C013C0094009C002C29
:10356000EAD1DCF8004044F40044CCF80040DEF836
:103570000040642504EB4404C4F34B446C430194C1
:103580005CF87C4C019D55B1019DA408013D01955D
:103590005CF87C5C04EA5504E407F1D101E0022404
:1035A0008460DCF80040642624F40044CCF8004039
:1035B000DEF800500824C5EBC505C5F34C45C5F63B
:1035C000010475430195019DF5B1019D013D0195F2
:1035D0002568AD071AD4019DB5B1019D013D019546
:1035E0002568AD0712D4019D75B1019D013D01957E
:1035F0002568AD070AD4019D35B1019D013D0195B6
:103600002568AD07DFD501E0012585600E25257110
:10361000DEF800506426C5EBC505C5F34C4575437F
:103620000195019EF6B1019E013E01962668F607BE
:103630001AD1019EB6B1019E013E01962668F60799
:1036400012D1019E76B1019E013E01962668F607D1
:103650000AD1019E36B1019E013E01962668F60709
:10366000DFD001E00126866066680195019DF5B115
:10367000019D013D01952568AD071AD4019DB5B1A5
:10368000019D013D01952568AD0712D4019D75B1DD
:10369000019D013D01952568AD070AD4019D35B115
:1036A000019D013D01952568AD07DFD501E00125AC
:1036B00085602171DEF800106426C1EBC105C5F3F9
:1036C0004C4575430195019DF5B1019D013D019565
:1036D0002568ED071AD1019DB5B1019D013D019508
:1036E0002568ED0712D1019D75B1019D013D019540
:1036F0002568ED070AD1019D35B1019D013D019578
:103700002568ED07DFD001E0012585606568002BA5
:1037100062D0002564264FF0010805E0C0F808805B
:10372000013567689D4257D0C1EBC101575DC1F3B8
:103730004C41714301910199F1B101990139019114
:10374000216889071AD40199B1B101990139019110
:103750002168890712D4019971B101990139019148
:10376000216889070AD4019931B101990139019180
:1037700021688907DFD501E0C0F808802771DEF8ED
:103780000010C1EBC107C7F34C4777430197019F76
:10379000002FC3D0019F013F01972768FF07BFD1CA
:1037A000019F002FBAD0019F013F01972768FF07B3
:1037B000B6D1019F002FB1D0019F013F019727682B
:1037C000FF07ADD1019F002FA8D0019F013F0197B6
:1037D0002768FF07DBD0A3E7DCF80010642241F480
:1037E0000041CCF80010DEF8001001EB4101C1F3FC
:1037F0004B415143019100BF5CF87C1C019A52B1CE
:10380000019A8908013A01925CF87C2C01EA520184
:10381000C907F1D101E002218160816801220029FC
:1038200018BF0121827100224271084602B0BDE832
:10383000F08100002DE9F04182B08779012F54D149
:1038400047794FF0020C012F51D00127477180F8C2
:1038500006C0077940F2904C40F2140EC5F6000CF9
:10386000012FC2F2000E28D1DEF8004004EB440420
:10387000C4F34F340094DCF8004024F40044CCF846
:10388000004000BF009C013C0094009C7CB1009C67
:10389000013C0094009C54B1009C013C0094009CAD
:1038A0002CB1009C013C0094009C002CEAD1DCF877
:1038B000004044F40044CCF80040DEF800406425A9
:1038C00004EB4404C4F34B446C4301945CF87C4C1B
:1038D000019D85B1019DA408013D01955CF87C5CCA
:1038E00004EA5504E407F1D107E04FF0020C60460A
:1038F00002B0BDE8F08102248460DCF80040642658
:1039000024F40044CCF80040DEF800500824C5EB55
:10391000C505C5F34C45C5F6010475430195019DE8
:10392000F5B1019D013D01952568AD071AD4019DB2
:10393000B5B1019D013D01952568AD0712D4019DEA
:1039400075B1019D013D01952568AD070AD4019D22
:1039500035B1019D013D01952568AD07DFD501E039
:10396000012585600D252571DEF800506426C5EB24
:10397000C505C5F34C4575430195019EF6B1019E01
:10398000013E01962668F6071AD1019EB6B1019E46
:10399000013E01962668F60712D1019E76B1019E7E
:1039A000013E01962668F6070AD1019E36B1019EB6
:1039B000013E01962668F607DFD001E00126866009
:1039C00066680E0A0195019DF5B1019D013D0195C5
:1039D0002568AD071AD4019DB5B1019D013D019542
:1039E0002568AD0712D4019D75B1019D013D01957A
:1039F0002568AD070AD4019D35B1019D013D0195B2
:103A00002568AD07DFD501E0012585602671DEF868
:103A100000506426C5EBC505C5F34C4575430195BB
:103A2000019EF6B1019E013E01962668F6071AD165
:103A3000019EB6B1019E013E01962668F60712D19D
:103A4000019E76B1019E013E01962668F6070AD1D5
:103A5000019E36B1019E013E01962668F607DFD031
:103A600001E00126866066680195019DF5B1019D22
:103A7000013D01952568AD071AD4019DB5B1019DA1
:103A8000013D01952568AD0712D4019D75B1019DD9
:103A9000013D01952568AD070AD4019D35B1019D11
:103AA000013D01952568AD07DFD501E00125856061
:103AB0002171DEF800106426C1EBC105C5F34C4549
:103AC00075430195019DF5B1019D013D0195256865
:103AD000ED071AD1019DB5B1019D013D0195256804
:103AE000ED0712D1019D75B1019D013D019525683C
:103AF000ED070AD1019D35B1019D013D0195256874
:103B0000ED07DFD001E0012585606568002B63D0FB
:103B1000002564264FF0010806E000BFC0F80880C9
:103B2000013567689D4257D0C1EBC101575DC1F3B4
:103B30004C41714301910199F1B101990139019110
:103B4000216889071AD40199B1B10199013901910C
:103B50002168890712D4019971B101990139019144
:103B6000216889070AD4019931B10199013901917C
:103B700021688907DFD501E0C0F808802771DEF8E9
:103B80000010C1EBC107C7F34C4777430197019F72
:103B9000002FC3D0019F013F01972768FF07BFD1C6
:103BA000019F002FBAD0019F013F01972768FF07AF
:103BB000B6D1019F002FB1D0019F013F0197276827
:103BC000FF07ADD1019F002FA8D0019F013F0197B2
:103BD0002768FF07DBD0A3E7DCF80010642241F47C
:103BE0000041CCF80010DEF8001001EB4101C1F3F8
:103BF0004B415143019100BF5CF87C1C019A52B1CA
:103C0000019A8908013A01925CF87C2C01EA520180
:103C1000C907F1D101E002218160D0F808C001217B
:103C2000BCF1000F18BF4FF0010C817100214171F0
:103C3000604602B0BDE8F0814EF21000CEF2000006
:103C4000016821F0020101607047000080B590F822
:103C50008010012904BF022080BD2421C0F88410F7
:103C600001684AF6B42C0A680B6842F0005223F04F
:103C700001030B604FF0005343660A608A68C0F688
:103C8000000CC2F3426289684AF6BC2E490F1CF848
:103C90000130C0F6000E1EF80110DB00B3FBF1F19D
:103CA0001CF802301EF80220DB00B3FBF2F2A0F891
:103CB0006A102021A0F86820C0F88410002180F844
:103CC0008010084680BD000090F88010012904BFD4
:103CD00002207047012180F8801000BF016851E880
:103CE000001F026841F0020142E80013DBB10168E5
:103CF00051E8001F026841F0020142E8001393B14D
:103D0000016851E8001F026841F0020142E8001317
:103D10004BB1016851E8001F026841F0020142E81E
:103D20000013002BDAD1002180F88010084670477C
:103D30007047000070470000B0B590F88020012A5D
:103D400004BF0220B0BD0123242280F88030C0F8D7
:103D500084200268D0F864E0D2F800C01468BEF194
:103D6000000F24F001041460946824F0606441EAB8
:103D70000401916019D091684AF6B42EC1F34261F2
:103D80009368C0F6000E5B0F4AF6BC251EF8034090
:103D9000C0F60005EB5CE400B4FBF3F31EF8014051
:103DA000695CE500B5FBF1F100E00121A0F86810C5
:103DB0002021A0F86A30C2F800C0C0F884100021A9
:103DC00080F880100846B0BDB0B590F88020012A78
:103DD00004BF0220B0BD0123242280F88030C0F847
:103DE00084200268D0F864E0D2F800C01468BEF104
:103DF000000F24F001041460946824F0604441EA48
:103E00000401916019D091684AF6B42EC1F3426161
:103E10009368C0F6000E5B0F4AF6BC251EF80340FF
:103E2000C0F60005EB5CE400B4FBF3F31EF80140C0
:103E3000695CE500B5FBF1F100E00121A0F8681034
:103E40002021A0F86A30C2F800C0C0F88410002118
:103E500080F880100846B0BDB0B582B0044690F836
:103E60008000012802D1022002B0B0BD012084F8F8
:103E700080002420C4F884002068036823F0010334
:103E80000360836823F4401343EA0103836059B954
:103E9000416893B221F01001194341604168C2F3B7
:103EA000074262F31F614160016841F00101016056
:103EB000FDF74EF803466FF07E40009020464FF429
:103EC00080010022002505F0C9F920B1032084F803
:103ED000805002B0B0BD2020C4F88400002084F8D7
:103EE000805002B0B0BD0000704700007047000075
:103EF0007047000070B501680446CA6940F62F009B
:103F00000E68D1F808E0104020280BD106F0200000
:103F10000EF08053C01822D0216FC9B32046BDE8EF
:103F20007040084740F60F00024218D00120C1F24D
:103F300000000EEA000C40F22010C0F200403040B9
:103F400010EB0C000BD0D00718BF16F4807040F0B7
:103F5000858190070EF0010300F18C8193E1E06E02
:103F600006EA0203DD0614D5012812D110200862EA
:103F70008868400600F19A80B4F85C00B4F85E20CE
:103F8000B4F85E30002B1CBF801A5FEA00422BD1D0
:103F900070BDD00240F146811EF4800000F04281E5
:103FA0004FF4801220460A62BDE87040FFF79EBFC2
:103FB000216851E8001F226821F4907142E8001343
:103FC000DBB1216851E8001F226821F4907142E8BA
:103FD000001393B1216851E8001F226821F4907109
:103FE00042E800134BB1216851E8001F226821F418
:103FF000907142E80013002BDAD14FF6FE71CEF635
:10400000FF7100BF226852E8022F23680A4043E88C
:104010000226C6B1226852E8022F23680A4043E80C
:10402000022686B1226852E8022F23680A4043E83C
:10403000022646B1226852E8022F23680A4043E86C
:104040000226002EDED12021C4F888100021E1666E
:10405000216700BF216851E8001F226821F010018C
:1040600042E80013002B00F0D780216851E8001FC0
:10407000226821F0100142E80013002B00F0CC80F0
:10408000216851E8001F226821F0100142E8001366
:10409000002B00F0C180216851E8001F226821F048
:1040A000100142E80013002BD4D1B5E0E06F0268A4
:1040B00053689DB2002D3FF46BAFB4F85C008542AD
:1040C000BFF466AFA4F85E301268920600F1A180DA
:1040D00051E8000F216820F4807041E80002F2B13D
:1040E000206850E8000F216820F4807041E8000249
:1040F000AAB1206850E8000F216820F4807041E8E0
:10410000000262B1206850E8000F216820F480703E
:1041100041E800021AB1206850E8000FDAE7206891
:1041200050E8020F216820F0010041E80202BAB312
:10413000206850E8020F216820F0010041E80202E7
:1041400072B3206850E8020F216820F0010041E8B6
:1041500002022AB3206850E8020F216820F0010013
:1041600041E80202002ADAD11AE0206850E8020F82
:10417000216820F0400041E80202DAB1206850E8EE
:10418000020F216820F0400041E8020292B120684D
:1041900050E8020F216820F0400041E802024AB1D5
:1041A000206850E8020F216820F0400041E8020238
:1041B000002ADAD12020C4F888000020E0662068B8
:1041C00050E8000F216820F0100041E80002DAB149
:1041D000206850E8000F216820F0100041E800023C
:1041E00092B1206850E8000F216820F0100041E8EB
:1041F00000024AB1206850E8000F216820F010004A
:1042000041E80002002ADAD1E06FFCF751FAB4F875
:104210005C00B4F85E10401A81B22046BDE87040E0
:10422000FFF786BD10060AD506F080000EF40005E3
:10423000401904D0616F00297FF470AEA8E65806DB
:1042400000F11381100240F1608116F0804000F00F
:104250005C812046BDE87040FFF746BE0120086241
:10426000D4F88C0040F00100C4F88C0090070EF0E8
:10427000010308D53BB102200862D4F88C0040F05D
:104280000400C4F88C00500708D53BB10420086234
:10429000D4F88C0040F00200C4F88C0010070CD554
:1042A00006F0200050EA0C0007D008200862D4F87D
:1042B0008C0040F00800C4F88C0010050BD516F0F7
:1042C000806008D04FF400600862D4F88C0040F0A1
:1042D0002000C4F88C00D4F88C0000283FF458AEBD
:1042E00012F020001EBF06F020000EF0805210EBEE
:1042F000020040F00281D4F88C008A6800F02800A7
:1043000002F04002801800F0A98051E8000F00BFC1
:10431000216820F4907041E80002F2B1206850E872
:10432000000F216820F4907041E80002AAB12068D3
:1043300050E8000F216820F4907041E8000262B15B
:10434000206850E8000F216820F4907041E80002D6
:104350001AB1206850E8000FDAE74FF6FE70CEF68B
:10436000FF7000BF216851E8021F2268014042E847
:104370000213C3B1216851E8021F2268014042E8DC
:10438000021383B1216851E8021F2268014042E80C
:10439000021343B1216851E8021F2268014042E83C
:1043A0000213002BDED1E06E012824D1206850E8F2
:1043B000000F216820F0100041E80002DAB1206807
:1043C00050E8000F216820F0100041E8000292B18F
:1043D000206850E8000F216820F0100041E800023A
:1043E0004AB1206850E8000F216820F0100041E831
:1043F0000002002ADAD120200021C4F88800E166FA
:10440000206821678168490672D500BF50E8020F15
:10441000216820F0400041E80202002A57D02068BD
:1044200050E8020F216820F0400041E80202002A13
:104430004DD0206850E8020F216820F0400041E88C
:104440000202002A43D0206850E8020F216820F0C1
:10445000400041E80202D2B32068D7E72046FFF7C8
:1044600047FD0020C4F88C0070BD51E8000F00BF6C
:10447000216820F0400041E80002F2B1206850E8D5
:10448000000F216820F0400041E80002AAB1206836
:1044900050E8000F216820F0400041E8000262B1BE
:1044A000206850E8000F216820F0400041E8000239
:1044B0001AB1206850E8000FDAE720200021C4F884
:1044C000840020466167BDE8704000F013BAE06FD9
:1044D00070B148F29521C0F600018163FCF722F922
:1044E00000283FF455ADE06F816BBDE87040084790
:1044F0002046BDE87040FFF7FBBC226F002A3FF466
:10450000FAAE204690472168F5E6D0017FF540AD30
:10451000B6F1FF3FC8BF70BD2046BDE87040FFF751
:1045200009BC0000B0B582B0B0B10446D0F8840038
:1045300028B9002084F88000204600F075F8242077
:10454000C4F884002068016821F001010160204660
:1045500004F018FC012802D1012002B0B0BDA06A0D
:1045600010B1204603F022FE2068416821F49041FA
:104570004160816821F02A018160016841F00101F8
:1045800001600020C4F88C00FCF7E2FC21680546BD
:104590000A6812070CD56FF07E4C20464FF40011CC
:1045A00000222B46CDF800C004F058FE78B92168EF
:1045B000086840070ED56FF07E4C20464FF480010E
:1045C00000222B46CDF800C004F048FE10B10320B5
:1045D00002B0B0BD2020C4F88400C4F888000020D8
:1045E000E06684F8800002B0B0BD000010B504465B
:1045F000006844F20041C4F20001884218BF10BDB7
:104600005820C5F60000016821F4003101604FF028
:1046100090400C21FCF7B4FAA06FFCF7BBF8252002
:10462000BDE81040FCF7BABC70B594B00446002059
:104630001290CDE91000CDE90E0068463821FBF755
:10464000CFFE206844F20041C4F20001884201D04C
:1046500014B070BD0420C0F20C0002250290684620
:104660000095FCF793FD002818BFFBF7FDFF4C20D9
:10467000C5F60000C168002641F40031C160C16880
:1046800001F4003113911399016841F001010160B7
:1046900000680EA900F00100139013980C20CDE9DA
:1046A0000E0503201190072012904FF090401096B5
:1046B000FCF756FB40F2B0655820C2F20005C4F288
:1046C000020014211022802385E847002846C5E90E
:1046D0000436C5E906662E62FCF73AF9002818BFD1
:1046E000FBF7C2FF252002210022A567AC62FCF780
:1046F00079FC2520FCF766FC14B070BD80B5D0F8BD
:104700008830202B0BD100294FF0010318BF002A5D
:1047100001D1184680BD90F88030012B01D10220D4
:1047200080BD012380F880300023C366D0F800C02C
:1047300048F20003C4F200039C4503D0DCF80430C7
:104740001B0204D404F04AFC0023184680BD5CE838
:1047500000CFD0F800E04CF080634EE8003CBCF1A4
:10476000000FEFD0036853E800CFD0F800E04CF022
:1047700080634EE8003CBCF1000FE3D0036853E8CF
:1047800000CFD0F800E04CF080634EE8003CBCF174
:10479000000FD7D0036853E800CFD0F800E04CF00A
:1047A00080634EE8003CBCF1000FCBD0036853E8B7
:1047B00000CFCEE710B50446006844F20041C4F2D1
:1047C0000001884218BF10BD40F28800C2F200000C
:1047D00043684BB1D4F88C0030B940F28800C2F283
:1047E000000001210022984740F28801C2F2000136
:1047F00020460122BDE81040FFF780BFB0B5044657
:10480000D0F8840020281CBF0220B0BDB1B31346ED
:10481000A2B394F88000012804BF0220B0BD01209B
:1048200084F88000002521202165A4F85430A4F8E4
:104830005630C4F88C50C4F88400A06F00B348F21E
:104840009142C0F6000248F2415C48F2A52E00F108
:104850002C07C0F6000CC0F6000E87E80450226852
:1048600085632832FCF70EF950B11020C4F88C0093
:10487000002084F880002020C4F884000120B0BD0E
:1048800020684021016284F8805050E8020F2168BE
:1048900040F0800041E802022AB30025206850E879
:1048A000020F216840F0800041E80202FAB120685E
:1048B00050E8020F216840F0800041E80202A2B1F6
:1048C000206850E8020F216840F0800041E80202B1
:1048D0005AB1206850E8020F216840F0800041E89A
:1048E0000202002ADAD12846B0BD0020B0BD002562
:1048F0002846B0BD006844F20041C4F2000188427D
:1049000018BF704740F2AC60C2F20000016800209E
:104910000847000070470000FEE7000080B582B045
:104920004820C5F600000168002241F00401016042
:10493000016801F0040100910099016841F0010152
:1049400001600068022100F00100019001980F2031
:10495000FCF748FB0F2002B0BDE88040FCF732BBFB
:104960002DE9F04186B04FF000084C20CDF81080C2
:10497000C5F60000016840F2004441F00201016008
:104980000168C4F6000401F002010591059901686F
:10499000002241F001010160016801F0010105916F
:1049A0000599016841F004010160006841F2380195
:1049B00000F00400059005982046FCF7C3FA382063
:1049C0000090012702206D46CDE901780390204632
:1049D0002946FCF7C5F903264FF404100096CDE9EB
:1049E00001074FF090402946FCF7BAF94FF4805088
:1049F0008DE88101204629460396FCF7B1F906B0FF
:104A0000BDE8F08180B58CB001A82C21FBF7E8FC53
:104A100040F2107042F60001C2F20000C4F2000140
:104A200001601F21816000214FF080424FF48073AC
:104A3000C0E90411C0E90612C0E90813FDF70EFB36
:104A4000002818BFFBF710FE40F21070C2F2000001
:104A5000FDF772FA002818BFFBF706FE0020089049
:104A6000029006904FF0005007904FF480700B902A
:104A700040F21070C2F2000001A90022FDF79AFB7B
:104A8000002818BFFBF7F0FD0CB080BD80B540F2E8
:104A90004870C2F2000008210160FEF71DF80028EE
:104AA00008BF80BDBDE88040FBF7DEBD80B503F0E8
:104AB00015F9BDE8804002F0D7BF00004FF0FF308D
:104AC00004F0F8BE80B540F2547044F20041C2F2E6
:104AD0000000C4F2000100234FF00C0C4FF4E1324F
:104AE00080E80E00C0E90333C0E905C3C0E907331D
:104AF000C0E90933FFF716FD002818BFFBF7B4FD26
:104B000040F25470C2F200000021FFF75DF9002866
:104B100018BFFBF7A9FD40F25470C2F2000000215B
:104B2000FFF70AF9002818BFFBF79EFD40F254700A
:104B3000C2F20000FFF78AF8002808BF80BDBDE878
:104B40008040FBF791BD0000FEE70000FEE700009B
:104B50002DE9F04383B01C4616460D4680462FA330
:104B60000120002101224FF0000904F087FC2EA350
:104B70000120002101220096019404F07FFC40F204
:104B80009007C2F200077C7040F24C34C2F200047D
:104B90002046FF2187F80290FBF722FCFF2DBD8005
:104BA00007D840F24C30C2F2000041462A46FBF7DB
:104BB000CAFB26A30320002101223E700095002796
:104BC00004F05CFC4AF6173825A5C0F6000802E0A0
:104BD0000137402F12D0E65D0320002100222B4632
:104BE000009604F04BFC07F00F000F28F0D10320D3
:104BF00000210022434604F041FCE9E74AF617335E
:104C0000C0F6000303200021002204F037FC01203D
:104C1000002103B0BDE8F04304F016BF4F6E527898
:104C2000446F6E650A0D00005273736956616C75AE
:104C3000653D25642064426D2C20536E7256616C74
:104C400075653D256464420A0D0000007061796C51
:104C50006F61642E2073697A653D2564200A0D001A
:104C6000253032580000000080B509A30120002142
:104C7000012204F003FC40F29002C2F2000202237F
:104C8000012000219370BDE8804004F0DDBE00BF2C
:104C90004F6E52784572726F720A0D0010B509A3FB
:104CA000012000210122012404F0E8FB40F29002DF
:104CB000C2F20002012000219470BDE8104004F00F
:104CC000C3BE00BF4F6E527854696D656F75740A2C
:104CD0000D00000080B509A301200021012204F08D
:104CE000CDFB40F29002C2F200020323012000211A
:104CF0009370BDE8804004F0A7BE00BF4F6E5478AB
:104D0000446F6E650A0D000080B509A301200021E3
:104D1000012204F0B3FB40F29002C2F2000204232D
:104D2000012000219370BDE8804004F08DBE00BFDB
:104D30004F6E547854696D656F75740A0D000000EC
:104D400010B540F20044C4F6000420461021FCF7E0
:104D5000F1F820462021FCF7EDF840F29000C2F275
:104D600000000C30BDE8104004F0C4BF70470000E4
:104D700080B5FEF761FF00200121BDE88040FCF70F
:104D8000DFB9000080B5FEF757FF40F28841C5F655
:104D90000001012201200A60BDE88040FCF7A0B9B3
:104DA00070470000FDF702BB80B5FDF7FFFABDE8D4
:104DB000804005F013BD00007047000070B54AF652
:104DC0009015C0F60005E86A804740F29004C2F2F0
:104DD0000004A07804284FD8DFE800F02D03034F2B
:104DE000280040F21800C2F200000078F0B1E86D2F
:104DF000AE6A8047A1680844C830FBF7BBFE4AF69C
:104E00000833C0F6000301200021012204F036FB24
:104E100040F24C4044F65012C2F20000C4F24E720E
:104E2000402102603246BDE8704010474AF6E52353
:104E3000C0F6000337E040F21800C2F2000002782A
:104E4000A188E2B1C1B140F24C31C2F200010A685E
:104E500044F65073C4F24E739A422FD0096844F658
:104E60005012C4F24E72914217D100214AF6E52346
:104E70000170C0F6000316E070BD3FA313E00029E7
:104E800008BF70BD40F24C31C2F20001096844F61F
:104E90005016C4F24E76B1423FD001214AF6F623B5
:104EA0000170C0F6000301200021012204F0E6FA9F
:104EB000696B40F6B830BDE87040084704F10C005B
:104EC00004F0BCFF40F20044C4F600042046102168
:104ED0000022FCF737F820462021FCF72BF8E86D7C
:104EE000AC6A8047C830FBF745FE26A301200021AD
:104EF000012204F0C3FA4AF60833C0F60003012089
:104F00000021012204F0BAFA40F24C4044F650125B
:104F1000C2F20000C4F24E7228E004F10C0004F06A
:104F20008DFF40F20044C4F60004204620210022F8
:104F3000FCF708F820461021FBF7FCFFE86DAC6A8F
:104F40008047C830FBF716FE11A301200021012283
:104F500004F094FA11A301200021012204F08EFA3A
:104F600040F24C4006F5C062C2F2000040210260EF
:104F70002246BDE870401047527820737461727405
:104F80000A0D00002E2E2E50494E470A0D0000003B
:104F90002E2E2E504F4E470A0D000000536C6176A6
:104FA00065202054782073746172740A0D0000002B
:104FB000FBF7D2BAFBF7F6BAFBF7FABAFBF7FABA85
:104FC000FBF73ABBFBF73ABB7047000070470000A5
:104FD0004FF0FF30704700000020704700207047FE
:104FE0004FF0FF30704700004FF0FF307047000077
:104FF0007047000070470000704700004FF0FF301E
:10500000704700004FF0FF307047000040F2107012
:10501000C2F20000FCF7BABF70B542F60C06C4F24B
:1050200000063168044621F080013160F16889068C
:1050300013D4306820F020003060FBF789FF05466C
:105040003068800625D4FBF783FF401BB0F57A7FDC
:10505000F6D9032084F82D0070BDF06820F0200000
:10506000F060306820F020003060FBF771FF0546EB
:10507000306880060FD4FBF76BFF401BB0F57A7FDA
:10508000F6D9032084F82D00F16841F02001F16089
:1050900070BD002070BD0020F16841F02001F1607A
:1050A00070BD00000120704780B501F085FC043818
:1050B000C0B2032884BF002080BD40F20211C000AE
:1050C000C0F2003121FA00F0C0B280BD80B501F01D
:1050D0000FFD033080BD0000F0B581B040F2DC056B
:1050E000C2F200052C4644F8040B40F24C6745F22E
:1050F0008960C2F200070026C0F600007E70C7E992
:105100000166BE6501F0A0FDBE8102F005F9002038
:10511000002101F087FE01200021042202F030FB73
:105120004FF6FF704FF6FF710022002301F0CEFE14
:10513000042002F017FA0220FBF71CFD45F2B163D0
:10514000C0F6000320464FF0FF310022009604F025
:105150008FFC1C3545F29963C0F6000328464FF0DA
:10516000FF310022009604F083FC204604F066FE26
:10517000284601B0BDE8F04004F060BE70B582B0D2
:1051800040F24C64C2F20004B4F8540000217F28BD
:105190008DF80710009100F35E8001383F2800F27F
:1051A0005880DFE810F040007F005600C000560035
:1051B00056005600F10056005600560056005600A4
:1051C0005600560000015600560056005600560084
:1051D000560056005600560056005600560056001F
:1051E0005600560002015600560056005600560062
:1051F00056005600560056005600560056005600FF
:1052000056005600560056005600560056005600EE
:1052100056005600560056005600560056005600DE
:1052200056005600200140F2DC04C2F20004201DAA
:1052300004F004FE002002F0D7F9FFF7CFFE0128AA
:1052400008BFFFF7C3FE206818B10068002840F0CF
:10525000218102B070BD802800F0DE80B0F5807F33
:1052600000F0ED80B0F5007FF3D1ABA30220002168
:10527000012204F003F901F09FFB042840F0F280C2
:1052800040F2DC04C2F20004201D04F0D7FD00202F
:1052900002F0AAF920680028DBD04068002840F01E
:1052A000F980D6E740F2DC06C2F2000606F11C00E7
:1052B00004F0C4FD607888B9002002F095F940F64A
:1052C0000210002102F0AAFB40F6441001F056FD46
:1052D00040F0020140F6441002F0A0FB40F24B50B7
:1052E000C2F200000DF10701FF2201F0B5FB04F14D
:1052F000240001F067FB30680028AAD08568002DE3
:10530000A7D094F82400012840F0C7809DF807102A
:1053100094F9302094F9313040F24B50C2F2000041
:10532000A84702B070BD79A3022000210122002508
:1053300004F0A4F8A06D00288BD0C0F3074140F61C
:10534000031002F06BFB94F8591040F6041002F0C1
:1053500065FB94F8581040F6051002F05FFB40F62C
:10536000021001F00BFD40F0010140F6021002F0C6
:1053700055FB40F2622040F2622100220023A56525
:1053800001F0A4FD02B070BD5DA302200021012246
:1053900004F074F8FFF720FE01287FF45AAFFFF7FE
:1053A00027FE02B070BD53A316E040F2DC05C2F246
:1053B000000505F11C0004F041FD607810B90020E3
:1053C00002F012F9286800283FF443AFC0680028B3
:1053D0003FF43FAF804744A302200021012204F0A4
:1053E0004DF802B070BD3CA302200021012204F060
:1053F00045F8607810B9002002F0F6F840F2DC00C1
:10540000C2F20000006800283FF423AF00690028C2
:1054100018BF804702B070BD002002F0E5F840F2EE
:10542000DC00C2F20000006800283FF412AF81697E
:1054300000293FF40EAF0020884702B070BD002065
:1054400002F0D2F840F2DC00C2F20000006800284E
:105450003FF4FFAE816900293FF4FBAE012088478D
:1054600002B070BD01F0A8FA05287FF4F2AE40F258
:10547000DC04C2F2000404F11C0004F0DFFC002094
:1054800002F0B2F8206800283FF4E3AEC0680028BC
:105490003FF4DFAE804702B070BDE06B694601F0BB
:1054A0008FF9306844F6D35386680098C1F26203DE
:1054B00000F5FA7050FB03F0830903EBD0709DF800
:1054C000071094F9292043B240F24B50C2F2000079
:1054D000B04702B070BD00BF4952515F4352435FB5
:1054E0004552524F520D0A00484452204B4F0D0A6C
:1054F00000000000484452204F4B0D0A00000000FD
:1055000053594E43204F4B0D0A0000005052452086
:105510004F4B0D0A000000004952515F52585F5432
:10552000585F54494D454F55540D0A002DE9F04F31
:1055300083B0064600201C46154689464FF0000AF7
:1055400002F052F840F24C67C2F20007002087F8E0
:1055500000A0FFF751FD002001F0B2FE304687F8B1
:105560000DA001F0F7FE01207870FFF72DFD40F24D
:10557000100BC2F2000BFF208BF80000002002F09D
:1055800055F84FF41670F8630B20B84687F84400BE
:10559000484608F838AF01F06BF987F84500182045
:1055A000388241F60400C0F200109BF80010C7F8E2
:1055B000120040F201103E46A7F81700002006F83E
:1055C0000EAFB97502F010F8002087F800A0FFF7C1
:1055D00013FD002001F074FE404687F80DA001F095
:1055E000CBFC304601F090FD49F2C140ADF804001B
:1055F000C1208DF8060001A8CDF807A08DF80BA0FA
:1056000002F062F840F2FF1002F0D4F9C7F808A0E7
:10561000FFF7E2FC012802D1FFF7E2FC07E040F2CD
:10562000622040F262210022002301F04FFC0021A1
:1056300097F85600B965002102F010F879786FF0FC
:105640007F40BA68002908BF900101F00BFF01F00C
:105650004FFA0330FBF78EFA04F028FA064600BF33
:10566000304604F02FFAA04205D201F0D3FAA84246
:10567000F6DD002400E00124002001F0B5FF204603
:1056800003B0BDE8F08F000040F24C61C2F20001AF
:10569000A1F85400FFF772BD40F2DC00C2F2000036
:1056A0000068002808BF7047C06800B10047704715
:1056B00040F2DC00C2F200000068002808BF70471A
:1056C000406800B10047704780B5002000210022EB
:1056D000002301F0FBFBBDE8804001F00BBA0000A5
:1056E00001F04CBB01F05ABB80B501F093FA80BDCC
:1056F000B0B50446FFF770FC012803D1FFF770FC3A
:105700004CB915E040F2622040F2622100220023F1
:1057100001F0DCFB64B140F2DC00C2F2000000F1F9
:105720001C052846214604F05FFA284604F0E2FAF8
:1057300040F24C64C2F20004002194F85600A165C6
:10574000002101F08BFF61786FF07F40A268002993
:1057500008BF9001BDE8B04001F084BEB0B504467A
:10576000FFF73AFC012803D1FFF73AFC4CB915E0EA
:1057700040F2622040F262210022002301F0A6FBE9
:1057800064B140F2DC00C2F2000000F11C052846C2
:10579000214604F029FA284604F0ACFA40F24C64A1
:1057A000C2F20004002194F85600A165002101F026
:1057B00055FF61786FF07F40A268002908BF900113
:1057C000BDE8B04001F072BE2DE9F04F81B08A46CD
:1057D000804640F2012040F201210022002301F026
:1057E00075FB40F24C69C2F2000999F8560001219C
:1057F00001F034FF99F8000099F8511080F001068B
:1058000040F6890081F0060701F0B8FA40F0040183
:1058100056EA070208BF00F0FB0140F6890002F0DB
:10582000FDF899F80000042800F2F080DFE800F0AD
:10583000031A031D2400FFF7CFFB012840F09480DA
:105840000DF1030240465146FFF7D8FB002800F057
:10585000958076A302200021012203F00FFE01B003
:10586000BDE8F08F89F81FA080E00221484600F8CB
:105870000E1F80F80CA07BE040F24B5BBAF1000FEA
:10588000C2F2000B00F08780AAF101000AF0030CBD
:1058900003284FF000011DD3ACEB0A0208F1010010
:1058A0006FF00303C718FC78E443FC700BEB0304B0
:1058B00021713E790433F6433E7161717E79F6437E
:1058C0007E71A171BE79F643BE71D7180437E171BC
:1058D000E8D1191DBCF1000F21D018F80100BCF16E
:1058E000010F6FEA000008F801004FF000000BF80C
:1058F000010014D04A1C18F80230BCF1020F6FEA04
:10590000030308F802300BF8020008D0881C18F8CE
:105910000010C94308F8001000210BF800104FEAEE
:10592000CA00002307220021C3F3C70618F8066047
:1059300022EA030726FA07F7013307F00107794047
:10594000C3F3C70622EA0304CFB21BF80650A740F0
:105950002F4383420BF80670E6D3C8010A0640EADB
:10596000811019D0002118E089F816A009F10E0065
:1059700001F0CAFB40465146002245E09DF8030075
:1059800089F8160009F10E0001F0BEFB9DF8031026
:105990004046002238E00020202108430BF80A008E
:1059A00002204D4605F80E0F0AF10108284685F839
:1059B0000C8001F0A9FBF120002102F02FF8F0206B
:1059C000002102F02BF8D5F83A40E121F320642CB5
:1059D00008BF702102F022F80421F220642C08BFD5
:1059E0001D2102F01BF84FEA5A11F4204FEACA04B5
:1059F00002F014F8A01CC1B2F52002F00FF85FFA13
:105A000088F158466FF07F4201F0DAF940F2DC008D
:105A1000C2F20000D9F80410041D204604F0E4F896
:105A2000204604F067F901B0BDE8F08F5261646967
:105A30006F53656E64204F76657273697A650D0ADF
:105A40000000000001F086BC012840F24C60C2F268
:105A5000000008D140F21002C2F20002C1770E30FD
:105A6000117001F051BB427D012A18BF704740F20E
:105A70001002C2F2000281750E30117001F044BBB9
:105A8000B0B540F24C65C2F2000504462870FFF73D
:105A9000B3FA052C2BD8DFE804F0030F2A09090319
:105AA0000020002401F00CFC6C73B0BD022001F05A
:105AB00007FC00206873B0BD012001F001FC2C7BC5
:105AC000687BA04208BFB0BD44EA0420A881012041
:105AD000FFF7D6FF4FF4E8607CB1342101F09EFF60
