:020000040800F2
:1000000048370020F901000891EF00085D8F0008D3
:1000100099EC0008DD2F000861A301080000000032
:10002000000000000000000000000000D56501088D
:100030009137000800000000F5F50008E1700108A4
:100040001302000813020008E577010813020008F4
:10005000130200081302000813020008130200082C
:10006000130200081302000813020008130200081C
:100070001302000813020008130200088537000865
:1000800013020008130200081302000813020008FC
:100090000000000013020008130200081302000809
:1000A00013020008130200081302000813020008DC
:1000B00013020008130200081302000813020008CC
:1000C00013020008130200081302000813020008BC
:1000D000130200081302000805900008130200082C
:1000E000130200081302000875FD0008130200083F
:1000F00013020008000000000000000013020008C6
:100100001302000813020008255301081302000817
:10011000130200081302000813020008130200086B
:10012000130200081302000813020008130200085B
:10013000130200081302000800F002F800F04CF867
:100140000AA090E8000C82448344AAF10107DA4532
:1001500001D100F041F8AFF2090EBAE80F0013F038
:10016000010F18BFFB1A43F00103184790E6010086
:10017000B0E601000A4410F8014B14F00F0508BF67
:1001800010F8015B240908BF10F8014B6D1E05D063
:1001900010F8013B6D1E01F8013BF9D1641E03D03C
:1001A000641E01F8015BFBD19142E4D3704700006B
:1001B0000023002400250026103A28BF78C1FBD870
:1001C000520728BF30C148BF0B6070471FB51CF0F5
:1001D00053F91FBD10B510BD00F06CF91146FFF7C3
:1001E000F5FF1AF001FD00F0A3F903B4FFF7F2FFE9
:1001F00003BC00F009FA000009488047094800479D
:10020000FEE7FEE7FEE7FEE7FEE7FEE7FEE7FEE7C6
:10021000FEE7FEE704480549054A064B7047000023
:10022000E177010839010008482D002048370020F7
:10023000482F0020482F002053EA020C00F069806C
:100240002DE9F04B4FF00006002B1FBFB3FA83F5EA
:1002500003FA05F424FA05F65E4012BF1643B2FA1B
:1002600082F502FA05F4C5F120051EBF22FA05FC4D
:1002700044EA0C04203556EA044C4FEA144418BFF3
:10028000641C4FF000084FF00009904271EB030C22
:1002900039D3002919BFB1FA81F701FA07F6B0FA8C
:1002A00080F700FA07F6C7F120071EBF20FA07FC07
:1002B00046EA0C062037B6FBF4FCA7EB0507103F17
:1002C00007F01F0BCBF120062CFA06F60CFA0BFBFD
:1002D00044BFB3460026202FA4BF5E464FF0000B5C
:1002E0005BEA060C08BF4FF0010B19EB0B0948EB5A
:1002F0000608ABFB027C06FB02CC0BFB03CCC01B4D
:1003000071EB0C01C1E70B46024641464846BDE889
:10031000F08B13B5084318BF4FF0FF300146AFF321
:100320000080BDE81C40704710B5431C02E010F887
:10033000011B71B18107FAD14FF0013202C88C1A4A
:100340008C4314EAC211F9D0C01A0A0603D0C01EA9
:1003500010BDC01A10BD0A0401D0801E10BD0902D4
:10036000FCD0401E10BD40EA010370B59B072ED1A2
:100370004FF00136042A2AD308C810C99D1B9D439B
:10038000121F15EAC61517D0D8B2E1B2401A50EACA
:10039000056110D198B2A1B2401A50EA05410AD1C4
:1003A00023F07F4024F07F41401A50EA052102D11A
:1003B000180EA0EB146070BDA342DBD018BA21BAAE
:1003C000884201D9012070BD4FF0FF3070BD0AB9DD
:1003D000002070BD10F8013B11F8014B63B1A3423E
:1003E0000AD1521E08D010F8013B11F8014B1BB185
:1003F000A34201D1521EEDD1181B70BD02F0FF03C4
:1004000043EA032242EA024200F02CB84FF0000215
:1004100000B5134694469646203922BFA0E80C50FA
:10042000A0E80C50B1F12001BFF4F7AF090728BFD5
:10043000A0E80C5048BF0CC05DF804EB890028BF51
:1004400040F8042B08BF704748BF20F8022B11F07A
:10045000804F18BF00F8012B7047704770477047F6
:100460004FF000020429C0F0128010F0030C3FF49A
:10047000CFAFCCF1040CBCF1020F18BF00F8012B78
:10048000A8BF20F8022BA1EB0C01FFF7C1BF5FEA68
:10049000C17C24BF00F8012B00F8012B48BF00F8F5
:1004A000012B7047004870474C01002000487047FE
:1004B000480100207546FFF7F9FFAE460500694682
:1004C000534620F00700854618B020B5FFF7A2FE7E
:1004D000BDE820404FF000064FF000074FF0000845
:1004E0004FF0000BAC46ACE8C009ACE8C009ACE882
:1004F000C009ACE8C00921F007018D467047000033
:100500001FB584B000200A9C06AB04AA02A900947F
:10051000AFF3008018B1DDE9020108B010BD034857
:10052000204000F00EF800200146F6E70000207C95
:1005300010B50446AFF300802046BDE81040FFF739
:1005400054BE10B500F00AF8BDE81040AFF30080CB
:10055000002801D000F058B87047000010B50228FC
:1005600003D0410103D50DA112E0002010BD01010F
:1005700001D50FA10CE0C10001D511A108E0810057
:1005800001D512A104E0400001D513A100E0002133
:1005900015A000F03FF8012010BD0000496E766103
:1005A0006C6964204F7065726174696F6E00000041
:1005B000446976696465204279205A65726F00004B
:1005C0004F766572666C6F7700000000556E64654B
:1005D00072666C6F77000000496E65786163742005
:1005E000526573756C7400005349474650453A2074
:1005F00041726974686D65746963206578636570BC
:1006000074696F6E3A20000001491820ABBEFEE706
:100610002600020070B505460C460A2000E06D1C5D
:1006200000F011F835B128780028F8D102E0641CF8
:1006300000F009F814B120780028F8D1BDE8704026
:100640000A20AFF3008008B569468DF8000003204A
:10065000ABBE08BD70470000B0B5016804468868AD
:100660008A6880074FF0000033D412F0010208BFFF
:10067000B0BD886800F0050001281FD188684FF6DA
:10068000E872C7F6FF7210400230886003200860ED
:1006900004F0FAFE21688968C90704BF0020B0BDD4
:1006A000054602E08068C00712D004F0EDFE411B51
:1006B00020680329F6D38168C907F3D0A06D40F004
:1006C0001000A065E06D40F00100E0650120B0BDC4
:1006D0000020B0BD70B582B00446002001902168B2
:1006E0008A68D20770D14FF6E876C7F6FF76886839
:1006F00006F12F0210420AD0A06D40F01000A06554
:10070000E06D40F00100E065012002B070BD886836
:10071000304040F00100886042F20870C4F20100ED
:100720000068000222D4607E01281CD004F0ACFED8
:1007300021680A68D20716D1054602E00868C0079A
:1007400041D18868C00704D18868304040F001007A
:10075000886004F099FE401B21680328EED30868E6
:10076000C007EBD1C8E7002002B070BD40F2101006
:10077000C2F20000006842F663518009C0F23E51A7
:10078000A0FB0101012000EB9110019001980028CD
:10079000C9D000BF01980138019001980028C2D04B
:1007A00001980138019001980028BCD001980138C7
:1007B000019001980028B6D0019801380190019865
:1007C0000028E7D1AFE7002002B070BDB0B584B01B
:1007D000002504460395CDE901550EF089F842F253
:1007E0008460C2F2000003F00FFA002818BF02F084
:1007F000D1FF42F28460C2F2000001A9CDE90145B7
:10080000039503F02FFC002818BF02F0C3FF42F24B
:100810008460C2F2000003F0B7FF002818BF02F0A6
:10082000B9FF42F28464C2F2000420464FF0FF3167
:1008300003F032FF204603F0D5FF204603F0BAFD57
:100840000546204603F042FD284604B0B0BD000036
:100850002DE9F04F9FB01BAE0C46129030460021A0
:1008600010221AF085FA30463146224619F08CFDE6
:100870009DF86D509DF96C009DF86E60E90941EAA4
:1008800040019DF86F704AB28DF86C10F10941EA91
:1008900045019DF8703015918DF86D10F90941EA08
:1008A000460114918DF86E10D9099DF8718041EAC6
:1008B000470116920D918DF86F104FEAD8119DF8EF
:1008C000722041EA430107930F918DF87010D1090E
:1008D0009DF8733041EA48019DF874B00E918DF88F
:1008E0007110D909039241EA420100284FEADB1056
:1008F0009DF8752040EA430008908DF873004FEA98
:10090000D2109DF876A040EA4B00069709908DF82A
:1009100074004FEADA109DF8777040EA42000293C3
:100920000A908DF875004FEAD7109DF8783040EAAC
:100930004A000B908DF876004FEAD3109DF879901D
:1009400040EA47000C908DF877004FEAD91040EA52
:10095000430E9DF87A0010918DF872104FEAD01175
:100960009DF87BC041EA490111918DF879104FEA59
:100970004C01049505968DF878E06FF0780548BF36
:1009800085EA4C01D4F814614FEADC1545EA4005CC
:10099000102E13958DF87A508DF87B1040F08180E1
:1009A00094F80101169B94F8022183EA000C159833
:1009B000149B5040159094F8030194F8042158407A
:1009C00014900D980F9B5040169094F8050194F8E0
:1009D0000621584007900E98109B80EA020594F873
:1009E000070194F8082183EA00070898099B504002
:1009F0000D9094F8090194F80A21584009900A983A
:100A00000B9B80EA020A94F80B0194F80C2183EA0C
:100A1000000B0C9894F8103180EA020894F80D014C
:100A200094F80E218EEA00061198119580EA0209C9
:100A300094F80F01139A84F80651424081EA0300AA
:100A40001499159B84F8031116990D9D84F80411CF
:100A50000799109784F80771099FCDF84CA084F886
:100A60000AA19246E64684F801C184F802318C4618
:100A700084F8051184F8085184F80971CDF838B06C
:100A800084F80BB1CDF83C8084F80C818046324666
:100A900084F80D6184F80E9184F80FA184F8100198
:100AA0003DE10196049EC446C6F38015DDF85880EA
:100AB00045EA480504958DF86C50059DB8F1000F86
:100AC000C5F38015159E45EA460515958DF86D50C0
:100AD000069DC5F38015149E45EA460506958DF8DA
:100AE0006E50079DC5F380150D9E45EA4605059598
:100AF0008DF86F50CCF38015DDF83CC0039E45EABD
:100B00004C050D958DF87050C6F380150E9E45EA84
:100B10004605029E07958DF87150C6F38016109D0C
:100B200046EA45060F968DF87260CBF38016089D55
:100B300046EA45068DF87360C2F38012099D42EAC9
:100B4000450210928DF87420CAF380120A9D42EA81
:100B500045020E928DF87520C7F380120B9F42EA72
:100B600047020A928DF87620C3F380120C9B42EA6A
:100B7000430A8DF877A0C9F3801242EA4E0214921C
:100B80008DF87820C0F38010019A4FF08003224442
:100B900082F80131119A4FEA410340EA420E6FF0A8
:100BA000780048BF80EA4103C9B2139AC90941EAF3
:100BB0004200D4F814210C938DF87B30531C0F2B7A
:100BC0008DF879E011908DF87A00C4F8143129D8A5
:100BD000002200BF234483F80121D4F814310133EB
:100BE000102BC4F814311DD2234483F80121D4F80A
:100BF000143101330F2BC4F8143113D8234483F874
:100C00000121D4F8143101330F2BC4F8143109D861
:100C1000234483F80121D4F814310133102BC4F894
:100C20001431D7D394F80121049894F8023150403C
:100C30000B90159894F8032158401590069894F855
:100C4000043180EA0205059894F805215840169071
:100C50000D9894F8063180EA020C079894F8072161
:100C600080EA030194F808310F9884F8035180EA70
:100C7000020B86EA03000D9094F80921109894F86D
:100C80000A3180EA02070E9894F80B21584013901D
:100C900094F80C310A988AEA0308504094F80D2120
:100CA00094F80E31DDF850A08EEA03098AEA0206B4
:100CB00094F80F21DDF844E094F810318EEA020A2E
:100CC0000C9A14955A400B9B0D9D9E4684F8013159
:100CD000159B119184F80231169B84F80611139923
:100CE000CDF83C8084F80C819046324684F804317B
:100CF00084F805C1CDF840B084F807B184F80851F4
:100D000084F8097184F80A110E9084F80B0184F8B4
:100D10000D6184F80E9184F80FA184F810812146AA
:100D200011F8F13F94F8F260159883EA0E030B7006
:100D300080EA060394F8F36084F8F230149B139869
:100D4000734094F8F46084F8F330169B734094F881
:100D5000F56084F8F4308CEA060394F8F66084F8C1
:100D6000F530119B734094F8F76084F8F630109BCF
:100D7000734094F8F86084F8F73085EA060394F835
:100D8000F96084F8F83087EA060394F8FA6084F88A
:100D9000F93080EA060394F8FB6084F8FA300E9B81
:100DA00094F8FF70734094F8FC6084F8FB300F9B5C
:100DB000734094F8FD6084F8FC3082EA060394F8EE
:100DC000FE6084F8FD3089EA060384F8FE3094F86A
:100DD00000318AEA070288EA030017AE84F8FF2090
:100DE00084F800013046102219F050FF1299304665
:100DF000224619F0C9FA1BA80021102219F0B8FFE9
:100E00001FB0BDE8F08F0000B0B50446F1300021FE
:100E10001022002519F0ACFF20460021F022C4F872
:100E20001451BDE8B04019F0A3BF000002460846C7
:100E3000102119F0BFBC00002DE9F04784B0044632
:100E4000D0F81401914600280E4600F0AA80C0F1A7
:100E500010074D4620444F4538BF3D4600F2011073
:100E6000AAB2314619F012FFD4F814014F452844B4
:100E7000C4F8140180F026811028C0F02381A04618
:100E800018F8F10F94F8011194F8F320484088F80D
:100E9000000094F8020194F8F21094F8F4304840FD
:100EA00094F8031184F8F20081EA020094F8041126
:100EB00094F8F57084F8F30081EA030094F80511C2
:100EC00084F8F40081EA070094F8F61094F80621FB
:100ED00084F8F50082EA010094F8F71094F80721ED
:100EE00084F8F60082EA010094F8F81094F80821DA
:100EF00084F8F70082EA010094F8F91094F80921C7
:100F000084F8F80082EA010094F8FA1094F80A21B3
:100F100084F8F90082EA010094F8FB1094F80B21A0
:100F200084F8FA0082EA010094F8FC1094F80C218D
:100F300084F8FB0082EA010094F8FD1094F80D217A
:100F400084F8FC0082EA010094F8FE1094F80E2167
:100F500084F8FD0082EA010094F8FF1094F80F2154
:100F600084F8FE0082EA010094F8001194F8102140
:100F700084F8FF0082EA01006F4684F800013846D9
:100F80004146102219F082FE38463946224619F0B1
:100F9000FBF940463946102219F078FE2E44A9EBA1
:100FA0000509B9F1110FC0F08480A9F1110004F115
:100FB000F10A20F00F08A6F110056E464F4600BF5B
:100FC00015F8100F94F8F11094F8F220484084F8C6
:100FD000F100687894F8F310504084F8F200A87893
:100FE00094F8F420484084F8F300E878504084F8FE
:100FF000F40094F8F50029791022484084F8F500AF
:1010000094F8F6006979484084F8F60094F8F700FF
:10101000A979484084F8F70094F8F800E979484045
:1010200084F8F80094F8F900297A484084F8F90027
:1010300094F8FA00697A484084F8FA0094F8FB00C2
:10104000A97A484084F8FB0094F8FC00E97A48400B
:1010500084F8FC0094F8FD00297B484084F8FD00EA
:1010600094F8FE00697B484084F8FE0094F8FF0085
:10107000A97B484084F8FF0094F80001E97B4840D0
:1010800084F800013046514619F000FE30463146E2
:10109000224619F079F950463146102219F0F6FD32
:1010A000103F102F8CD8A9EB0800A0F1100905F112
:1010B000100604F201101FFA89F2314619F0E6FD1C
:1010C000C4F8149104B0BDE8F087000010B582B0F8
:1010D0000DF1070008F0D0F818B10224204602B044
:1010E00010BD9DF807004EF2A4730090C0F60103F6
:1010F000002000210022002418F0EEFA204602B061
:1011000010BD000080B5007800F0FE0130291CBF42
:10111000022080BD303818BF012008F0B3FD002048
:1011200080BD00002DE9F04F97B013A808F0CAF871
:1011300020B10124204617B0BDE8F08F9DF8510082
:101140009DF8546012909DF852009DF855701190D2
:101150009DF85600CDE908670AAE9DF84C809DF8D1
:1011600057109DF858209DF859309DF85AC09DF8A9
:101170005BE086E80F5012989DF84D909DF84EA0C8
:101180009DF84FB09DF850409DF853508DE8000FEA
:10119000059011984DF209530494CDE90605C0F667
:1011A0000103002000210022002418F095FA2046B7
:1011B00017B0BDE8F08F00002DE9F04F95B011AAEF
:1011C0000F90501C109002F1090002F10A0102F187
:1011D000020902F1030802F1040E02F1050A02F10C
:1011E000060BD61D02F108070E9002F10B0402F166
:1011F0000C0502F10D0002F10E0308910BA902F19A
:101200000F0C09940A9581E80910CDE90098CDE901
:1012100002EACDE904B606974DF20071109BDDE9B4
:101220000E70C0F60101079719F0F2FD102808D1E1
:1012300011A808F061FD002818BF012015B0BDE815
:10124000F08F022015B0BDE8F08F00002DE9F04FBF
:1012500097B013A808F04EF820B10124204617B02B
:10126000BDE8F08F9DF851009DF8546012909DF8F4
:1012700052009DF8557011909DF85600CDE9086711
:101280000AAE9DF84C809DF857109DF858209DF8A7
:1012900059309DF85AC09DF85BE086E80F501298CF
:1012A0009DF84D909DF84EA09DF84FB09DF8504090
:1012B0009DF853508DE8000F059011984DF2095399
:1012C0000494CDE90605C0F60103002000210022A8
:1012D000002418F001FA204617B0BDE8F08F000096
:1012E0002DE9F04F95B011AA0F90501C109002F10B
:1012F000090002F10A0102F1020902F1030802F1F8
:10130000040E02F1050A02F1060BD61D02F10807D0
:101310000E9002F10B0402F10C0502F10D0002F136
:101320000E0308910BA902F10F0C09940A9581E8AC
:101330000910CDE90098CDE902EACDE904B6069797
:101340004DF20071109BDDE90E70C0F601010797A8
:1013500019F05EFD102808D111A808F0EDFC002856
:1013600018BF012015B0BDE8F08F022015B0BDE810
:10137000F08F0000B0B582B00078312805D0302859
:1013800025D10120012108F095F90220012108F062
:1013900091F942F24C45C2F200054FF2410300249C
:1013A000C0F6000328464FF4FA510022009418F0CA
:1013B000E5FC284618F024FE43F2C942C0F60002BC
:1013C0000820002118F094FB204602B0B0BD022492
:1013D000204602B0B0BD000010B582B00DF107008C
:1013E00008F0D4F818B10224204602B010BD9DF9CF
:1013F00007004EF2A4730090C0F601030020002104
:101400000022002418F068F9204602B010BD000048
:1014100080B582B04DF2F761C0F601010DF107020F
:1014200019F0F6FC012803D19DF807000F2802D916
:10143000022002B080BD40B208F0D8FD002818BFDD
:10144000012002B080BD000010B586B005A807F0ED
:1014500095FF18B10224204606B010BD059800245F
:10146000010EC0F30742C0F30723C0B28DE80E009F
:10147000039004A300200021002218F02DF920463B
:1014800006B010BD253032583A253032583A253052
:1014900032583A253032580D0A00000080B584B029
:1014A0000DF10C0C0CF101010CF103020CF1020323
:1014B000009109A1CDF804C019F0AAFC042807D1B5
:1014C000039808F059FC002818BF012004B080BD23
:1014D000022004B080BD00BF256868783A2568689E
:1014E000783A256868783A2568687800B0B58AB097
:1014F00008A807F059FF18B1022420460AB0B0BD71
:101500009DF820009DF823309DF821109DF82220A1
:101510009DF824409DF825C09DF826E09DF82750B1
:101520008DE81F504DF23153C0F601030020002119
:1015300000220795002418F0CFF820460AB0B0BD6D
:1015400070B588B006AA911C02F1030C02F1040EDA
:101550008DE802504DF22871531C541D951DD61D67
:10156000C0F60101CDE90345059619F051FC0828A4
:1015700007D106A808F020FC002818BF012008B0F9
:1015800070BD022008B070BD10B582B00DF09CF99E
:1015900048B104460DF1070007F0DAFE38B1022425
:1015A000204602B010BD0124204602B010BDA06844
:1015B000012813D140F68C50C2F2000001789DF84A
:1015C0000700012908BF00280AD10DF1060007F025
:1015D000A9FE88B10224204602B010BD9DF8070084
:1015E000413000900BA3002000210022002418F0BD
:1015F00073F8204602B010BD9DF90600092803D8F3
:1016000006A151F82030EEE74DF29843C0F60103F1
:10161000E9E700BF25630D0A000000008AD4010835
:101620008AD4010898D4010898D401088AD4010802
:1016300091D4010898D4010891D4010891D40108EB
:1016400091D4010810B504460DF03EF9A0B12278FE
:101650000146432A4FF002001BD0422A0ED0412AF5
:1016600018BF10BD886801284FF0000011D140F666
:101670008C51C2F200010BE0012010BD88680128E6
:101680001CBF072010BD40F68C51C2F200010120A2
:10169000087008F0CFF90146002818BF0120033177
:1016A00008BF052010BD000010B582B00DF1070085
:1016B00007F092FE18B10224204602B010BD9DF83A
:1016C00007004EF2A4730090C0F601030020002131
:1016D0000022002418F000F8204602B010BD0000DF
:1016E00080B5007800F0FE0130291CBF022080BDCB
:1016F000303818BF012008F07FFB002080BD0000BB
:1017000080B50078302807D031280BD10220012184
:1017100007F0D0FF002080BD0120012107F0CAFFA3
:10172000002080BD022080BD10B582B001A807F066
:1017300061FE18B10224204602B010BD01984DF29E
:1017400074630090C0F601030020002100220024F1
:1017500017F0C2FF204602B010BD000080B582B075
:101760004DF2FC61C0F6010101AA19F051FB0128FC
:1017700008D1019808F04CFB002818BF0120400058
:1017800002B080BD022002B080BD000010B582B062
:1017900001A807F045FE18B10224204602B010BD92
:1017A00001984DF274630090C0F6010300200021FF
:1017B0000022002417F090FF204602B010BD000068
:1017C00080B582B04DF2FC61C0F6010101AA19F0AA
:1017D0001FFB012808D1019808F02AFB002818BF38
:1017E0000120400002B080BD022002B080BD000098
:1017F000B0B58AB008A807F04DFD18B10224204604
:101800000AB0B0BD9DF820009DF823309DF821104E
:101810009DF822209DF824409DF825C09DF826E0E3
:101820009DF827508DE81F504DF23153C0F601034B
:101830000020002100220795002417F04DFF2046CC
:101840000AB0B0BD70B588B006AA911C02F1030CB5
:1018500002F1040E8DE802504DF22871531C541D04
:10186000951DD61DC0F60101CDE90345059619F079
:10187000CFFA082807D106A808F01EFA002818BFDA
:10188000012008B070BD022008B070BD80B507F01F
:1018900087FF002818BF0120400080BD80B594B0AC
:1018A00007A815F067FC079841F60E41084409A9FE
:1018B000079015F095FCDDE90D30DDE909E1DDE982
:1018C0000B2C013300F26C70CDE90021CDF808E05B
:1018D000CDE9043005A3002000210022CDF80CC082
:1018E00017F0FAFE002014B080BD00BF4C54494DE3
:1018F000453A2530326468253032646D25303264D3
:1019000073206F6E20253032642F253032642F25EE
:101910003034640D0A00000010B582B001A807F051
:1019200095FD18B10224204602B010BD01984EF278
:10193000A4730090C0F601030020002100220024BF
:1019400017F0CAFE204602B010BD000080B582B07C
:101950004DF2F461C0F6010101AA19F059FA01280B
:1019600002D101987F2802D9022002B080BD08F080
:101970006FFA002002B080BD2DE9F04F97B013A898
:1019800007F07AFD20B10124204617B0BDE8F08FA2
:101990009DF851009DF8546012909DF852009DF8FA
:1019A000557011909DF85600CDE908670AAE9DF874
:1019B0004C809DF857109DF858209DF859309DF89F
:1019C0005AC09DF85BE086E80F5012989DF84D9044
:1019D0009DF84EA09DF84FB09DF850409DF8535093
:1019E0008DE8000F059011984DF209530494CDE94C
:1019F0000605C0F60103002000210022002417F094
:101A00006BFE204617B0BDE8F08F00002DE9F04FC7
:101A100095B011AA0F90501C109002F1090002F12C
:101A20000A0102F1020902F1030802F1040E02F1B7
:101A3000050A02F1060BD61D02F108070E9002F10D
:101A40000B0402F10C0502F10D0002F10E030891E6
:101A50000BA902F10F0C09940A9581E80910CDE950
:101A60000098CDE902EACDE904B606974DF200717F
:101A7000109BDDE90E70C0F60101079719F0C8F957
:101A8000102808D111A808F003FA002818BF012077
:101A900015B0BDE8F08F022015B0BDE8F08F000052
:101AA0002DE9F04F97B013A807F0FEFC20B10124F8
:101AB000204617B0BDE8F08F9DF851009DF85460A6
:101AC00012909DF852009DF8557011909DF85600A7
:101AD000CDE908670AAE9DF84C809DF857109DF837
:101AE00058209DF859309DF85AC09DF85BE086E873
:101AF0000F5012989DF84D909DF84EA09DF84FB054
:101B00009DF850409DF853508DE8000F05901198B6
:101B10004DF209530494CDE90605C0F601030020F7
:101B200000210022002417F0D7FD204617B0BDE8A1
:101B3000F08F00002DE9F04F95B011AA0F90501CC6
:101B4000109002F1090002F10A0102F1020902F10A
:101B5000030802F1040E02F1050A02F1060BD61D7C
:101B600002F108070E9002F10B0402F10C0502F1DC
:101B70000D0002F10E0308910BA902F10F0C09945C
:101B80000A9581E80910CDE90098CDE902EACDE98E
:101B900004B606974DF20071109BDDE90E70C0F699
:101BA0000101079719F034F9102808D111A808F09D
:101BB0008FF9002818BF012015B0BDE8F08F022072
:101BC00015B0BDE8F08F000010B582B00DF1070030
:101BD00007F082FC18B10224204602B010BD9DF827
:101BE00007004EF2A4730090C0F60103002000210C
:101BF0000022002417F070FD204602B010BD000046
:101C000080B582B04DF2F761C0F601010DF1070217
:101C100019F0FEF8012803D19DF80700072802D922
:101C2000022002B080BD08F073F9002818BF01201F
:101C3000400002B080BD000010B584B00DF10F006F
:101C400007F00CFB18B10224204604B010BD9DF82B
:101C50000F00092803D90224204604B010BD07A1B3
:101C600051F820100FA3CDE900010020002100222F
:101C7000002417F031FD204604B010BDBAD601088B
:101C8000D2D60108B0D60108E4D60108C0D60108B2
:101C9000DED60108AAD60108D8D60108CCD601089C
:101CA000C6D6010825643A25730D0A0080B582B0B6
:101CB0004DF2F761C0F601010DF1070219F0A8F825
:101CC000012803D19DF80700092802D9022002B09B
:101CD00080BD07F0BBFF002818BF0120400002B004
:101CE00080BD000010B582B001A807F023FC18B138
:101CF0000224204602B010BD01984DF2746300909A
:101D0000C0F60103002000210022002417F0E4FCAB
:101D1000204602B010BD000080B582B04DF2FC61DB
:101D2000C0F6010101AA19F073F8012808D1019841
:101D300008F03CF9002818BF0120400002B080BD27
:101D4000022002B080BD000080B584B002A807F078
:101D5000D1FB9DF80CC04EF2A473C0F60103002025
:101D600000210022CDF800C017F0B6FC002004B01E
:101D700080BD0000B0B582B06D460446284607F02D
:101D8000B9FB4DF2F7612A1DC0F60101204619F09A
:101D90003FF801284FF002000AD19DF804100F29E6
:101DA00006D8684608F0EEF8002818BF0120400069
:101DB00002B0B0BD10B582B001A807F0D1FB18B1D8
:101DC0000224204602B010BD01984DF274630090C9
:101DD000C0F60103002000210022002417F07CFC43
:101DE000204602B010BD000080B582B04DF2FC610B
:101DF000C0F6010101AA19F00BF8012808D10198D9
:101E000008F0E4F8002818BF0120400002B080BDAF
:101E1000022002B080BD000080B584B002A807F0A7
:101E200069FBDDF808C04EF2A473C0F60103002080
:101E300000210022CDF800C017F04EFC002004B0B5
:101E400080BD0000B0B582B06D460446284607F05C
:101E500051FB4DF2FC61C0F6010120462A4618F004
:101E6000D7FF012808D1684608F08CF8002818BF71
:101E70000120400002B0B0BD022002B0B0BD0000A1
:101E80002DE9F04782B00446FEF74EFA05460020E1
:101E90008DF80200ADF800006CA101AA204618F0F0
:101EA000B7FF012831D1A9B2207802293CD3A0F193
:101EB0003001092938D80234691E8AB214F8010C9D
:101EC000022A2DD3A0F130020A2A29D2A91E8AB2F1
:101ED0002078022A27D3A0F13002092A23D8E91E4C
:101EE0008AB26078022A1DD3A0F13002092A19D8DB
:101EF000043DA9B2A078022904F1040403D3A0F19F
:101F000030010A29D8D3023C0EE051A30020002161
:101F1000002217F0E1FB0224204602B0BDE8F08762
:101F2000013C00E001340D4629040BD03A2809D1C8
:101F3000274617F8010F302806D031283ED14FF040
:101F4000010803E04CA33AE04FF00008A8B20128D2
:101F5000A5F1010080B218BFA71C022829D3387848
:101F60003A2826D1EE1EB0B2022832D340F2C00A7F
:101F70000024C2F2000A0FF230196D4607EB44004C
:101F800041788DF800108078DAF804108DF801009F
:101F90000A192846494618F03BFF01281CD1023E89
:101FA000B0B2022804F1010114D3F12C0C46E5D3A0
:101FB00010E04DF2F753C0F6010300E03CA300200F
:101FC0000021002217F088FB0224204602B0BDE861
:101FD000F0870021300404D00224204602B0BDE87E
:101FE000F08740F2C000019AC2F200004170027016
:101FF00041460022002407F091FD063006281AD839
:10200000DFE800F01E0F05140519040084E707F04F
:10201000B3FB0524012808BF0324204602B0BDE815
:10202000F0870924204602B0BDE8F0870524204649
:1020300002B0BDE8F0870124204602B0BDE8F08779
:102040000824204602B0BDE8F08700BF25753A009D
:1020500041542B53454E4420776974686F75742042
:10206000746865206170706C69636174696F6E205B
:10207000706F72740D0A000041542B53454E44207A
:102080006D697373696E67203A206368617261637A
:102090007465722061667465722061707020706F63
:1020A00072740D0A000000002568687800000000C6
:1020B00041542B53454E4420776974686F757420E2
:1020C0007468652061636B6E6F776C65646765200B
:1020D000666C61670D0A000010B582B00DF1070053
:1020E00007F070FA18B10224204602B010BD9DF925
:1020F00007004EF2A4730090C0F6010300200021F7
:102100000022002417F0E8FA204602B010BD0000BB
:1021100080B582B04DF2F761C0F601010DF1070202
:1021200018F076FE012809D19DF9070007F07EFF1F
:10213000002818BF0120400002B080BD022002B07C
:1021400080BD000080B582B014F046FA4EF2A47350
:102150008446C0F60103002000210022CDF800C013
:1021600017F0BAFA002002B080BD00002DE9F0435C
:102170008DB070B1417802290ED0032914BF22A37B
:102180001AA30020002100220DB0BDE8F04317F093
:10219000A3BA0DB0BDE8F08390F810E0B0F912904A
:1021A00090F91430D0F804C0C168447D857D90F862
:1021B0001780077E467E827EC07ECDE90876CDE917
:1021C0000A20CDE900E9CDE902314DF25B53C0F6BA
:1021D0000103002000210022CDE904C40695CDF8BA
:1021E0001C8017F079FA0DB0BDE8F0832B455654EA
:1021F0003A424541434F4E5F4E4F545F524543452F
:10220000495645440D0A00002B4556543A42454173
:10221000434F4E5F4C4F53540D0A000080B582B0BF
:1022200006A111F800C006A3002000210022CDF86D
:1022300000C017F051FA02B080BD00BF4142430018
:102240002B4556543A5357495443485F544F5F43C4
:102250004C4153535F25630D0A00000004A109A3FC
:10226000012808BF0B4600200021002217F034BAD5
:102270004E564D20444154412053544F5245440D35
:102280000A0000004E564D2044415441205245530F
:10229000544F5245440D0A008AB24FF20001C0F675
:1022A000030117F0D7BB0000B0B50C46054602F09D
:1022B000F3FE002818BFB0BD47F2E050C1F6FF7032
:1022C00000684FF60041C0F2FF3101EA80204FF470
:1022D0007C31B1FBF0F100224843C0F57C30C00AEC
:1022E000012101F05DFA18B1BDE8B04002F0FEBD79
:1022F0004FF20000C0F6030029462246002301F0F9
:1023000069FABDE8B04002F0F1BD000058B1017AB1
:10231000012918BF7047407A28B103A3002000218B
:10232000002217F0D9B970472B4556543A53454E01
:10233000445F434F4E4649524D45440D0A0000004C
:1023400008B1407928B10AA300200021002217F02B
:10235000C3B903A300200021002217F0BDB900BFBC
:102360002B4556543A4A4F494E45440D0A00000049
:102370002B4556543A4A4F494E204641494C454414
:102380000D0A00002DE9F04786B0894680B3054666
:10239000406895F8008038B36F782FB332A30020DF
:1023A00000210022F22F28BFF227CDE90087002666
:1023B00017F092F90FF2C00A002400BF68680021EC
:1023C000865D002000225346009617F085F90134FF
:1023D000E6B2B742F2D84EF20563C0F60103002020
:1023E0000021002217F078F9B9F1000F05D137E08C
:1023F0004FF00008B9F1000F32D099F8100005280D
:102400002ED81FA151F8207099F9080099F90910E8
:1024100099F90A20CDE90180CDE903121EA300201D
:1024200000210022009717F057F999F8110058B1D0
:1024300099F8120099F81370009022A3002000214F
:102440000022019717F048F94EF20563C0F6010328
:1024500000200021002206B0BDE8F04717F03CB98B
:1024600006B0BDE8F08700BF2B4556543A25643AC4
:10247000253032583A000000253032580000000064
:10248000B6D60108B8D601088DE70108EAD60108DA
:1024900095E70108EFD601082B4556543A52585F8C
:1024A00025732C20504F52542025642C2044522058
:1024B00025642C20525353492025642C20534E521E
:1024C000202564002C20444D4F444D2025642C20B1
:1024D00047574E202564000017F044FF80B502F0F6
:1024E000DBFD08B1002080BD47F2E050C1F6FF706F
:1024F00000684FF60041C0F2FF3101EA80204FF43E
:102500007C31B1FBF0F100224843C0F57C30C00AB9
:10251000012101F045F918B102F0E8FC002080BD6E
:1025200017F020FF0120704710B507F047F910F1B0
:1025300008014FF0000405D0C0B2FF2808D10124E3
:102540000AA300E003A300200021002217F0C4F832
:10255000204610BD4E564D20444154412055502038
:10256000544F20444154450D0A0000004E564D2062
:10257000444154412053544F5245204641494C4513
:10258000440D0A0080B58EB002A815F009FFDDF8F1
:102590000CC093A3002000210022CDF800C017F04A
:1025A0009BF8DDF810C093A3002000210022CDF895
:1025B00000C017F091F80298032804D0012869D0D0
:1025C000002840F0DF80DDF814C04DF27963C0F6DA
:1025D0000103002000210022CDF800C017F07CF894
:1025E000DDF818C04DF23F63C0F601030020002162
:1025F0000022CDF800C017F06FF84DF2B953C0F6C5
:10260000010300200021002217F066F8DDF820C049
:102610004DF2B633C0F60103002000210022CDF8B0
:1026200000C017F059F8DDF824C04DF2CB33C0F6E6
:102630000103002000210022CDF800C017F04CF863
:1026400002984DF2E1414DF2F543C0F60101C0F6AA
:102650000103002808BF0B4600200021002217F0CC
:102660003BF8DDF828C04DF22463C0F601030020DA
:1026700000210022CDF800C017F02EF802980028A3
:1026800000F087804DF29F43C0F601030020002137
:10269000002289E005984CF60011C0F6010151F8BE
:1026A00020C04DF26E430090C0F6010300200021CF
:1026B0000022CDF804C017F00FF8DDF818C04DF275
:1026C000FA33C0F60103002000210022CDF800C03B
:1026D00017F002F807984DF2E53300F1040C009072
:1026E000C0F60103002000210022CDF804C016F03E
:1026F000F3FFDDF820C04DF2B633C0F60103002031
:1027000000210022CDF800C016F0E6FFDDF824C05D
:102710004DF2CB33C0F60103002000210022CDF89A
:1027200000C016F0D9FF4DF2CC43C0F601030020E3
:102730000021002216F0D0FFDDF828C04DF22463FE
:10274000C0F60103002000210022CDF800C016F0E1
:10275000C3FF2DA300200021002216F0BDFFDDF8ED
:1027600030C034A3002000210022CDF800C016F0B4
:10277000B3FF37A300200021002216F0ADFF002098
:102780000EB080BDDDF818C04DF25963C0F60103EC
:102790001BE0DDF82CC04DF28F63C0F60103002072
:1027A00000210022CDF800C016F096FF4DF2D9535B
:1027B000C0F6010300200021002216F08DFFDDF895
:1027C00034C04DF20743C0F601030020002100226F
:1027D000CDF800C016F080FF00200EB080BD00BF15
:1027E000313A20467265713D20256420487A0D0AF1
:1027F00000000000323A20506F7765723D2025645A
:102800002064426D0D0A000031303A204672657135
:1028100075656E637920646576696174696F6E2091
:102820006E6F74206170706C696361626C650D0A13
:102830000000000031313A204C6F7744526F7074C1
:102840005B3020746F20325D3D202564200D0A002E
:1028500031322042542070726F64756374206E6F41
:1028600074206170706C696361626C650D0A0000B0
:1028700080B582B04DF2F461C0F6010101AA18F0F2
:10288000C7FA012807D1019815F0D4F9002818BF1C
:10289000012002B080BD04A300200021002216F018
:1028A0001BFF022002B080BD41542B5452583A20E5
:1028B0006E62206578706563746564207061636B17
:1028C000657473206973206D697373696E670D0A8F
:1028D0000000000080B515F031FB002818BF032070
:1028E00080BD000070B5A4B0044618A83021FDF7E3
:1028F0008DFD0CA80DA90EAACDE908210A9011A9F9
:1029000012AA13AB0BA814AD15AE0DF13C0C0DF1D2
:10291000400ECDE90065CDE90203CDE9042155A1C2
:1029200017AA16AB2046CDF818E0CDF81CC018F059
:102930006FFA0D2840F09B8018A815F031FD109813
:10294000032800F29480DFE800F00204060800216A
:1029500004E0012102E0022100E00321179844F283
:102960004023169AC0F20F031891B0F57A7F38BF52
:10297000584302F109031F2B199078D80029084603
:1029800018BF0120CB1E18BF0123184215981A92B8
:1029900007D140F67953A0F59652C0F207039A4248
:1029A00003D301292CD107282AD21B90149A49F26B
:1029B0008910C0F2040019B9A2F51673834207D337
:1029C000032920D1A2F1640300F5FA7083421AD2E0
:1029D0001C92129801284AD8119A1E90012A98BF79
:1029E0001F920F98421EFE2A41D84A1E032A2090A9
:1029F00021D288072DD40D98022838D8229030E0B3
:102A00000229D3D033E001290DD1501F08280AD262
:102A100013981C92431F032B29D804381D90129839
:102A2000012824D8D8E702294FF002001DD1B2F5C1
:102A30007A7FCDD919E04FF00200B1B90E9940F676
:102A4000E823A1F51672C0F203039A420DD8219132
:102A500003E0022905D0032909D10C98042806D8DF
:102A6000239018A815F0A6FC002024B070BD022009
:102A700024B070BD25643A25643A25643A25643A49
:102A800025642F25643A25643A25643A25643A255D
:102A9000643A25643A25643A2564000080B515F04F
:102AA00095FC04A300200021002216F015FE002052
:102AB00080BD00BF546573742053746F700D0A009D
:102AC00080B582B04DF2F461C0F6010101AA18F0A0
:102AD0009FF9012807D1019815F0BCFA002818BF0A
:102AE000012002B080BD04A300200021002216F0C6
:102AF000F3FD022002B080BD41542B5454583A20BB
:102B00006E62207061636B6574732073656E7420F0
:102B10006973206D697373696E670D0A00000000A8
:102B200080B515F00FFC002818BF032080BD000001
:102B30002DE9F04194B011A910AF009124A113AA7E
:102B400012AB019718F064F9042839D1139EF008EC
:102B50007C2844F24020C0F20F009CBF46431396ED
:102B60001299CA087C2A9CBF48431290109818B347
:102B7000002704AC0FF26408204615F011FC204633
:102B8000059615F017FC109D0020002101224346F8
:102B9000CDE90067029516F09FFD012015F05AFA65
:102BA00090B9119801373044DDE91216884298BF78
:102BB000064610988742DFD3002014B0BDE8F081AC
:102BC000022014B0BDE8F081032014B0BDE8F0810C
:102BD00025752C25752C25752C25750054782048D5
:102BE0006F70206174202564487A2E202564206F40
:102BF000662025640D0A000080B582B016F07CFEC8
:102C00004DF274638446C0F60103002000210022C7
:102C1000CDF800C016F060FD002002B080BD0000BD
:102C200080B582B04DF2F461C0F6010101AA18F03E
:102C3000EFF8012807D1019804280DD34DF22A435B
:102C4000C0F6010300E007A300200021002216F0D7
:102C500043FD022002B080BDC0B216F08BFE002002
:102C600002B080BD41542B564C3A20766572626F9B
:102C70007365206C6576656C206973206E6F7420B7
:102C800077656C6C207365740D0A000070B586B0B2
:102C90004DF29533002402250126C0F601030020E1
:102CA00000210022CDE90065029416F015FD0420F4
:102CB0004DF27433CDE90050C0F60103002000212D
:102CC0000022029416F008FD19A300200021002222
:102CD000CDE90065029416F0FFFC05AC002021460A
:102CE00006F086FC05981BA3010EC0F30742C0F353
:102CF0000726CDE90012002000210022029616F0DE
:102D0000EBFC0120214606F073FC0598010EC0F390
:102D10000742C0F30723C6B28DE80E0016A30020B9
:102D200000210022039616F0D7FC002006B070BDEB
:102D30004D575F524144494F5F56455253494F4E9C
:102D40003A202020205625582E25582E25580D0A89
:102D5000000000004C325F535045435F56455253CC
:102D6000494F4E3A20202020205625582E25582EF7
:102D700025580D0A0000000052505F535045435F34
:102D800056455253494F4E3A202020202056255870
:102D90002D25582E25582E25580D0A0003281FD8FA
:102DA00010B50021C000C0F20111C1404FF4807283
:102DB00022FA00F4CAB24FF09040402102F05EFBCC
:102DC000E2B24FF09040802102F058FB40F6000044
:102DD000C4F600002021002202F050FBBDE81040A4
:102DE000002070471621002808BF0F2108467047B1
:102DF00002207047B0B586B000204C210490C5F683
:102E000000010A686C4642F001020A60096801F09C
:102E1000010105910599802100910121CDE9011061
:102E2000032003904FF09040214602F03DFA40F617
:102E300000052020C4F6000500902846214602F037
:102E400033FA402000904FF09040214602F02CFAD7
:102E500028462021002202F011FB4FF090408021F3
:102E6000002202F00BFB4FF090404021002202F0C4
:102E700005FB002006B0B0BD012070470020704760
:102E800070B500284FF0000418BF002901D1A0B28E
:102E900070BD4FF6FE72C0F20102012901F0010C73
:102EA00005D100210024BCF1000FF0D067E0ACEBAD
:102EB000010E00246FF0010341F22101C518AE7824
:102EC000ED7884EA062402EA4406240448BF4E4012
:102ED00002EA4604360448BF4C4002EA4406240491
:102EE00048BF4E4002EA4604360448BF4C4002EA5E
:102EF0004406240448BF4E4002EA4604360448BF54
:102F00004C4002EA4406240448BF4E4002EA46040C
:102F1000360448BF4C4084EA052402EA44052404F0
:102F200048BF4D4002EA45042D0448BF4C4002EA28
:102F30004405240448BF4D4002EA45042D0448BF1F
:102F40004C4002EA4405240448BF4D4002EA4504CF
:102F50002D0448BF4C4002EA4405240448BF4D40BC
:102F600002EA45042D0403F102030EEB030548BFFA
:102F70004C400235A2D1991CBCF1000F87D0405CB7
:102F800084EA002102EA410341F22100090448BF1A
:102F9000434002EA43011B0448BF414002EA4103A7
:102FA000090448BF434002EA43011B0448BF4140B3
:102FB00002EA4103090448BF434002EA43011B04FB
:102FC00048BF414002EA4103090448BF434002EAC6
:102FD0004304190448BF4440A0B270BDFEE700009E
:102FE00040F2B811C2F200010A69531C092B0B61AF
:102FF00003D1012008700A6109E08A680078531C37
:103000000A448B60082B107604BF00208860486853
:10301000002808BF7047004710B5044642F6E1702B
:10302000C0F6000016F0ACFC40F2B810C2F200008E
:103030000021002C18BF4460C0E90211C0E904114E
:10304000017010BD2DE9F04F81B040F2B815C2F209
:1030500000052878012818D14DF6A534C0F60104E2
:10306000002000210022234616F036FB0028F7D16D
:10307000EFF31080EFF3108172B6A968E9600021C8
:103080002961297080F3108869612869002800F09F
:103090007E8142F2684B4DF65E384DF6A536C2F29F
:1030A000000B4FF00009C0F60108C0F6010617E05A
:1030B0000131531CE9606B6108290BF8020008BF5D
:1030C000C5F80C90EFF31080EFF3108172B6296908
:1030D0000139296180F310882869002800F05781A0
:1030E000E9686818007E0D2818BF0A2840F0D080D3
:1030F000481CB0F1080118BF0146E960EFF31080E9
:10310000EFF3108172B629690139296180F31088C3
:1031100068690028E0D04FF0000C0BF800C0EFF316
:103120001080022200230090EFF3108072B603E0BB
:103130000CF1010C0133013A1BF803000828F7D009
:103140000028F7D1BCF1000F64D000279A46002078
:1031500009E000BF31460130023F604502F1020242
:103160002BF8019056D04FF0FF3500BF0BEB050652
:10317000717808290AD0B17808290BD0F17808298C
:1031800022D0317904350829F0D104E0013525B980
:1031900040E000BF0235002D3CD0AAF1020A6E1EAD
:1031A0005645D7D2791B5C18611E11F00301A4F1BA
:1031B000020E1CD005EB0B0999F8014001290BF810
:1031C000064005D12E4610E00335002DE5D121E063
:1031D00099F80240022905F101060BF8054004D0D8
:1031E00099F803100BF80610AE1C4FF00009BEF161
:1031F000030F5146AFD30BEB06010439B5180E4649
:10320000CC88043526F8044FB488CC803146F7D1F9
:103210005146A0E7009880F310889BF80000012534
:10322000412840F09D809BF801004DF63A744CF621
:10323000B8175428C0F60104C0F6010740F090808A
:103240009BF8020010B33F2851D100BF002000219D
:103250000022234616F040FA0028F7D1002500BFCF
:1032600005EB450007EBC000446900BF00200021CA
:103270000022234616F030FA0028F7D10135272D19
:10328000EED100BF16F05CFB0128FBD1002567E002
:1032900001281AD1481CB0F1080118BF0146E960A5
:1032A000EFF31080EFF3108172B6296901392961BB
:1032B00080F31088002000210022434616F00CFA0B
:1032C0000028F7D1C5F8149006E76A6940F21B237D
:1032D0009A427FF4EDAEC5F8149000BF00200021A3
:1032E0000022334616F0F8F90028F7D1F4E600265C
:1032F000BD196C68B9590BF102002246FDF733F88D
:1033000020B11836B6F56A7FF2D113E00BEB04005A
:1033100010F8021F81B13D2911D03F290AD16C69F3
:103320000020002100222346002516F0D5F90028B0
:10333000F6D115E0012513E0296988470BE0014625
:1033400011F8012F3F2A01D1807808B1EA6800E026
:10335000AA68084690470546092888BF0A2500BF85
:103360000CA04DF6A53650F82540C0F6010600BF6A
:10337000002000210022234616F0AEF90028F7D1E4
:1033800040F2B815C2F20005C5F81490A4E601B0E9
:10339000BDE8F08FFADA010851DB01082ADB0108E9
:1033A0006EDB0108A5DB010869DA01085EDB0108B4
:1033B0009EDA010882DA01083DDB0108BCE0010861
:1033C0002DE9F04381B0984616460F46044616F0A4
:1033D000F3FC40F6B469C2F20009D9E906210546BA
:1033E000104614F0ADF944F6D351281AC1F2620127
:1033F000A0FB0112510B4FF4FA325143C4EB0412FB
:1034000005EB4202081A104400F64804A5420CD904
:10341000C7EB0711281B4900B0FBF1F00130C0B227
:1034200001FB0044B0420BD202E00020B04207D2C0
:10343000D9E9080114F084F9A0F6D630844203D902
:10344000002001B0BDE8F0834CF6F860C0F6010042
:10345000C06D641B8047B9F90E10241A084618F095
:1034600049FE0021CCF2A01118F01AFC014618F018
:10347000D1FE4BF22D21CBF61D5118F0CBFE0646A6
:10348000204618F04FFE05463046294618F0C2FE89
:1034900042F20041C4F6741118F0D8FC01462846E7
:1034A00018F0FEFB18F0E2FA0021044618F0BBFC0D
:1034B000002818BF2C46204618F0F8FDC8F8000078
:1034C000012001B0BDE8F08380B540F2C000C2F237
:1034D0000000416843220A7040F26311018006F047
:1034E0004BF9012805D042F24C40C2F2000016F020
:1034F00087FD40F2C000C2F2000000210022BDE8BA
:10350000804006F00BBB00000120002116F0F6BB46
:103510002DE9F041CAB0064600294FF0020059D00B
:10352000DDF84081B8F1000F54D068461F461446BC
:103530000D46FDF769FC42F2E830C2F20000006877
:10354000014611F8102FBA422CD0014611F8212F54
:10355000BA4227D0014611F8322FBA4222D0014692
:1035600011F8432FBA421DD0014611F8542FBA4228
:1035700018D0014611F8652FBA4213D0014611F850
:10358000762FBA420ED0014611F8872FBA4209D0E1
:10359000014611F8982FBA4204D010F8A91FB94279
:1035A00001461AD101316846FDF740FC26B1684654
:1035B00031461022FDF740FC6E4630462946224631
:1035C000FDF73AFC46A83146FDF742F94698C8F89F
:1035D000000000204AB0BDE8F08103204AB0BDE8F9
:1035E000F081000000284FF0000218BF002901D12F
:1035F00010467047B0B548F22032CEF6B8520129D5
:1036000001F0010C07D14FF0FF310023BCF1000F96
:1036100000F0A88074E0ACEB010E4FF0FF316FF0CA
:10362000010300BFC418A578E478694001F00105E2
:103630006D42154085EA5105C1F3400149421140F0
:1036400081EA5501C5F340056D42154085EA5105F3
:10365000C1F340014942114081EA5501C5F34005DB
:103660006D42154085EA5105C1F3400149421140C0
:1036700081EA5501C5F340056D42154085EA5105C3
:10368000C1F340014942114081EA5501614001F016
:1036900001046442144084EA5104C1F340014942E8
:1036A000114081EA5401C4F340046442144084EAA6
:1036B0005104C1F340014942114081EA5401C4F36D
:1036C00040046442144084EA5104C1F34001494279
:1036D000114081EA5401C4F340046442144084EA76
:1036E0005104C1F340014942023311400EEB03057E
:1036F000023581EA540195D10233BCF1000F31D07B
:10370000C05C484000F001014942114081EA50018B
:10371000C0F340004042104080EA5100C1F3400134
:103720004942114081EA5001C0F34000404210403C
:1037300080EA5100C1F340014942114081EA500141
:10374000C0F340004042104080EA5100C0F3400303
:10375000C1F3400149425B421140134081EA5000ED
:1037600083EA5001CA43BDE8B040104670470000EC
:1037700080B501F087F801F099F8BDE8804001F0CC
:103780008BB8000042F2E860C2F2000001F086B996
:1037900070470000EFF3108072B600BFFEE7000034
:1037A00080B584B00223CDE9013001A8039112B1A4
:1037B00001F05EFB02E0694601F0EAFA6FF00101F8
:1037C000022808BF0121002808BF0146084604B0AE
:1037D00080BD00002DE9F04F8BB0844600296FF0CA
:1037E000040000F070818B4642EA0C0111F00701E1
:1037F00040F0698147F2E05044F21009C1F6FF70D1
:10380000C5F600090068D9F80410002900F15581B7
:103810009A464FF60043C0F2FF3303EA80200CEBD8
:1038200002036FF000670CF178413B44B1FBF0F606
:10383000B3FBF0F706FB101107FB10304FEAD12E57
:10384000C10A8E454FF0000000F23D814FF0FF3875
:1038500060466FF3DF208E4501911146029218BF3A
:10386000C0F500620692CDF800A013E0DDF800A0DC
:10387000DDF810C00699DDF814B002988C448B4432
:10388000411A069103980199884200F10100864689
:1038900080F018815FEA4C70CDF814B0CDE903ECEC
:1038A0002AD000221CF80200FF2840F0AD800CEB6B
:1038B0000201481C430700F0F4800078FF2840F024
:1038C000A380881C430700F0F0800078FF2840F0B8
:1038D0009B80C81C430700F0EC800078FF2840F074
:1038E0009380081D400702F10402DBD10698811A7B
:1038F0000CEB020002E000BF069960460022B2EB2A
:10390000D10F2FD0CF0821F0070203461044013F0A
:10391000D3E9006585EA080586EA08062E4373D1D7
:1039200007B3D3E9026585EA080586EA08062E434F
:103930006AD1012F16D0D3E9046585EA080586EA25
:1039400008062E4360D1022F0CD0D3E9066585EA24
:10395000080586EA08062E4356D1043F7E1C03F173
:103960002003D5D1891A19D0CA1E8B1E4F1E0026DE
:10397000855DFF2D48D1B74210D085196C78FF2C9A
:1039800042D1B3420AD0AC78FF2C3DD1B24205D02F
:10399000ED78FF2D38D10436B142E9D106990020E7
:1039A000B0EBD10F3FF462AF0698DDE904744FEA43
:1039B000D00B4FF0000A07E00AF1010A0834DA459B
:1039C00007F108073FF452AF08A82146082216F075
:1039D00041F8DDE9085686EA080085EA080108434F
:1039E000EAD000BFD7E90001714068400843E3D046
:1039F000D9F800000003FBD4012039462A4633469B
:103A000001F080FAEEE700BFBAF1000F5ED04FF090
:103A1000006000EBCE24504621464FF4006265461C
:103A2000764616F017F8284606996FF3DF205044C3
:103A30008AB2594616F00EF80220CDE90806012098
:103A40000A9008A807A901F0A3F9002843D100258E
:103A5000D34608E001350BF1080BB5F5807F04F182
:103A600008043FF405AF08A85946082215F0F2FFF4
:103A7000DDE9086787EA080086EA08010843E9D01B
:103A8000D4E90001794070400843E3D0D9F8000040
:103A90000003FBD40120214632463B4601F032FAB6
:103AA000EEE7D143069A114428E70699891A0239AC
:103AB00024E70699891A033920E76FF003000BB059
:103AC000BDE8F08F00200BB0BDE8F08F6FF0040070
:103AD0000BB0BDE8F08F6FF001000BB0BDE8F08FC8
:103AE00070B544F210060446C5F6000601F0CCFCA1
:103AF000054600BF3068C00306D501F0C5FC401B79
:103B0000A042F7D3032070BD3068C1071CBF01215C
:103B100031604CF2FA3108400DD042F62C01C2F26D
:103B2000000130604860012070BD00BF01F0ACFCB6
:103B3000401BA042E6D230684003F7D4002070BD9D
:103B400080B512F049FD40F6B831884202D9FE2016
:103B5000C0B280BDB0F5E16F02D20020C0B280BD1E
:103B600040F21061C0EBC010CFF6F97101EB4000DC
:103B700048F2B511C1F64E31A0FB0101C809C0B22F
:103B800080BD000010B547F28050C1F6FF7000689C
:103B9000411C18BF10BD01F083FC044601F086FCF7
:103BA000444001F089FC604010BD000080B512F077
:103BB00033FD001280BD0000B0B547F28451C1F65C
:103BC000FF7151F8042C0446531C0BD010BA6060EE
:103BD0000868E0700868010A020C000EA1706270AB
:103BE0002070B0BD01F05CFC054601F065FC0544A9
:103BF00001F05CFC010E6560E170010C020AA1702D
:103C000062702070B0BD00002DE9F04182B0044622
:103C10000020019094F85400012804D10225284680
:103C200002B0BDE8F081012084F854002046FCF782
:103C300013FD216805460A4652F8083FA76DDB07C9
:103C400045D127F481770237A765CF68CE6848F25F
:103C500003008643CE608E684FF6E87C4BF2FF731C
:103C600007EA000846F00040C7F6FF7CC0F20203F6
:103C700020F0170088601068B0F1FF3F2ADC01983F
:103C8000013001900198984200F29B811068B0F1D8
:103C9000FF3F1FDC0198013001900198984200F22B
:103CA00090811068B0F1FF3F14DC01980130019061
:103CB0000198984200F285811068B0F1FF3F09DC5D
:103CC00001980130019001989842D4D979E147F0E8
:103CD00010007CE1D1F8B4008F6800F07F0607EA9D
:103CE0000C0000F1004088601068B0F1FF3F27DC55
:103CF0000198013001900198984200F262811068A9
:103D0000B0F1FF3F1CDC019801300190019898420E
:103D100000F257811068B0F1FF3F11DC01980130CB
:103D200001900198984200F24C811068B0F1FF3F79
:103D300006DC01980130019001989842D4D940E105
:103D4000D1F8B4008F6800F07F00064407EA0C0049
:103D500000F1004088601068B0F1FF3F27DC019857
:103D6000013001900198984200F22B811068B0F167
:103D7000FF3F1CDC0198013001900198984200F24D
:103D800020811068B0F1FF3F11DC019801300190F3
:103D90000198984200F215811068B0F1FF3F06DCEF
:103DA00001980130019001989842D4D909E1D1F8E5
:103DB000B4008F6800F07F00064407EA0C0000F1B1
:103DC000004088601068B0F1FF3F27DC01980130A7
:103DD00001900198984200F2F4801068B0F1FF3F22
:103DE0001CDC0198013001900198984200F2E980B2
:103DF0001068B0F1FF3F11DC01980130019001988B
:103E0000984200F2DE801068B0F1FF3F06DC0198B6
:103E10000130019001989842D4D9D2E0D1F8B40091
:103E20008F6800F07F00064407EA0C0000F10040B4
:103E300088601068B0F1FF3F27DC019801300190E5
:103E40000198984200F2BD801068B0F1FF3F1CDC81
:103E50000198013001900198984200F2B2801068F8
:103E6000B0F1FF3F11DC01980130019001989842B8
:103E700000F2A7801068B0F1FF3F06DC0198013026
:103E8000019001989842D4D99BE0D1F8B4008F6892
:103E900000F07F00064407EA0C0000F10040886053
:103EA0001068B0F1FF3F25DC0198013001900198C6
:103EB000984200F286801068B0F1FF3F1ADC01984A
:103EC00001300190019898427BD81068B0F1FF3F13
:103ED00010DC0198013001900198984271D8106867
:103EE000B0F1FF3F06DC0198013001900198984243
:103EF000D6D966E0D1F8B4008F6800F07F000644A0
:103F000007EA0C0000F1004088601068B0F1FF3F44
:103F100024DC0198013001900198984251D8106832
:103F2000B0F1FF3F1ADC01980130019001989842EE
:103F300047D81068B0F1FF3F10DC019801300190C4
:103F4000019898423DD81068B0F1FF3F06DC019817
:103F50000130019001989842D7D932E0D1F8B400ED
:103F60008F6800F07F00064407EA0C0000F1004073
:103F700088601068B0F1FF3F31DC0198013001909A
:103F8000019898421DD81068B0F1FF3F27DC0198D6
:103F9000013001900198984213D81068B0F1FF3FAA
:103FA0001DDC0198013001900198984209D81068F1
:103FB000B0F1FF3F13DC0198013001900198984265
:103FC000D7D9A06D012540F0100020F00200A065B7
:103FD000002084F85400284602B0BDE8F081D1F8F2
:103FE000B4008A6800F07F0002EA0C0242F001028D
:103FF0008A60D1F8B420304422F07F0242EAD00037
:10400000C1F8B400886800EA0C0040F00200886043
:1040100001F03AFA21688A68D20708D1C86840EAF4
:104020000800C860A06D012161F30100CFE70646DA
:1040300002E08868C007F1D001F026FA801B2168F1
:104040000328F6D38868C007F3D0A06D012540F09F
:104050001000A065E06D40F00100E065284602B068
:10406000BDE8F0812DE9F04381B00022009290F884
:104070005420012A04D10221084601B0BDE8F08392
:104080000123026880F8543093685B071AD44B68A8
:104090000469022B1CD1042744F00403C8F2000772
:1040A000BB4227D10B684FF6FF77D943C0F2030715
:1040B000966A61EA070131409162B3F1FF3F1DDD6D
:1040C0000021FBE0816D41F0200181650121F5E0D7
:1040D00044F0040C0424C8F20004A4452CD1D1F807
:1040E00000E01346744653F828CF6FF39F444CEA20
:1040F000040C4BE00B68B3F1FF3FE1DC42F20871C6
:10410000C4F2010144F200070A68CBF60007BB4283
:1041100000F0B38042F20007CBF20047BB4200F050
:10412000B08041F20007CBF20007BB4240F0B28002
:104130000B6802F0A072A7E0D1F800E0066E03F071
:104140001F0C0F24D0F81C8004FA0CF4CEF3846703
:104150009EFAAEF526EA04095FEA8E3618BFB5FA74
:1041600085F707FA0CF545EA0905B8EB930F0566E4
:104170000ED9134653F8285FE4434FEA9E662C405D
:1041800006F00F0505FA0CF744EA070CC3F800C067
:10419000896853694FF6007701EA0E21C0F2FF37B4
:1041A00023EA0E2339401943BEF1FF3F516101DD7F
:1041B000002183E042F2087CC4F2010CDCF80030FC
:1041C00041F20001CBF200018E4503F0E07208BF1E
:1041D00013F400011BD044F20001CBF600018E4520
:1041E00008BF13F0807157D042F20001CBF20041BA
:1041F0008E454FF0000108BF13F480035ED1DCF858
:10420000001021F0E071114341F480014BE0DCF833
:10421000001021F0E071114341F40001CCF80010CE
:1042200040F21011C2F20001096842F66352890996
:10423000C0F23E52A1FB0212910901EB41010C2296
:1042400002EB81010091009989B300990139009135
:10425000009971B3009901390091009959B30099FF
:1042600001390091009941B30099013900910099F9
:1042700000294FF00001E8D120E00B6802F4400271
:1042800002E00B6802F0C07223F0E0731A440A6087
:10429000002113E0002111E0DCF8001021F0E071B2
:1042A000114341F08071CCF80010002106E000219C
:1042B00004E0002102E0002100E00021002280F85B
:1042C0005420084601B0BDE8F083000070B5002816
:1042D00056D004460068A16D4FF6E87641F0020121
:1042E000A1658168C6F6FF7649070FD58168890701
:1042F00006D4816806F18052114041F010018160BE
:1043000001F0C2F82168896849073BD42046FCF7D0
:10431000A3F90546002804BF0120A0652068816834
:1043200031408160416840F29F32914341600260B8
:10433000C16840F20022C8F23E321140C1600169FA
:10434000002621F040410161416921F007014161EE
:10435000016A01F0F0210162816A866242F208700E
:10436000C4F20100016821F0FE710160204600F0F6
:104370006BF928462666E665A66584F8546070BD2C
:10438000012070BD054602E080684007BED501F0FF
:104390007BF8411B20680329F6D381684907F3D5D0
:1043A000A16D012541F01001A165E16D41F0010110
:1043B000E165B7E70068006C704700002DE9F04147
:1043C00082B004460020019044B1254655F8580FAC
:1043D00040B121688868C0000FD540E0012002B0DC
:1043E000BDE8F081204600F03FF90020E06584F848
:1043F000540021688868C00031D488684FF6E8729C
:10440000C6F6FF72104000F18050886040F2101034
:10441000C2F20000006842F663528009C0F23E52C8
:10442000A0FB02029009022202EB400001900198D9
:10443000A8B100BF019801380190019878B10198A6
:1044400001380190019850B101980138019001980C
:1044500028B101980138019001980028EAD18868B4
:10446000C00009D4A06D40F01000A065E06D40F0E0
:104470000100E065012000E000208A68C2F38002AC
:104480002B6803F01003D2182A6806D042F01001FE
:104490000120296002B0BDE8F08122F4817202326D
:1044A0002A608A68D2076FD1227ED4E9023E667EF6
:1044B00043EA823394F81A80D4F810C043EAC63332
:1044C00043EA4833266B4FF40017BCF1000F43EA70
:1044D0000E0348BF2CF0004794F82C20002E18BF84
:1044E00043F4805394F820603B43012E43EA420397
:1044F0000BD1B8F1000F00F0A080A26D42F02002B5
:10450000A265E26D42F00102E265626A2AB102F43C
:10451000E072A76A1A4342EA0703CA6840F2012719
:10452000CFF6FE773A401A43CA60636894F83C209D
:10453000E76C012A03F0404242EA070209D1D4E9BC
:104540001076D4F848E03A43324342EA0E0242F091
:1045500001020F694FF60246C1F6FF7637403A4333
:10456000B3F1004F0A6118BFB3F1404F0ED0B3F161
:10457000804F0BD042F20872C4F2010217689B0C04
:1045800063F39547176001E0D4F810C0D4E90D3209
:104590004F69BCF1000F27F0070747EA03074F6197
:1045A0004F6927F0700747EA02124A6112D0BCF542
:1045B000001F23D1D4F860C00A460CF00F0652F851
:1045C00028EF0F2E0CD00CF0F006F02E08D16EF074
:1045D0000F0C11E00A4652F8287F67F00F0C0BE031
:1045E000E7691C2606EB870707F01C076FF00F062C
:1045F00006FA07F74CEA070CC2F800C0496901F057
:104600000701994209D10021E165A16D012262F300
:104610000101296002B0BDE8F081A06D40F01000FA
:1046200020F00200A06554F85C0F40F00101012069
:104630002546296002B0BDE8F08143F48033626A08
:10464000002A7FF464AF68E7006842F20041C4F2D8
:104650000101884218BF70476020C5F6000001685C
:1046600021F400710160704781B0006842F200419E
:10467000C4F20101884201D001B070476020C5F644
:104680000000016841F400710160006800F40070EE
:104690000090009801B07047F0B581B004464069C1
:1046A0000D46082801D1082704E02068C068C0072B
:1046B00053D1042700F0E8FE21680A683A421BD073
:1046C000A06D40F40070A065C86810F4406F53D12D
:1046D000A07E002850D1086800074DD588684007A3
:1046E00042D4486840F2011220F00C004860A06DEE
:1046F00090430130A0653FE00646681C29D065B9AB
:1047000000F0C2FE2168086838420FD008683842BD
:10471000F6D0D5E708683842D2D100F0B5FE801B4C
:104720002168A842F6D908683842F3D1A06D40F05C
:104730000400A065002084F85400032001B0F0BDFF
:1047400008683842BCD108683842B9D10868384294
:10475000B6D108683842F3D0B2E7A06D40F020002F
:10476000A065012001B0F0BDA06D40F02000A06563
:10477000E06D40F00100E065207E002804BF0C20C1
:104780000860002001B0F0BD10B5044600688068E4
:10479000400703D494F85400012801D1022010BD31
:1047A000012084F854002046FBF794FF18B1002143
:1047B00084F8541010BD2168A06D40F6017290433A
:1047C00000F58070A06500201C22E0650A6084F876
:1047D00054008A684FF6E873C7F6FF731A40043234
:1047E0008A6010BDB0B5044690F85400012804BF9B
:1047F0000220B0BD0121206884F854108168490767
:1048000010D58168890707D481684FF6E872C7F62A
:10481000FF7211401031816000F036FE2168896816
:10482000490710D42046FBF717FF18B1002184F880
:104830005410B0BD214651F8580F40F2011220EA41
:104840000202002016E0054603E000BF8068400732
:10485000E8D500F019FE411B20680329F6D38168D2
:104860004907F3D5A06D214640F01000A06551F82E
:104870005C2F012042F001020A60002184F85410EC
:10488000B0BD000042F20400CEF20400016821F045
:10489000010101607047000042F20400CEF2040002
:1048A000016821F0040101607047000042F2040039
:1048B000CEF20400016821F002010160704700009F
:1048C000002804BF0120704780B590F82510022908
:1048D00026D10168D0E910CE826C0B6823F00E035C
:1048E0000B60136823F4807313600A6822F00102DE
:1048F0000A600EF01C02012101FA02F2CCF8042039
:10490000D0E913325A60426D32B1136823F48073D8
:104910001360D0E91623536080F82510002102E0CF
:104920000421C1630121002280F82420BDE88040D9
:104930000846704780B590F8251002292DD10168EE
:10494000D0E910CE826C0B6823F00E030B600B686D
:1049500023F001030B60116821F4807111600EF0E7
:104960001C02012101FA02F2CCF80420D0E9133232
:104970005A60426D32B1136823F480731360D0E93A
:104980001623536080F82510826B002180F82410D4
:104990000AB190470021084680BD0421C16301216E
:1049A000084680BD00284FF0010C04BF012070476D
:1049B0002DE9F04740F2000E0368C4F2020E4FF6F4
:1049C000F8310EF5816ACBF6FD71534538BF01F51C
:1049D00080614CF6CD441944CCF6CC44A1FB0415BF
:1049E0006FF0070151FA83F1A1FB0416D0F804809F
:1049F00019684FF01C0221F0010119606FF00301EA
:104A000002EA950240F61C090EF5806701EA95045A
:104A10004FF000010CFA02F2C4F202093CBF002779
:104A2000C4F20207C0E9107419607A60072202EB31
:104A3000161253454B463CBF0EF5006332091F1951
:104A4000876409F1640702F01F02C7640CFA02F7D9
:104A5000A8F10102032A07651951C9F868700DD839
:104A600009EB8203012643F8E41F09F5927706FA61
:104A700002F2C0E91537C265C9F82821C0E915114D
:104A8000C165C0E90B11C0E90D11C16380F82510A3
:104A900080F82410BDE8F04708467047B0B50168BB
:104AA000D0E910C4DCF800500B6804F01C0E5A0763
:104AB00014D5042202FA0EF414EA05020ED00A6894
:104AC000920603D40A6822F004020A60CCF804407B
:104AD000016B002942D0BDE8B04008479A0721D5B4
:104AE000022202FA0EF414EA05021BD00A689206AA
:104AF00006D40A6822F00A020A60012280F8252002
:104B00000422C4F2020202F17C03994288BF02F53A
:104B100080621460C16A002280F82420F1B1BDE8EF
:104B2000B04008471A0719D5082202FA0EF22A40A7
:104B300008BFB0BD0A6822F00E020A60012101FA26
:104B40000EF2CCF80420C16380F82510416B0022DE
:104B500080F8242011B1BDE8B0400847B0BD000086
:104B600000284FF0010C00F093802DE9F04F002158
:104B7000C4F2020102684FF6F83401F58169CBF600
:104B8000FD744A4538BF04F580644CF6CD4E14449C
:104B9000CCF6CC4EA4FB0E586FF0070555FA82F503
:104BA000A5FB0E5601F580636FF00304D0E9025BAC
:104BB000D0F810A03CBF0023C4F2020304EA98041A
:104BC000C0E91034022380F82530136847F6F077E7
:104BD000BB4313604BEA0503476943EA0A033B43BF
:104BE000D0E9067140F6840E3B431943036A176807
:104BF00019433943C4F2020E1160072101EB16116B
:104C0000AEF168034A4540F20002C4F202023CBF22
:104C100002F5006331091A19AEF1040301F01F0116
:104C2000C3640CFA01F3B5F5804F8264036505D1C6
:104C3000002141601160CEF8003019E0416801F0B8
:104C40007F04013903294FF000011460CEF80030D1
:104C50000ED8621E0EEB820747F87C1F02F003019C
:104C600001228A400EF1BC033946CEF8C02001E093
:104C700000230022C0E915134FF0000C0121C2658A
:104C8000C0F83CC080F8251080F824C0BDE8F04F83
:104C9000604670472DE9F04190F824C0BCF1010F47
:104CA00004BF0220BDE8F0814FF0010C80F824C061
:104CB00090F825C0BCF1010F37D14FF0020C80F8FD
:104CC00025C04FF0000CC0F83CC0D0F800C000F187
:104CD0004C0E9EE83040DCF80060BEF1000F26F07C
:104CE0000106CCF8006065601CBFD0E91645656020
:104CF000D0E91076012506F01C068468B540D0F88E
:104D000030807D60CCF804300B46102C04BF134675
:104D10000A46CCF80830CCF80C20DCF80010B8F1CA
:104D2000000F0AD041F00E010FE08021C163002185
:104D300080F824100120BDE8F08121F00401CCF8B6
:104D40000010DCF8001041F00A01CCF80010806C73
:104D50000168C90303D5016841F480710160BEF1A7
:104D6000000F05D0DEF8000040F48070CEF800009F
:104D7000DCF8000040F00100CCF800000020BDE8A5
:104D8000F081000081B00090009801B012F062BD87
:104D90002DE9F04F81B042F62C06C2F200063278BF
:104DA000012A03D1022001B0BDE8F08F05460120A1
:104DB000307000244FF47A708B467460FEF790FEDA
:104DC00018B1347001B0BDE8F08F286844F21409BE
:104DD0000428C5F600090DD10221D9F80000C0F25F
:104DE000010102310843C9F800004FF47A70FEF760
:104DF00077FE35E04FF0FF30CBF80000D5E90170C9
:104E00003844874220D240F2020A4FF60548C0F2E9
:104E1000010AFC00CFF6FE78D9F8000000EA08008D
:104E2000204340EA0A00C9F800004FF47A70FEF708
:104E300057FE58B9D5E9010101370844874204F10A
:104E40000804E9D3002003E0002002E0CBF8007062
:104E50000024D9F8001040F2FA329143C9F800104A
:104E600059F8141C59F8141C347001B0BDE8F08FC7
:104E700070B542F62C05C2F200052978012904BF5D
:104E8000022070BD04460120287020680026C5E974
:104E900001604FF47A70FEF723FE00281CBF2E70CD
:104EA00070BD44F21401C5F600010868022240F00A
:104EB000407008602068C0F20102042806D100207A
:104EC00028610B6802321A430A6070BDD4E90103FD
:104ED0004FF60546C5E904030B68CFF6FE7633406E
:104EE00043EAC00010430860002070BD44F2140083
:104EF000C5F60000016841F0004101600068C04350
:104F0000C00F70472DE9F04742F62C09C2F20009A4
:104F1000924699F80020012A04BF0220BDE8F087DC
:104F20008046012044F2100589F8000000201F4649
:104F30000E46C5F60005C9F8040000F0A5FA0446BF
:104F40002868C0030BD500F09FFA001BB0F57A7FEC
:104F5000F6D30320002189F80010BDE8F087286807
:104F6000C1071CBF012129604CF2FA3108400FD063
:104F70002860C9F804000120002189F80010BDE86C
:104F8000F08700BF00F080FA001BB0F57A7FE0D216
:104F900028684003F6D4B8F1010F09D1686840F0E1
:104FA00001006860C6F800A0BFF36F8F776042E031
:104FB0006868AAF1400240F480206860EFF3108036
:104FC000EFF3108172B6A6F14001402352F8407F02
:104FD000103B41F8407F57681E064F6097688F600E
:104FE000D768CF6017690F6157694F6197698F6103
:104FF000D769CF61176A0F62576A4F62976A8F62EB
:10500000D76ACF62176B0F63576B4F63976B8F63D2
:10501000D76BCF63DAD105E02968C90309D52968C0
:10502000C90306D52968C90344BF29685FEAC131AD
:10503000F2D480F3108800F027FA04462868C003F1
:1050400007D500F021FA001BB0F57A7FF6D30320D4
:1050500018E02868C1071CBF012129604CF2FA3111
:1050600008400BD02860C9F8040001200AE000BF06
:1050700000F00AFA001BB0F57A7FE8D228684003F6
:10508000F6D40020696821EA08016960002189F8E6
:105090000010BDE8F087000044F20800C5F60000EB
:1050A000C168B1F1FF3FC4BF0020704740F2231137
:1050B000C4F26751016048F6AB11CCF6EF510160C4
:1050C000C068C00F704700002DE9F04F00297CD068
:1050D000B0F1904F7BD040F20047C4F6000707F5CF
:1050E000806398424FF0070E08BF4FF0020EB8429F
:1050F0004FF000054FF000074FF0010608BF4FF0DA
:10510000010E26E002680323AB401A4302606FF0F1
:10511000030202EA5C04044407F01C08D4F820C02F
:105120000F2202FA08F22CEA0202226282689A43F3
:105130008260426822EA0B024260C2689A43C260FF
:1051400031FA06F206F1010607F1040705F102053E
:105150003BD0A6F1010C012202FA0CFB1BEA01096B
:10516000EED008224FEA9C08C4F2010252F828202F
:1051700007F00C03072404FA03FA02EA0A020EFA03
:1051800003F39A42BED140F60003C5F60003D3F8FC
:10519000802022EA0902C3F88020D3F8842022EA82
:1051A0000902C3F884201A6822EA09021A605A68C0
:1051B00022EA09025A600823C4F2010353F82820A6
:1051C00022EA0A0243F828209CE7BDE8F08F002578
:1051D000002401272EE000BF06680322A2401643E8
:1051E0006FF0030340F22009066003EA5C03C4F693
:1051F000000905F01C0853F809C00F2606FA08F646
:105200002CEA060643F80960836893438360436889
:1052100023EA0E034360C36823EA0202C26031FA44
:1052200007F207F1010704F1020405F1040508BFC4
:10523000BDE8F08FA7F1010C012202FA0CFE1EEA74
:105240000109ECD008224FEA9C08C4F2010252F88E
:1052500028B005F00C06072202FA06FA1BEA0A0F2C
:10526000BAD140F60002C5F60002D2F8806026EA04
:105270000906C2F88060D2F8846026EA0906C2F8FE
:105280008460166826EA09061660566826EA09064A
:1052900056600822C4F2010252F8286026EA0A0683
:1052A00042F8286098E700002DE9F04F84B00E68BE
:1052B0000390002E00F0DF8040F600020398C4F651
:1052C00000028E4690424FF007004FF000044FF06E
:1052D00001074FF000054FF0000808BF02200090C2
:1052E000029148E040F20040C4F600008242009A79
:1052F00008BF012202FA03F0082140EA0C00C4F2C0
:10530000010141F8260040F60006C5F600063068A7
:10531000DEF8041040EA0902CB0258BF20EA090275
:10532000326070688B0240EA090258BF20EA090225
:105330007260D6F88000CB0340EA090258BF20EA29
:105340000902C6F88020D6F88400890340EA0902E1
:1053500058BF20EA0902C6F88420DEF8006008F190
:10536000010836FA07F005F1020507F1010704F11B
:10537000040400F08080A7F1010A012000FA0AF37A
:1053800016EA0309E9D0DEF804B00BF0030CACF127
:105390000102012A1ED803984FEA4802816801924F
:1053A000032202FA05F6029AB143D2F80CE0F64362
:1053B0000EFA05F21143DDF808E081604168994377
:1053C00003460198CBF3001202FA0AF21143596026
:1053D0000CE000BF0320A840039BC643BCF1030FB1
:1053E000284603D128464FF0030C26E0D968DEF8A2
:1053F0000820314082401143BCF1020FD9601CD11A
:1054000002466FF0030000EA5A01194404F01C033D
:105410000F20D1F820C000FA03FE1046029A2CEAB1
:105420000E0C1269DDF808E09A4042EA0C02039B78
:105430000A62DEF804B00BF0030C19680CFA00F0F5
:10544000314008431BF4403F18603FF486AF08200A
:105450004FEA9A06C4F2010050F8260004F00C034B
:105460000721039A9940B2F1904F20EA010C7FF492
:1054700039AF00223EE704B0BDE8F08F1823002AC0
:1054800008BF2823C150704742F2E530C2F2000045
:105490000078012814BF002012F052BA70470000B3
:1054A00047F29050C1F6FF700068704747F2945081
:1054B000C1F6FF700068704747F29850C1F6FF7060
:1054C0000068704780B5032000F066F800F00EFB1E
:1054D00040F21011C2F2000108600F2000F008F83D
:1054E00000281CBF012080BD00F004F8002080BD12
:1054F0000020704770470000002848BF704700F048
:105500001F01012202FA01F14EF280124009CEF28F
:10551000000242F82010BFF34F8FBFF36F8F704728
:10552000002848BF704700F01F01012202FA01F174
:105530004EF200124009CEF2000242F820107047ED
:1055400010B54EF60C5CCEF2000CDCF80030C3F364
:10555000022E8EF00704042C28BF0424BEF103039E
:105560004FF0FF3E0EFA04F438BF0023A1439940E8
:105570000EFA03F39A4300F00F03043B1143634414
:1055800009010C3300F16042B0F1FF3FC8BF02F5E2
:105590006443197010BD00004EF60C51CEF20001AC
:1055A0000A684FF6FF031A4060F30A2242F0806057
:1055B00040F0FD700860704740F21440C5F60000EE
:1055C00050F8141C322221F4804140F8141C40F29F
:1055D0001011C2F20001096851434DF68362C4F212
:1055E0001B32A1FB0212910C0268002918BF12F4B1
:1055F000007213D00268012918BF12F400720DD096
:105600000268022918BF12F4007207D00268032949
:1056100004D012F40072A1F10401E5D10068032165
:10562000800501EAE070704740F20040C5F60000D6
:10563000016841F4804101607047000040F2004C75
:10564000C5F6000CDCF8003002224EF6105162F371
:105650000203CEF20001CCF800300A68012842F0C3
:1056600004020A600FBF30BF40BF20BF20BF0868E0
:1056700020F004000860704740F20040C5F60000CA
:10568000006800F4C060704740F20040C5F60000BA
:10569000016841F4807101607047000010B50C464C
:1056A00040F21441C5F600010968002801F40070B9
:1056B00004D0002808BFFFF7B7FF05E020B1FFF7CF
:1056C0007BFF002818BF10BD4EF61050CEF2000030
:1056D0000168012C21F00401016004BF30BF10BD3E
:1056E00040BF20BF20BF10BDF0B581B00446807818
:1056F0008826C007C5F6000600F0A980FFF7C4FFA2
:10570000FFF7C2FE054600BFD6F87803C00575D482
:10571000FFF7BAFE401B0228F6D903202168CA070A
:1057200000F09A806268336823EA124392B21A4307
:1057300032608A0740F19380A268336823EA1243FB
:1057400092B21A4332608A0640F18C802269336833
:1057500023F440631A4332608A0540F18680226A4E
:1057600033684FF6FF7767EA02073B4043EA02429D
:1057700032604A057CD5626A33684FF6FF7767EA84
:1057800002073B4043EA024232600A0572D5A26A30
:1057900033684FF6FF7767EA02073B4043EA02426D
:1057A00032604A0668D5626933686FF47F2767EA1A
:1057B00012173B4002F47F4243EA021232600A06AB
:1057C0005CD5A26933686FF47F2767EA12173B4004
:1057D00002F47F4243EA02123260CA0550D5E26900
:1057E00033686FF47F2767EA12173B4002F47F4269
:1057F00043EA02123260CA0654D543E0B168606BD6
:1058000001F4407181421DD0B168B26821F4407347
:1058100042F48032B260B268890722F480320146D5
:10582000B260B3600ED5FFF72FFE054641F2883710
:10583000B068800705D4FFF727FE401BB842F7D9B0
:105840006BE7616BB06820F440700843B0600020E3
:105850002168CA077FF466AF8A073FF56DAF8A06F5
:105860003FF574AF8A053FF57AAF4A053FF583AF40
:105870000A058CD44A0696D40A06A2D4CA05AED428
:10588000CA060FD5E2683368B2F5807F23F440730F
:1058900043EA0203336005D156F87C2C42F0807253
:1058A00046F87C2C0A0407D5226B336823F040436A
:1058B00043EA0203336092B1490418D5E16A3268C1
:1058C000B1F1005F22F0405242EA010232600ED193
:1058D00056F87C1C41F4803146F87C1C07E056F8F1
:1058E0007C2C42F0807246F87C2C4904E6D401B04E
:1058F000F0BD00002DE9F04381B0002800F0AF803A
:1059000044F20008C5F600080546D8F800000C4629
:1059100000F00700884215D2D8F8000020F00700F8
:105920002043C8F80000FFF7AFFD0646D8F8000096
:1059300000F00700A04205D0FFF7A6FD801B02285B
:10594000F4D95BE0286808278107C5F6000713D55E
:10595000A868396821F0F00108433860FFF794FD2A
:10596000064600BF3868C00305D4FFF78DFD801BD5
:105970000228F7D942E02868410616D56869D7F8A9
:10598000001121F00F0141EA1010C7F80001FFF7E4
:105990007BFD0646D7F80001C00305D4FFF774FD70
:1059A000801B0228F6D929E02868410712D5E8684B
:1059B000396821F4E06108433860FFF765FD064669
:1059C0003868800305D4FFF75FFD801B0228F7D9F4
:1059D00014E02868010716D52869396821F4605158
:1059E00041EAC0003860FFF74FFD064638684003C3
:1059F00008D4FFF749FD801B0228F7D9032001B026
:105A0000BDE8F0832868C0071ED1D8F8000000F078
:105A10000700A04227D9D8F8000020F00700204353
:105A2000C8F80000FFF730FD054600BFD8F80000B9
:105A300000F00700A04216D0FFF726FD401B022809
:105A40004FF00300F2D945E068684FF0B04130B341
:105A5000032842D0022844D10968890322D40120B6
:105A600001B0BDE8F08300F08BF839683C2202EA0F
:105A700091014CF65812C0F60102515840F2101232
:105A8000B0FBF1F140F26400C2F200000068C2F223
:105A90000002116001B0BDE8F043FFF729BD0968BD
:105AA0008907DCD5396821F0030108433860FFF726
:105AB000EBFC064641F288393868696800F00C0052
:105AC000B0EB810FA1D0FFF7DFFC801B48454FF002
:105AD0000300F1D901B0BDE8F08309688901BED5A2
